{
	"contracts/crowdfunding.sol": {
		"CrowdFunding": {
			"abi": [
				{
					"inputs": [
						{
							"internalType": "uint256",
							"name": "_target",
							"type": "uint256"
						},
						{
							"internalType": "uint256",
							"name": "_deadline",
							"type": "uint256"
						}
					],
					"stateMutability": "nonpayable",
					"type": "constructor"
				},
				{
					"inputs": [
						{
							"internalType": "address",
							"name": "",
							"type": "address"
						}
					],
					"name": "contributors",
					"outputs": [
						{
							"internalType": "uint256",
							"name": "",
							"type": "uint256"
						}
					],
					"stateMutability": "view",
					"type": "function"
				},
				{
					"inputs": [
						{
							"internalType": "string",
							"name": "_description",
							"type": "string"
						},
						{
							"internalType": "address payable",
							"name": "_recipient",
							"type": "address"
						},
						{
							"internalType": "uint256",
							"name": "_value",
							"type": "uint256"
						}
					],
					"name": "createrequest",
					"outputs": [],
					"stateMutability": "nonpayable",
					"type": "function"
				},
				{
					"inputs": [],
					"name": "deadline",
					"outputs": [
						{
							"internalType": "uint256",
							"name": "",
							"type": "uint256"
						}
					],
					"stateMutability": "view",
					"type": "function"
				},
				{
					"inputs": [],
					"name": "gcb",
					"outputs": [
						{
							"internalType": "uint256",
							"name": "",
							"type": "uint256"
						}
					],
					"stateMutability": "view",
					"type": "function"
				},
				{
					"inputs": [
						{
							"internalType": "uint256",
							"name": "_requestno",
							"type": "uint256"
						}
					],
					"name": "makepayment",
					"outputs": [],
					"stateMutability": "nonpayable",
					"type": "function"
				},
				{
					"inputs": [],
					"name": "manager",
					"outputs": [
						{
							"internalType": "address",
							"name": "",
							"type": "address"
						}
					],
					"stateMutability": "view",
					"type": "function"
				},
				{
					"inputs": [],
					"name": "minimumContributor",
					"outputs": [
						{
							"internalType": "uint256",
							"name": "",
							"type": "uint256"
						}
					],
					"stateMutability": "view",
					"type": "function"
				},
				{
					"inputs": [],
					"name": "noOfContributors",
					"outputs": [
						{
							"internalType": "uint256",
							"name": "",
							"type": "uint256"
						}
					],
					"stateMutability": "view",
					"type": "function"
				},
				{
					"inputs": [],
					"name": "numrequest",
					"outputs": [
						{
							"internalType": "uint256",
							"name": "",
							"type": "uint256"
						}
					],
					"stateMutability": "view",
					"type": "function"
				},
				{
					"inputs": [],
					"name": "raisedAmount",
					"outputs": [
						{
							"internalType": "uint256",
							"name": "",
							"type": "uint256"
						}
					],
					"stateMutability": "view",
					"type": "function"
				},
				{
					"inputs": [],
					"name": "refund",
					"outputs": [],
					"stateMutability": "nonpayable",
					"type": "function"
				},
				{
					"inputs": [
						{
							"internalType": "uint256",
							"name": "",
							"type": "uint256"
						}
					],
					"name": "requests",
					"outputs": [
						{
							"internalType": "string",
							"name": "description",
							"type": "string"
						},
						{
							"internalType": "address payable",
							"name": "recipient",
							"type": "address"
						},
						{
							"internalType": "uint256",
							"name": "value",
							"type": "uint256"
						},
						{
							"internalType": "bool",
							"name": "completed",
							"type": "bool"
						},
						{
							"internalType": "uint256",
							"name": "noOfvoters",
							"type": "uint256"
						}
					],
					"stateMutability": "view",
					"type": "function"
				},
				{
					"inputs": [],
					"name": "sendEth",
					"outputs": [],
					"stateMutability": "payable",
					"type": "function"
				},
				{
					"inputs": [],
					"name": "target",
					"outputs": [
						{
							"internalType": "uint256",
							"name": "",
							"type": "uint256"
						}
					],
					"stateMutability": "view",
					"type": "function"
				},
				{
					"inputs": [
						{
							"internalType": "uint256",
							"name": "_requestno",
							"type": "uint256"
						}
					],
					"name": "voterequest",
					"outputs": [],
					"stateMutability": "nonpayable",
					"type": "function"
				}
			],
			"devdoc": {
				"kind": "dev",
				"methods": {},
				"version": 1
			},
			"evm": {
				"assembly": "    /* \"contracts/crowdfunding.sol\":74:3487  contract CrowdFunding{... */\n  mstore(0x40, 0x80)\n    /* \"contracts/crowdfunding.sol\":464:716  constructor(uint _target, uint _deadline){ // automatically called function... */\n  callvalue\n  dup1\n  iszero\n  tag_1\n  jumpi\n  0x00\n  dup1\n  revert\ntag_1:\n  pop\n  mload(0x40)\n  sub(codesize, bytecodeSize)\n  dup1\n  bytecodeSize\n  dup4\n  codecopy\n  dup2\n  dup2\n  add\n  0x40\n  mstore\n  dup2\n  add\n  swap1\n  tag_2\n  swap2\n  swap1\n  tag_3\n  jump\t// in\ntag_2:\n    /* \"contracts/crowdfunding.sol\":556:563  _target */\n  dup2\n    /* \"contracts/crowdfunding.sol\":549:555  target */\n  0x04\n    /* \"contracts/crowdfunding.sol\":549:563  target=_target */\n  dup2\n  swap1\n  sstore\n  pop\n    /* \"contracts/crowdfunding.sol\":599:608  _deadline */\n  dup1\n    /* \"contracts/crowdfunding.sol\":583:598  block.timestamp */\n  timestamp\n    /* \"contracts/crowdfunding.sol\":583:608  block.timestamp+_deadline */\n  tag_6\n  swap2\n  swap1\n  tag_7\n  jump\t// in\ntag_6:\n    /* \"contracts/crowdfunding.sol\":574:582  deadline */\n  0x03\n    /* \"contracts/crowdfunding.sol\":574:608  deadline=block.timestamp+_deadline */\n  dup2\n  swap1\n  sstore\n  pop\n    /* \"contracts/crowdfunding.sol\":639:647  1000 wei */\n  0x03e8\n    /* \"contracts/crowdfunding.sol\":620:638  minimumContributor */\n  0x02\n    /* \"contracts/crowdfunding.sol\":620:647  minimumContributor=1000 wei */\n  dup2\n  swap1\n  sstore\n  pop\n    /* \"contracts/crowdfunding.sol\":698:708  msg.sender */\n  caller\n    /* \"contracts/crowdfunding.sol\":690:697  manager */\n  0x01\n  0x00\n    /* \"contracts/crowdfunding.sol\":690:708  manager=msg.sender */\n  0x0100\n  exp\n  dup2\n  sload\n  dup2\n  0xffffffffffffffffffffffffffffffffffffffff\n  mul\n  not\n  and\n  swap1\n  dup4\n  0xffffffffffffffffffffffffffffffffffffffff\n  and\n  mul\n  or\n  swap1\n  sstore\n  pop\n    /* \"contracts/crowdfunding.sol\":464:716  constructor(uint _target, uint _deadline){ // automatically called function... */\n  pop\n  pop\n    /* \"contracts/crowdfunding.sol\":74:3487  contract CrowdFunding{... */\n  jump(tag_8)\n    /* \"#utility.yul\":88:205   */\ntag_10:\n    /* \"#utility.yul\":197:198   */\n  0x00\n    /* \"#utility.yul\":194:195   */\n  dup1\n    /* \"#utility.yul\":187:199   */\n  revert\n    /* \"#utility.yul\":334:411   */\ntag_12:\n    /* \"#utility.yul\":371:378   */\n  0x00\n    /* \"#utility.yul\":400:405   */\n  dup2\n    /* \"#utility.yul\":389:405   */\n  swap1\n  pop\n    /* \"#utility.yul\":334:411   */\n  swap2\n  swap1\n  pop\n  jump\t// out\n    /* \"#utility.yul\":417:539   */\ntag_13:\n    /* \"#utility.yul\":490:514   */\n  tag_22\n    /* \"#utility.yul\":508:513   */\n  dup2\n    /* \"#utility.yul\":490:514   */\n  tag_12\n  jump\t// in\ntag_22:\n    /* \"#utility.yul\":483:488   */\n  dup2\n    /* \"#utility.yul\":480:515   */\n  eq\n    /* \"#utility.yul\":470:533   */\n  tag_23\n  jumpi\n    /* \"#utility.yul\":529:530   */\n  0x00\n    /* \"#utility.yul\":526:527   */\n  dup1\n    /* \"#utility.yul\":519:531   */\n  revert\n    /* \"#utility.yul\":470:533   */\ntag_23:\n    /* \"#utility.yul\":417:539   */\n  pop\n  jump\t// out\n    /* \"#utility.yul\":545:688   */\ntag_14:\n    /* \"#utility.yul\":602:607   */\n  0x00\n    /* \"#utility.yul\":633:639   */\n  dup2\n    /* \"#utility.yul\":627:640   */\n  mload\n    /* \"#utility.yul\":618:640   */\n  swap1\n  pop\n    /* \"#utility.yul\":649:682   */\n  tag_25\n    /* \"#utility.yul\":676:681   */\n  dup2\n    /* \"#utility.yul\":649:682   */\n  tag_13\n  jump\t// in\ntag_25:\n    /* \"#utility.yul\":545:688   */\n  swap3\n  swap2\n  pop\n  pop\n  jump\t// out\n    /* \"#utility.yul\":694:1201   */\ntag_3:\n    /* \"#utility.yul\":773:779   */\n  0x00\n    /* \"#utility.yul\":781:787   */\n  dup1\n    /* \"#utility.yul\":830:832   */\n  0x40\n    /* \"#utility.yul\":818:827   */\n  dup4\n    /* \"#utility.yul\":809:816   */\n  dup6\n    /* \"#utility.yul\":805:828   */\n  sub\n    /* \"#utility.yul\":801:833   */\n  slt\n    /* \"#utility.yul\":798:917   */\n  iszero\n  tag_27\n  jumpi\n    /* \"#utility.yul\":836:915   */\n  tag_28\n  tag_10\n  jump\t// in\ntag_28:\n    /* \"#utility.yul\":798:917   */\ntag_27:\n    /* \"#utility.yul\":956:957   */\n  0x00\n    /* \"#utility.yul\":981:1045   */\n  tag_29\n    /* \"#utility.yul\":1037:1044   */\n  dup6\n    /* \"#utility.yul\":1028:1034   */\n  dup3\n    /* \"#utility.yul\":1017:1026   */\n  dup7\n    /* \"#utility.yul\":1013:1035   */\n  add\n    /* \"#utility.yul\":981:1045   */\n  tag_14\n  jump\t// in\ntag_29:\n    /* \"#utility.yul\":971:1045   */\n  swap3\n  pop\n    /* \"#utility.yul\":927:1055   */\n  pop\n    /* \"#utility.yul\":1094:1096   */\n  0x20\n    /* \"#utility.yul\":1120:1184   */\n  tag_30\n    /* \"#utility.yul\":1176:1183   */\n  dup6\n    /* \"#utility.yul\":1167:1173   */\n  dup3\n    /* \"#utility.yul\":1156:1165   */\n  dup7\n    /* \"#utility.yul\":1152:1174   */\n  add\n    /* \"#utility.yul\":1120:1184   */\n  tag_14\n  jump\t// in\ntag_30:\n    /* \"#utility.yul\":1110:1184   */\n  swap2\n  pop\n    /* \"#utility.yul\":1065:1194   */\n  pop\n    /* \"#utility.yul\":694:1201   */\n  swap3\n  pop\n  swap3\n  swap1\n  pop\n  jump\t// out\n    /* \"#utility.yul\":1207:1387   */\ntag_15:\n    /* \"#utility.yul\":1255:1332   */\n  0x4e487b7100000000000000000000000000000000000000000000000000000000\n    /* \"#utility.yul\":1252:1253   */\n  0x00\n    /* \"#utility.yul\":1245:1333   */\n  mstore\n    /* \"#utility.yul\":1352:1356   */\n  0x11\n    /* \"#utility.yul\":1349:1350   */\n  0x04\n    /* \"#utility.yul\":1342:1357   */\n  mstore\n    /* \"#utility.yul\":1376:1380   */\n  0x24\n    /* \"#utility.yul\":1373:1374   */\n  0x00\n    /* \"#utility.yul\":1366:1381   */\n  revert\n    /* \"#utility.yul\":1393:1584   */\ntag_7:\n    /* \"#utility.yul\":1433:1436   */\n  0x00\n    /* \"#utility.yul\":1452:1472   */\n  tag_33\n    /* \"#utility.yul\":1470:1471   */\n  dup3\n    /* \"#utility.yul\":1452:1472   */\n  tag_12\n  jump\t// in\ntag_33:\n    /* \"#utility.yul\":1447:1472   */\n  swap2\n  pop\n    /* \"#utility.yul\":1486:1506   */\n  tag_34\n    /* \"#utility.yul\":1504:1505   */\n  dup4\n    /* \"#utility.yul\":1486:1506   */\n  tag_12\n  jump\t// in\ntag_34:\n    /* \"#utility.yul\":1481:1506   */\n  swap3\n  pop\n    /* \"#utility.yul\":1529:1530   */\n  dup3\n    /* \"#utility.yul\":1526:1527   */\n  dup3\n    /* \"#utility.yul\":1522:1531   */\n  add\n    /* \"#utility.yul\":1515:1531   */\n  swap1\n  pop\n    /* \"#utility.yul\":1550:1553   */\n  dup1\n    /* \"#utility.yul\":1547:1548   */\n  dup3\n    /* \"#utility.yul\":1544:1554   */\n  gt\n    /* \"#utility.yul\":1541:1577   */\n  iszero\n  tag_35\n  jumpi\n    /* \"#utility.yul\":1557:1575   */\n  tag_36\n  tag_15\n  jump\t// in\ntag_36:\n    /* \"#utility.yul\":1541:1577   */\ntag_35:\n    /* \"#utility.yul\":1393:1584   */\n  swap3\n  swap2\n  pop\n  pop\n  jump\t// out\n    /* \"contracts/crowdfunding.sol\":74:3487  contract CrowdFunding{... */\ntag_8:\n  dataSize(sub_0)\n  dup1\n  dataOffset(sub_0)\n  0x00\n  codecopy\n  0x00\n  return\nstop\n\nsub_0: assembly {\n        /* \"contracts/crowdfunding.sol\":74:3487  contract CrowdFunding{... */\n      mstore(0x40, 0x80)\n      jumpi(tag_1, lt(calldatasize, 0x04))\n      shr(0xe0, calldataload(0x00))\n      dup1\n      0x5c4627e9\n      gt\n      tag_17\n      jumpi\n      dup1\n      0xc59ee1dc\n      gt\n      tag_18\n      jumpi\n      dup1\n      0xc59ee1dc\n      eq\n      tag_13\n      jumpi\n      dup1\n      0xcbaf8671\n      eq\n      tag_14\n      jumpi\n      dup1\n      0xd4b83992\n      eq\n      tag_15\n      jumpi\n      dup1\n      0xfe7c1b8a\n      eq\n      tag_16\n      jumpi\n      jump(tag_1)\n    tag_18:\n      dup1\n      0x5c4627e9\n      eq\n      tag_9\n      jumpi\n      dup1\n      0x626b4b2c\n      eq\n      tag_10\n      jumpi\n      dup1\n      0x81d12c58\n      eq\n      tag_11\n      jumpi\n      dup1\n      0x967c67ce\n      eq\n      tag_12\n      jumpi\n      jump(tag_1)\n    tag_17:\n      dup1\n      0x30817529\n      gt\n      tag_19\n      jumpi\n      dup1\n      0x30817529\n      eq\n      tag_5\n      jumpi\n      dup1\n      0x481c6a75\n      eq\n      tag_6\n      jumpi\n      dup1\n      0x4e260f6f\n      eq\n      tag_7\n      jumpi\n      dup1\n      0x590e1ae3\n      eq\n      tag_8\n      jumpi\n      jump(tag_1)\n    tag_19:\n      dup1\n      0x06e99fef\n      eq\n      tag_2\n      jumpi\n      dup1\n      0x1f6d4942\n      eq\n      tag_3\n      jumpi\n      dup1\n      0x29dcb0cf\n      eq\n      tag_4\n      jumpi\n    tag_1:\n      0x00\n      dup1\n      revert\n        /* \"contracts/crowdfunding.sol\":724:1148  function sendEth() public payable{ //contributors can send money on manager address via this function... */\n    tag_2:\n      tag_20\n      tag_21\n      jump\t// in\n    tag_20:\n      stop\n        /* \"contracts/crowdfunding.sol\":102:144  mapping(address=>uint) public contributors */\n    tag_3:\n      callvalue\n      dup1\n      iszero\n      tag_22\n      jumpi\n      0x00\n      dup1\n      revert\n    tag_22:\n      pop\n      tag_23\n      0x04\n      dup1\n      calldatasize\n      sub\n      dup2\n      add\n      swap1\n      tag_24\n      swap2\n      swap1\n      tag_25\n      jump\t// in\n    tag_24:\n      tag_26\n      jump\t// in\n    tag_23:\n      mload(0x40)\n      tag_27\n      swap2\n      swap1\n      tag_28\n      jump\t// in\n    tag_27:\n      mload(0x40)\n      dup1\n      swap2\n      sub\n      swap1\n      return\n        /* \"contracts/crowdfunding.sol\":343:363  uint public deadline */\n    tag_4:\n      callvalue\n      dup1\n      iszero\n      tag_29\n      jumpi\n      0x00\n      dup1\n      revert\n    tag_29:\n      pop\n      tag_30\n      tag_31\n      jump\t// in\n    tag_30:\n      mload(0x40)\n      tag_32\n      swap2\n      swap1\n      tag_28\n      jump\t// in\n    tag_32:\n      mload(0x40)\n      dup1\n      swap2\n      sub\n      swap1\n      return\n        /* \"contracts/crowdfunding.sol\":2199:2651  function createrequest(string memory _description,address payable _recipient,uint _value) public {... */\n    tag_5:\n      callvalue\n      dup1\n      iszero\n      tag_33\n      jumpi\n      0x00\n      dup1\n      revert\n    tag_33:\n      pop\n      tag_34\n      0x04\n      dup1\n      calldatasize\n      sub\n      dup2\n      add\n      swap1\n      tag_35\n      swap2\n      swap1\n      tag_36\n      jump\t// in\n    tag_35:\n      tag_37\n      jump\t// in\n    tag_34:\n      stop\n        /* \"contracts/crowdfunding.sol\":202:224  address public manager */\n    tag_6:\n      callvalue\n      dup1\n      iszero\n      tag_38\n      jumpi\n      0x00\n      dup1\n      revert\n    tag_38:\n      pop\n      tag_39\n      tag_40\n      jump\t// in\n    tag_39:\n      mload(0x40)\n      tag_41\n      swap2\n      swap1\n      tag_42\n      jump\t// in\n    tag_41:\n      mload(0x40)\n      dup1\n      swap2\n      sub\n      swap1\n      return\n        /* \"contracts/crowdfunding.sol\":427:455  uint public noOfContributors */\n    tag_7:\n      callvalue\n      dup1\n      iszero\n      tag_43\n      jumpi\n      0x00\n      dup1\n      revert\n    tag_43:\n      pop\n      tag_44\n      tag_45\n      jump\t// in\n    tag_44:\n      mload(0x40)\n      tag_46\n      swap2\n      swap1\n      tag_28\n      jump\t// in\n    tag_46:\n      mload(0x40)\n      dup1\n      swap2\n      sub\n      swap1\n      return\n        /* \"contracts/crowdfunding.sol\":1293:1670  function refund() public{ // function which will send money back to the contributors... */\n    tag_8:\n      callvalue\n      dup1\n      iszero\n      tag_47\n      jumpi\n      0x00\n      dup1\n      revert\n    tag_47:\n      pop\n      tag_48\n      tag_49\n      jump\t// in\n    tag_48:\n      stop\n        /* \"contracts/crowdfunding.sol\":275:305  uint public minimumContributor */\n    tag_9:\n      callvalue\n      dup1\n      iszero\n      tag_50\n      jumpi\n      0x00\n      dup1\n      revert\n    tag_50:\n      pop\n      tag_51\n      tag_52\n      jump\t// in\n    tag_51:\n      mload(0x40)\n      tag_53\n      swap2\n      swap1\n      tag_28\n      jump\t// in\n    tag_53:\n      mload(0x40)\n      dup1\n      swap2\n      sub\n      swap1\n      return\n        /* \"contracts/crowdfunding.sol\":1154:1286  function gcb() public view returns(uint){ // total contract balance function... */\n    tag_10:\n      callvalue\n      dup1\n      iszero\n      tag_54\n      jumpi\n      0x00\n      dup1\n      revert\n    tag_54:\n      pop\n      tag_55\n      tag_56\n      jump\t// in\n    tag_55:\n      mload(0x40)\n      tag_57\n      swap2\n      swap1\n      tag_28\n      jump\t// in\n    tag_57:\n      mload(0x40)\n      dup1\n      swap2\n      sub\n      swap1\n      return\n        /* \"contracts/crowdfunding.sol\":2027:2066  mapping (uint=>Request) public requests */\n    tag_11:\n      callvalue\n      dup1\n      iszero\n      tag_58\n      jumpi\n      0x00\n      dup1\n      revert\n    tag_58:\n      pop\n      tag_59\n      0x04\n      dup1\n      calldatasize\n      sub\n      dup2\n      add\n      swap1\n      tag_60\n      swap2\n      swap1\n      tag_61\n      jump\t// in\n    tag_60:\n      tag_62\n      jump\t// in\n    tag_59:\n      mload(0x40)\n      tag_63\n      swap6\n      swap5\n      swap4\n      swap3\n      swap2\n      swap1\n      tag_64\n      jump\t// in\n    tag_63:\n      mload(0x40)\n      dup1\n      swap2\n      sub\n      swap1\n      return\n        /* \"contracts/crowdfunding.sol\":2657:3018  function voterequest(uint _requestno) public{... */\n    tag_12:\n      callvalue\n      dup1\n      iszero\n      tag_65\n      jumpi\n      0x00\n      dup1\n      revert\n    tag_65:\n      pop\n      tag_66\n      0x04\n      dup1\n      calldatasize\n      sub\n      dup2\n      add\n      swap1\n      tag_67\n      swap2\n      swap1\n      tag_61\n      jump\t// in\n    tag_67:\n      tag_68\n      jump\t// in\n    tag_66:\n      stop\n        /* \"contracts/crowdfunding.sol\":396:420  uint public raisedAmount */\n    tag_13:\n      callvalue\n      dup1\n      iszero\n      tag_69\n      jumpi\n      0x00\n      dup1\n      revert\n    tag_69:\n      pop\n      tag_70\n      tag_71\n      jump\t// in\n    tag_70:\n      mload(0x40)\n      tag_72\n      swap2\n      swap1\n      tag_28\n      jump\t// in\n    tag_72:\n      mload(0x40)\n      dup1\n      swap2\n      sub\n      swap1\n      return\n        /* \"contracts/crowdfunding.sol\":3026:3484  function makepayment(uint _requestno) public {... */\n    tag_14:\n      callvalue\n      dup1\n      iszero\n      tag_73\n      jumpi\n      0x00\n      dup1\n      revert\n    tag_73:\n      pop\n      tag_74\n      0x04\n      dup1\n      calldatasize\n      sub\n      dup2\n      add\n      swap1\n      tag_75\n      swap2\n      swap1\n      tag_61\n      jump\t// in\n    tag_75:\n      tag_76\n      jump\t// in\n    tag_74:\n      stop\n        /* \"contracts/crowdfunding.sol\":371:389  uint public target */\n    tag_15:\n      callvalue\n      dup1\n      iszero\n      tag_77\n      jumpi\n      0x00\n      dup1\n      revert\n    tag_77:\n      pop\n      tag_78\n      tag_79\n      jump\t// in\n    tag_78:\n      mload(0x40)\n      tag_80\n      swap2\n      swap1\n      tag_28\n      jump\t// in\n    tag_80:\n      mload(0x40)\n      dup1\n      swap2\n      sub\n      swap1\n      return\n        /* \"contracts/crowdfunding.sol\":2137:2159  uint public numrequest */\n    tag_16:\n      callvalue\n      dup1\n      iszero\n      tag_81\n      jumpi\n      0x00\n      dup1\n      revert\n    tag_81:\n      pop\n      tag_82\n      tag_83\n      jump\t// in\n    tag_82:\n      mload(0x40)\n      tag_84\n      swap2\n      swap1\n      tag_28\n      jump\t// in\n    tag_84:\n      mload(0x40)\n      dup1\n      swap2\n      sub\n      swap1\n      return\n        /* \"contracts/crowdfunding.sol\":724:1148  function sendEth() public payable{ //contributors can send money on manager address via this function... */\n    tag_21:\n        /* \"contracts/crowdfunding.sol\":861:869  deadline */\n      sload(0x03)\n        /* \"contracts/crowdfunding.sol\":843:858  block.timestamp */\n      timestamp\n        /* \"contracts/crowdfunding.sol\":843:869  block.timestamp < deadline */\n      lt\n        /* \"contracts/crowdfunding.sol\":835:892  require(block.timestamp < deadline,\"Deadline has passed\") */\n      tag_86\n      jumpi\n      mload(0x40)\n      0x08c379a000000000000000000000000000000000000000000000000000000000\n      dup2\n      mstore\n      0x04\n      add\n      tag_87\n      swap1\n      tag_88\n      jump\t// in\n    tag_87:\n      mload(0x40)\n      dup1\n      swap2\n      sub\n      swap1\n      revert\n    tag_86:\n        /* \"contracts/crowdfunding.sol\":922:940  minimumContributor */\n      sload(0x02)\n        /* \"contracts/crowdfunding.sol\":911:920  msg.value */\n      callvalue\n        /* \"contracts/crowdfunding.sol\":911:940  msg.value>=minimumContributor */\n      lt\n      iszero\n        /* \"contracts/crowdfunding.sol\":903:974  require(msg.value>=minimumContributor,\"Minium contribution is not met\") */\n      tag_89\n      jumpi\n      mload(0x40)\n      0x08c379a000000000000000000000000000000000000000000000000000000000\n      dup2\n      mstore\n      0x04\n      add\n      tag_90\n      swap1\n      tag_91\n      jump\t// in\n    tag_90:\n      mload(0x40)\n      dup1\n      swap2\n      sub\n      swap1\n      revert\n    tag_89:\n        /* \"contracts/crowdfunding.sol\":1014:1015  0 */\n      0x00\n        /* \"contracts/crowdfunding.sol\":988:1000  contributors */\n      dup1\n        /* \"contracts/crowdfunding.sol\":988:1012  contributors[msg.sender] */\n      0x00\n        /* \"contracts/crowdfunding.sol\":1001:1011  msg.sender */\n      caller\n        /* \"contracts/crowdfunding.sol\":988:1012  contributors[msg.sender] */\n      0xffffffffffffffffffffffffffffffffffffffff\n      and\n      0xffffffffffffffffffffffffffffffffffffffff\n      and\n      dup2\n      mstore\n      0x20\n      add\n      swap1\n      dup2\n      mstore\n      0x20\n      add\n      0x00\n      keccak256\n      sload\n        /* \"contracts/crowdfunding.sol\":988:1015  contributors[msg.sender]==0 */\n      sub\n        /* \"contracts/crowdfunding.sol\":985:1061  if(contributors[msg.sender]==0){... */\n      tag_92\n      jumpi\n        /* \"contracts/crowdfunding.sol\":1031:1047  noOfContributors */\n      0x06\n      0x00\n        /* \"contracts/crowdfunding.sol\":1031:1049  noOfContributors++ */\n      dup2\n      sload\n      dup1\n      swap3\n      swap2\n      swap1\n      tag_93\n      swap1\n      tag_94\n      jump\t// in\n    tag_93:\n      swap2\n      swap1\n      pop\n      sstore\n      pop\n        /* \"contracts/crowdfunding.sol\":985:1061  if(contributors[msg.sender]==0){... */\n    tag_92:\n        /* \"contracts/crowdfunding.sol\":1097:1106  msg.value */\n      callvalue\n        /* \"contracts/crowdfunding.sol\":1071:1083  contributors */\n      0x00\n        /* \"contracts/crowdfunding.sol\":1071:1095  contributors[msg.sender] */\n      dup1\n        /* \"contracts/crowdfunding.sol\":1084:1094  msg.sender */\n      caller\n        /* \"contracts/crowdfunding.sol\":1071:1095  contributors[msg.sender] */\n      0xffffffffffffffffffffffffffffffffffffffff\n      and\n      0xffffffffffffffffffffffffffffffffffffffff\n      and\n      dup2\n      mstore\n      0x20\n      add\n      swap1\n      dup2\n      mstore\n      0x20\n      add\n      0x00\n      keccak256\n      0x00\n        /* \"contracts/crowdfunding.sol\":1071:1106  contributors[msg.sender]+=msg.value */\n      dup3\n      dup3\n      sload\n      tag_95\n      swap2\n      swap1\n      tag_96\n      jump\t// in\n    tag_95:\n      swap3\n      pop\n      pop\n      dup2\n      swap1\n      sstore\n      pop\n        /* \"contracts/crowdfunding.sol\":1131:1140  msg.value */\n      callvalue\n        /* \"contracts/crowdfunding.sol\":1117:1129  raisedAmount */\n      0x05\n      0x00\n        /* \"contracts/crowdfunding.sol\":1117:1140  raisedAmount+=msg.value */\n      dup3\n      dup3\n      sload\n      tag_97\n      swap2\n      swap1\n      tag_96\n      jump\t// in\n    tag_97:\n      swap3\n      pop\n      pop\n      dup2\n      swap1\n      sstore\n      pop\n        /* \"contracts/crowdfunding.sol\":724:1148  function sendEth() public payable{ //contributors can send money on manager address via this function... */\n      jump\t// out\n        /* \"contracts/crowdfunding.sol\":102:144  mapping(address=>uint) public contributors */\n    tag_26:\n      mstore(0x20, 0x00)\n      dup1\n      0x00\n      mstore\n      keccak256(0x00, 0x40)\n      0x00\n      swap2\n      pop\n      swap1\n      pop\n      sload\n      dup2\n      jump\t// out\n        /* \"contracts/crowdfunding.sol\":343:363  uint public deadline */\n    tag_31:\n      sload(0x03)\n      dup2\n      jump\t// out\n        /* \"contracts/crowdfunding.sol\":2199:2651  function createrequest(string memory _description,address payable _recipient,uint _value) public {... */\n    tag_37:\n        /* \"contracts/crowdfunding.sol\":2326:2333  manager */\n      0x01\n      0x00\n      swap1\n      sload\n      swap1\n      0x0100\n      exp\n      swap1\n      div\n      0xffffffffffffffffffffffffffffffffffffffff\n      and\n        /* \"contracts/crowdfunding.sol\":2314:2333  msg.sender==manager */\n      0xffffffffffffffffffffffffffffffffffffffff\n      and\n        /* \"contracts/crowdfunding.sol\":2314:2324  msg.sender */\n      caller\n        /* \"contracts/crowdfunding.sol\":2314:2333  msg.sender==manager */\n      0xffffffffffffffffffffffffffffffffffffffff\n      and\n      eq\n        /* \"contracts/crowdfunding.sol\":2306:2372  require(msg.sender==manager,\"only manager can call this function\") */\n      tag_99\n      jumpi\n      mload(0x40)\n      0x08c379a000000000000000000000000000000000000000000000000000000000\n      dup2\n      mstore\n      0x04\n      add\n      tag_100\n      swap1\n      tag_101\n      jump\t// in\n    tag_100:\n      mload(0x40)\n      dup1\n      swap2\n      sub\n      swap1\n      revert\n    tag_99:\n        /* \"contracts/crowdfunding.sol\":2382:2408  Request storage newRequest */\n      0x00\n        /* \"contracts/crowdfunding.sol\":2411:2419  requests */\n      0x07\n        /* \"contracts/crowdfunding.sol\":2411:2431  requests[numrequest] */\n      0x00\n        /* \"contracts/crowdfunding.sol\":2420:2430  numrequest */\n      sload(0x08)\n        /* \"contracts/crowdfunding.sol\":2411:2431  requests[numrequest] */\n      dup2\n      mstore\n      0x20\n      add\n      swap1\n      dup2\n      mstore\n      0x20\n      add\n      0x00\n      keccak256\n        /* \"contracts/crowdfunding.sol\":2382:2431  Request storage newRequest = requests[numrequest] */\n      swap1\n      pop\n        /* \"contracts/crowdfunding.sol\":2441:2451  numrequest */\n      0x08\n      0x00\n        /* \"contracts/crowdfunding.sol\":2441:2453  numrequest++ */\n      dup2\n      sload\n      dup1\n      swap3\n      swap2\n      swap1\n      tag_102\n      swap1\n      tag_94\n      jump\t// in\n    tag_102:\n      swap2\n      swap1\n      pop\n      sstore\n      pop\n        /* \"contracts/crowdfunding.sol\":2486:2498  _description */\n      dup4\n        /* \"contracts/crowdfunding.sol\":2463:2473  newRequest */\n      dup2\n        /* \"contracts/crowdfunding.sol\":2463:2485  newRequest.description */\n      0x00\n      add\n        /* \"contracts/crowdfunding.sol\":2463:2498  newRequest.description=_description */\n      swap1\n      dup2\n      tag_103\n      swap2\n      swap1\n      tag_104\n      jump\t// in\n    tag_103:\n      pop\n        /* \"contracts/crowdfunding.sol\":2529:2539  _recipient */\n      dup3\n        /* \"contracts/crowdfunding.sol\":2508:2518  newRequest */\n      dup2\n        /* \"contracts/crowdfunding.sol\":2508:2528  newRequest.recipient */\n      0x01\n      add\n      0x00\n        /* \"contracts/crowdfunding.sol\":2508:2539  newRequest.recipient=_recipient */\n      0x0100\n      exp\n      dup2\n      sload\n      dup2\n      0xffffffffffffffffffffffffffffffffffffffff\n      mul\n      not\n      and\n      swap1\n      dup4\n      0xffffffffffffffffffffffffffffffffffffffff\n      and\n      mul\n      or\n      swap1\n      sstore\n      pop\n        /* \"contracts/crowdfunding.sol\":2566:2572  _value */\n      dup2\n        /* \"contracts/crowdfunding.sol\":2549:2559  newRequest */\n      dup2\n        /* \"contracts/crowdfunding.sol\":2549:2565  newRequest.value */\n      0x02\n      add\n        /* \"contracts/crowdfunding.sol\":2549:2572  newRequest.value=_value */\n      dup2\n      swap1\n      sstore\n      pop\n        /* \"contracts/crowdfunding.sol\":2603:2608  false */\n      0x00\n        /* \"contracts/crowdfunding.sol\":2582:2592  newRequest */\n      dup2\n        /* \"contracts/crowdfunding.sol\":2582:2602  newRequest.completed */\n      0x03\n      add\n      0x00\n        /* \"contracts/crowdfunding.sol\":2582:2608  newRequest.completed=false */\n      0x0100\n      exp\n      dup2\n      sload\n      dup2\n      0xff\n      mul\n      not\n      and\n      swap1\n      dup4\n      iszero\n      iszero\n      mul\n      or\n      swap1\n      sstore\n      pop\n        /* \"contracts/crowdfunding.sol\":2640:2641  0 */\n      0x00\n        /* \"contracts/crowdfunding.sol\":2618:2628  newRequest */\n      dup2\n        /* \"contracts/crowdfunding.sol\":2618:2639  newRequest.noOfvoters */\n      0x04\n      add\n        /* \"contracts/crowdfunding.sol\":2618:2641  newRequest.noOfvoters=0 */\n      dup2\n      swap1\n      sstore\n      pop\n        /* \"contracts/crowdfunding.sol\":2296:2651  {... */\n      pop\n        /* \"contracts/crowdfunding.sol\":2199:2651  function createrequest(string memory _description,address payable _recipient,uint _value) public {... */\n      pop\n      pop\n      pop\n      jump\t// out\n        /* \"contracts/crowdfunding.sol\":202:224  address public manager */\n    tag_40:\n      0x01\n      0x00\n      swap1\n      sload\n      swap1\n      0x0100\n      exp\n      swap1\n      div\n      0xffffffffffffffffffffffffffffffffffffffff\n      and\n      dup2\n      jump\t// out\n        /* \"contracts/crowdfunding.sol\":427:455  uint public noOfContributors */\n    tag_45:\n      sload(0x06)\n      dup2\n      jump\t// out\n        /* \"contracts/crowdfunding.sol\":1293:1670  function refund() public{ // function which will send money back to the contributors... */\n    tag_49:\n        /* \"contracts/crowdfunding.sol\":1411:1419  deadline */\n      sload(0x03)\n        /* \"contracts/crowdfunding.sol\":1395:1410  block.timestamp */\n      timestamp\n        /* \"contracts/crowdfunding.sol\":1395:1419  block.timestamp>deadline */\n      gt\n        /* \"contracts/crowdfunding.sol\":1395:1442  block.timestamp>deadline && raisedAmount<target */\n      dup1\n      iszero\n      tag_106\n      jumpi\n      pop\n        /* \"contracts/crowdfunding.sol\":1436:1442  target */\n      sload(0x04)\n        /* \"contracts/crowdfunding.sol\":1423:1435  raisedAmount */\n      sload(0x05)\n        /* \"contracts/crowdfunding.sol\":1423:1442  raisedAmount<target */\n      lt\n        /* \"contracts/crowdfunding.sol\":1395:1442  block.timestamp>deadline && raisedAmount<target */\n    tag_106:\n        /* \"contracts/crowdfunding.sol\":1387:1478  require(block.timestamp>deadline && raisedAmount<target,\" You are not eligible for refund\") */\n      tag_107\n      jumpi\n      mload(0x40)\n      0x08c379a000000000000000000000000000000000000000000000000000000000\n      dup2\n      mstore\n      0x04\n      add\n      tag_108\n      swap1\n      tag_109\n      jump\t// in\n    tag_108:\n      mload(0x40)\n      dup1\n      swap2\n      sub\n      swap1\n      revert\n    tag_107:\n        /* \"contracts/crowdfunding.sol\":1522:1523  0 */\n      0x00\n        /* \"contracts/crowdfunding.sol\":1497:1509  contributors */\n      dup1\n        /* \"contracts/crowdfunding.sol\":1497:1521  contributors[msg.sender] */\n      0x00\n        /* \"contracts/crowdfunding.sol\":1510:1520  msg.sender */\n      caller\n        /* \"contracts/crowdfunding.sol\":1497:1521  contributors[msg.sender] */\n      0xffffffffffffffffffffffffffffffffffffffff\n      and\n      0xffffffffffffffffffffffffffffffffffffffff\n      and\n      dup2\n      mstore\n      0x20\n      add\n      swap1\n      dup2\n      mstore\n      0x20\n      add\n      0x00\n      keccak256\n      sload\n        /* \"contracts/crowdfunding.sol\":1497:1523  contributors[msg.sender]>0 */\n      gt\n        /* \"contracts/crowdfunding.sol\":1489:1524  require(contributors[msg.sender]>0) */\n      tag_110\n      jumpi\n      0x00\n      dup1\n      revert\n    tag_110:\n        /* \"contracts/crowdfunding.sol\":1535:1555  address payable user */\n      0x00\n        /* \"contracts/crowdfunding.sol\":1564:1574  msg.sender */\n      caller\n        /* \"contracts/crowdfunding.sol\":1535:1575  address payable user=payable(msg.sender) */\n      swap1\n      pop\n        /* \"contracts/crowdfunding.sol\":1586:1590  user */\n      dup1\n        /* \"contracts/crowdfunding.sol\":1586:1599  user.transfer */\n      0xffffffffffffffffffffffffffffffffffffffff\n      and\n        /* \"contracts/crowdfunding.sol\":1586:1625  user.transfer(contributors[msg.sender]) */\n      0x08fc\n        /* \"contracts/crowdfunding.sol\":1600:1612  contributors */\n      0x00\n        /* \"contracts/crowdfunding.sol\":1600:1624  contributors[msg.sender] */\n      dup1\n        /* \"contracts/crowdfunding.sol\":1613:1623  msg.sender */\n      caller\n        /* \"contracts/crowdfunding.sol\":1600:1624  contributors[msg.sender] */\n      0xffffffffffffffffffffffffffffffffffffffff\n      and\n      0xffffffffffffffffffffffffffffffffffffffff\n      and\n      dup2\n      mstore\n      0x20\n      add\n      swap1\n      dup2\n      mstore\n      0x20\n      add\n      0x00\n      keccak256\n      sload\n        /* \"contracts/crowdfunding.sol\":1586:1625  user.transfer(contributors[msg.sender]) */\n      swap1\n      dup2\n      iszero\n      mul\n      swap1\n      mload(0x40)\n      0x00\n      mload(0x40)\n      dup1\n      dup4\n      sub\n      dup2\n      dup6\n      dup9\n      dup9\n      call\n      swap4\n      pop\n      pop\n      pop\n      pop\n      iszero\n      dup1\n      iszero\n      tag_112\n      jumpi\n      returndatasize\n      0x00\n      dup1\n      returndatacopy\n      revert(0x00, returndatasize)\n    tag_112:\n      pop\n        /* \"contracts/crowdfunding.sol\":1661:1662  0 */\n      0x00\n        /* \"contracts/crowdfunding.sol\":1636:1648  contributors */\n      dup1\n        /* \"contracts/crowdfunding.sol\":1636:1660  contributors[msg.sender] */\n      0x00\n        /* \"contracts/crowdfunding.sol\":1649:1659  msg.sender */\n      caller\n        /* \"contracts/crowdfunding.sol\":1636:1660  contributors[msg.sender] */\n      0xffffffffffffffffffffffffffffffffffffffff\n      and\n      0xffffffffffffffffffffffffffffffffffffffff\n      and\n      dup2\n      mstore\n      0x20\n      add\n      swap1\n      dup2\n      mstore\n      0x20\n      add\n      0x00\n      keccak256\n        /* \"contracts/crowdfunding.sol\":1636:1662  contributors[msg.sender]=0 */\n      dup2\n      swap1\n      sstore\n      pop\n        /* \"contracts/crowdfunding.sol\":1317:1670  { // function which will send money back to the contributors... */\n      pop\n        /* \"contracts/crowdfunding.sol\":1293:1670  function refund() public{ // function which will send money back to the contributors... */\n      jump\t// out\n        /* \"contracts/crowdfunding.sol\":275:305  uint public minimumContributor */\n    tag_52:\n      sload(0x02)\n      dup2\n      jump\t// out\n        /* \"contracts/crowdfunding.sol\":1154:1286  function gcb() public view returns(uint){ // total contract balance function... */\n    tag_56:\n        /* \"contracts/crowdfunding.sol\":1189:1193  uint */\n      0x00\n        /* \"contracts/crowdfunding.sol\":1257:1278  address(this).balance */\n      selfbalance\n        /* \"contracts/crowdfunding.sol\":1250:1278  return address(this).balance */\n      swap1\n      pop\n        /* \"contracts/crowdfunding.sol\":1154:1286  function gcb() public view returns(uint){ // total contract balance function... */\n      swap1\n      jump\t// out\n        /* \"contracts/crowdfunding.sol\":2027:2066  mapping (uint=>Request) public requests */\n    tag_62:\n      mstore(0x20, 0x07)\n      dup1\n      0x00\n      mstore\n      keccak256(0x00, 0x40)\n      0x00\n      swap2\n      pop\n      swap1\n      pop\n      dup1\n      0x00\n      add\n      dup1\n      sload\n      tag_114\n      swap1\n      tag_115\n      jump\t// in\n    tag_114:\n      dup1\n      0x1f\n      add\n      0x20\n      dup1\n      swap2\n      div\n      mul\n      0x20\n      add\n      mload(0x40)\n      swap1\n      dup2\n      add\n      0x40\n      mstore\n      dup1\n      swap3\n      swap2\n      swap1\n      dup2\n      dup2\n      mstore\n      0x20\n      add\n      dup3\n      dup1\n      sload\n      tag_116\n      swap1\n      tag_115\n      jump\t// in\n    tag_116:\n      dup1\n      iszero\n      tag_117\n      jumpi\n      dup1\n      0x1f\n      lt\n      tag_118\n      jumpi\n      0x0100\n      dup1\n      dup4\n      sload\n      div\n      mul\n      dup4\n      mstore\n      swap2\n      0x20\n      add\n      swap2\n      jump(tag_117)\n    tag_118:\n      dup3\n      add\n      swap2\n      swap1\n      0x00\n      mstore\n      keccak256(0x00, 0x20)\n      swap1\n    tag_119:\n      dup2\n      sload\n      dup2\n      mstore\n      swap1\n      0x01\n      add\n      swap1\n      0x20\n      add\n      dup1\n      dup4\n      gt\n      tag_119\n      jumpi\n      dup3\n      swap1\n      sub\n      0x1f\n      and\n      dup3\n      add\n      swap2\n    tag_117:\n      pop\n      pop\n      pop\n      pop\n      pop\n      swap1\n      dup1\n      0x01\n      add\n      0x00\n      swap1\n      sload\n      swap1\n      0x0100\n      exp\n      swap1\n      div\n      0xffffffffffffffffffffffffffffffffffffffff\n      and\n      swap1\n      dup1\n      0x02\n      add\n      sload\n      swap1\n      dup1\n      0x03\n      add\n      0x00\n      swap1\n      sload\n      swap1\n      0x0100\n      exp\n      swap1\n      div\n      0xff\n      and\n      swap1\n      dup1\n      0x04\n      add\n      sload\n      swap1\n      pop\n      dup6\n      jump\t// out\n        /* \"contracts/crowdfunding.sol\":2657:3018  function voterequest(uint _requestno) public{... */\n    tag_68:\n        /* \"contracts/crowdfunding.sol\":2745:2746  0 */\n      0x00\n        /* \"contracts/crowdfunding.sol\":2720:2732  contributors */\n      dup1\n        /* \"contracts/crowdfunding.sol\":2720:2744  contributors[msg.sender] */\n      0x00\n        /* \"contracts/crowdfunding.sol\":2733:2743  msg.sender */\n      caller\n        /* \"contracts/crowdfunding.sol\":2720:2744  contributors[msg.sender] */\n      0xffffffffffffffffffffffffffffffffffffffff\n      and\n      0xffffffffffffffffffffffffffffffffffffffff\n      and\n      dup2\n      mstore\n      0x20\n      add\n      swap1\n      dup2\n      mstore\n      0x20\n      add\n      0x00\n      keccak256\n      sload\n        /* \"contracts/crowdfunding.sol\":2720:2746  contributors[msg.sender]>0 */\n      gt\n        /* \"contracts/crowdfunding.sol\":2712:2775  require(contributors[msg.sender]>0,\"you must be a contributor\") */\n      tag_121\n      jumpi\n      mload(0x40)\n      0x08c379a000000000000000000000000000000000000000000000000000000000\n      dup2\n      mstore\n      0x04\n      add\n      tag_122\n      swap1\n      tag_123\n      jump\t// in\n    tag_122:\n      mload(0x40)\n      dup1\n      swap2\n      sub\n      swap1\n      revert\n    tag_121:\n        /* \"contracts/crowdfunding.sol\":2786:2813  Request storage thisrequest */\n      0x00\n        /* \"contracts/crowdfunding.sol\":2814:2822  requests */\n      0x07\n        /* \"contracts/crowdfunding.sol\":2814:2834  requests[_requestno] */\n      0x00\n        /* \"contracts/crowdfunding.sol\":2823:2833  _requestno */\n      dup4\n        /* \"contracts/crowdfunding.sol\":2814:2834  requests[_requestno] */\n      dup2\n      mstore\n      0x20\n      add\n      swap1\n      dup2\n      mstore\n      0x20\n      add\n      0x00\n      keccak256\n        /* \"contracts/crowdfunding.sol\":2786:2834  Request storage thisrequest=requests[_requestno] */\n      swap1\n      pop\n        /* \"contracts/crowdfunding.sol\":2885:2890  false */\n      0x00\n        /* \"contracts/crowdfunding.sol\":2853:2890  thisrequest.voters[msg.sender]==false */\n      iszero\n      iszero\n        /* \"contracts/crowdfunding.sol\":2853:2864  thisrequest */\n      dup2\n        /* \"contracts/crowdfunding.sol\":2853:2871  thisrequest.voters */\n      0x05\n      add\n        /* \"contracts/crowdfunding.sol\":2853:2883  thisrequest.voters[msg.sender] */\n      0x00\n        /* \"contracts/crowdfunding.sol\":2872:2882  msg.sender */\n      caller\n        /* \"contracts/crowdfunding.sol\":2853:2883  thisrequest.voters[msg.sender] */\n      0xffffffffffffffffffffffffffffffffffffffff\n      and\n      0xffffffffffffffffffffffffffffffffffffffff\n      and\n      dup2\n      mstore\n      0x20\n      add\n      swap1\n      dup2\n      mstore\n      0x20\n      add\n      0x00\n      keccak256\n      0x00\n      swap1\n      sload\n      swap1\n      0x0100\n      exp\n      swap1\n      div\n      0xff\n      and\n        /* \"contracts/crowdfunding.sol\":2853:2890  thisrequest.voters[msg.sender]==false */\n      iszero\n      iszero\n      eq\n        /* \"contracts/crowdfunding.sol\":2845:2918  require(thisrequest.voters[msg.sender]==false,\"you have allready voted \") */\n      tag_124\n      jumpi\n      mload(0x40)\n      0x08c379a000000000000000000000000000000000000000000000000000000000\n      dup2\n      mstore\n      0x04\n      add\n      tag_125\n      swap1\n      tag_126\n      jump\t// in\n    tag_125:\n      mload(0x40)\n      dup1\n      swap2\n      sub\n      swap1\n      revert\n    tag_124:\n        /* \"contracts/crowdfunding.sol\":2961:2965  true */\n      0x01\n        /* \"contracts/crowdfunding.sol\":2929:2965  thisrequest.voters[msg.sender]==true */\n      iszero\n      iszero\n        /* \"contracts/crowdfunding.sol\":2929:2940  thisrequest */\n      dup2\n        /* \"contracts/crowdfunding.sol\":2929:2947  thisrequest.voters */\n      0x05\n      add\n        /* \"contracts/crowdfunding.sol\":2929:2959  thisrequest.voters[msg.sender] */\n      0x00\n        /* \"contracts/crowdfunding.sol\":2948:2958  msg.sender */\n      caller\n        /* \"contracts/crowdfunding.sol\":2929:2959  thisrequest.voters[msg.sender] */\n      0xffffffffffffffffffffffffffffffffffffffff\n      and\n      0xffffffffffffffffffffffffffffffffffffffff\n      and\n      dup2\n      mstore\n      0x20\n      add\n      swap1\n      dup2\n      mstore\n      0x20\n      add\n      0x00\n      keccak256\n      0x00\n      swap1\n      sload\n      swap1\n      0x0100\n      exp\n      swap1\n      pop\n      pop\n        /* \"contracts/crowdfunding.sol\":2929:2965  thisrequest.voters[msg.sender]==true */\n      pop\n        /* \"contracts/crowdfunding.sol\":2976:2987  thisrequest */\n      dup1\n        /* \"contracts/crowdfunding.sol\":2976:2998  thisrequest.noOfvoters */\n      0x04\n      add\n      0x00\n        /* \"contracts/crowdfunding.sol\":2976:3000  thisrequest.noOfvoters++ */\n      dup2\n      sload\n      dup1\n      swap3\n      swap2\n      swap1\n      tag_127\n      swap1\n      tag_94\n      jump\t// in\n    tag_127:\n      swap2\n      swap1\n      pop\n      sstore\n      pop\n        /* \"contracts/crowdfunding.sol\":2701:3018  {... */\n      pop\n        /* \"contracts/crowdfunding.sol\":2657:3018  function voterequest(uint _requestno) public{... */\n      pop\n      jump\t// out\n        /* \"contracts/crowdfunding.sol\":396:420  uint public raisedAmount */\n    tag_71:\n      sload(0x05)\n      dup2\n      jump\t// out\n        /* \"contracts/crowdfunding.sol\":3026:3484  function makepayment(uint _requestno) public {... */\n    tag_76:\n        /* \"contracts/crowdfunding.sol\":3102:3109  manager */\n      0x01\n      0x00\n      swap1\n      sload\n      swap1\n      0x0100\n      exp\n      swap1\n      div\n      0xffffffffffffffffffffffffffffffffffffffff\n      and\n        /* \"contracts/crowdfunding.sol\":3090:3109  msg.sender==manager */\n      0xffffffffffffffffffffffffffffffffffffffff\n      and\n        /* \"contracts/crowdfunding.sol\":3090:3100  msg.sender */\n      caller\n        /* \"contracts/crowdfunding.sol\":3090:3109  msg.sender==manager */\n      0xffffffffffffffffffffffffffffffffffffffff\n      and\n      eq\n        /* \"contracts/crowdfunding.sol\":3082:3110  require(msg.sender==manager) */\n      tag_129\n      jumpi\n      0x00\n      dup1\n      revert\n    tag_129:\n        /* \"contracts/crowdfunding.sol\":3143:3149  target */\n      sload(0x04)\n        /* \"contracts/crowdfunding.sol\":3129:3141  raisedAmount */\n      sload(0x05)\n        /* \"contracts/crowdfunding.sol\":3129:3149  raisedAmount>=target */\n      lt\n      iszero\n        /* \"contracts/crowdfunding.sol\":3121:3150  require(raisedAmount>=target) */\n      tag_130\n      jumpi\n      0x00\n      dup1\n      revert\n    tag_130:\n        /* \"contracts/crowdfunding.sol\":3161:3188  Request storage thisrequest */\n      0x00\n        /* \"contracts/crowdfunding.sol\":3189:3197  requests */\n      0x07\n        /* \"contracts/crowdfunding.sol\":3189:3209  requests[_requestno] */\n      0x00\n        /* \"contracts/crowdfunding.sol\":3198:3208  _requestno */\n      dup4\n        /* \"contracts/crowdfunding.sol\":3189:3209  requests[_requestno] */\n      dup2\n      mstore\n      0x20\n      add\n      swap1\n      dup2\n      mstore\n      0x20\n      add\n      0x00\n      keccak256\n        /* \"contracts/crowdfunding.sol\":3161:3209  Request storage thisrequest=requests[_requestno] */\n      swap1\n      pop\n        /* \"contracts/crowdfunding.sol\":3251:3256  false */\n      0x00\n        /* \"contracts/crowdfunding.sol\":3228:3256  thisrequest.completed==false */\n      iszero\n      iszero\n        /* \"contracts/crowdfunding.sol\":3228:3239  thisrequest */\n      dup2\n        /* \"contracts/crowdfunding.sol\":3228:3249  thisrequest.completed */\n      0x03\n      add\n      0x00\n      swap1\n      sload\n      swap1\n      0x0100\n      exp\n      swap1\n      div\n      0xff\n      and\n        /* \"contracts/crowdfunding.sol\":3228:3256  thisrequest.completed==false */\n      iszero\n      iszero\n      eq\n        /* \"contracts/crowdfunding.sol\":3220:3290  require(thisrequest.completed==false,\"The request has been completed\") */\n      tag_131\n      jumpi\n      mload(0x40)\n      0x08c379a000000000000000000000000000000000000000000000000000000000\n      dup2\n      mstore\n      0x04\n      add\n      tag_132\n      swap1\n      tag_133\n      jump\t// in\n    tag_132:\n      mload(0x40)\n      dup1\n      swap2\n      sub\n      swap1\n      revert\n    tag_131:\n        /* \"contracts/crowdfunding.sol\":3349:3350  2 */\n      0x02\n        /* \"contracts/crowdfunding.sol\":3332:3348  noOfContributors */\n      sload(0x06)\n        /* \"contracts/crowdfunding.sol\":3332:3350  noOfContributors/2 */\n      tag_134\n      swap2\n      swap1\n      tag_135\n      jump\t// in\n    tag_134:\n        /* \"contracts/crowdfunding.sol\":3309:3320  thisrequest */\n      dup2\n        /* \"contracts/crowdfunding.sol\":3309:3331  thisrequest.noOfvoters */\n      0x04\n      add\n      sload\n        /* \"contracts/crowdfunding.sol\":3309:3350  thisrequest.noOfvoters>noOfContributors/2 */\n      gt\n        /* \"contracts/crowdfunding.sol\":3301:3379  require(thisrequest.noOfvoters>noOfContributors/2,\"Majority does not support\") */\n      tag_136\n      jumpi\n      mload(0x40)\n      0x08c379a000000000000000000000000000000000000000000000000000000000\n      dup2\n      mstore\n      0x04\n      add\n      tag_137\n      swap1\n      tag_138\n      jump\t// in\n    tag_137:\n      mload(0x40)\n      dup1\n      swap2\n      sub\n      swap1\n      revert\n    tag_136:\n        /* \"contracts/crowdfunding.sol\":3390:3401  thisrequest */\n      dup1\n        /* \"contracts/crowdfunding.sol\":3390:3411  thisrequest.recipient */\n      0x01\n      add\n      0x00\n      swap1\n      sload\n      swap1\n      0x0100\n      exp\n      swap1\n      div\n      0xffffffffffffffffffffffffffffffffffffffff\n      and\n        /* \"contracts/crowdfunding.sol\":3390:3420  thisrequest.recipient.transfer */\n      0xffffffffffffffffffffffffffffffffffffffff\n      and\n        /* \"contracts/crowdfunding.sol\":3390:3439  thisrequest.recipient.transfer(thisrequest.value) */\n      0x08fc\n        /* \"contracts/crowdfunding.sol\":3421:3432  thisrequest */\n      dup3\n        /* \"contracts/crowdfunding.sol\":3421:3438  thisrequest.value */\n      0x02\n      add\n      sload\n        /* \"contracts/crowdfunding.sol\":3390:3439  thisrequest.recipient.transfer(thisrequest.value) */\n      swap1\n      dup2\n      iszero\n      mul\n      swap1\n      mload(0x40)\n      0x00\n      mload(0x40)\n      dup1\n      dup4\n      sub\n      dup2\n      dup6\n      dup9\n      dup9\n      call\n      swap4\n      pop\n      pop\n      pop\n      pop\n      iszero\n      dup1\n      iszero\n      tag_140\n      jumpi\n      returndatasize\n      0x00\n      dup1\n      returndatacopy\n      revert(0x00, returndatasize)\n    tag_140:\n      pop\n        /* \"contracts/crowdfunding.sol\":3472:3476  true */\n      0x01\n        /* \"contracts/crowdfunding.sol\":3450:3461  thisrequest */\n      dup2\n        /* \"contracts/crowdfunding.sol\":3450:3471  thisrequest.completed */\n      0x03\n      add\n      0x00\n        /* \"contracts/crowdfunding.sol\":3450:3476  thisrequest.completed=true */\n      0x0100\n      exp\n      dup2\n      sload\n      dup2\n      0xff\n      mul\n      not\n      and\n      swap1\n      dup4\n      iszero\n      iszero\n      mul\n      or\n      swap1\n      sstore\n      pop\n        /* \"contracts/crowdfunding.sol\":3071:3484  {... */\n      pop\n        /* \"contracts/crowdfunding.sol\":3026:3484  function makepayment(uint _requestno) public {... */\n      pop\n      jump\t// out\n        /* \"contracts/crowdfunding.sol\":371:389  uint public target */\n    tag_79:\n      sload(0x04)\n      dup2\n      jump\t// out\n        /* \"contracts/crowdfunding.sol\":2137:2159  uint public numrequest */\n    tag_83:\n      sload(0x08)\n      dup2\n      jump\t// out\n        /* \"#utility.yul\":7:82   */\n    tag_141:\n        /* \"#utility.yul\":40:46   */\n      0x00\n        /* \"#utility.yul\":73:75   */\n      0x40\n        /* \"#utility.yul\":67:76   */\n      mload\n        /* \"#utility.yul\":57:76   */\n      swap1\n      pop\n        /* \"#utility.yul\":7:82   */\n      swap1\n      jump\t// out\n        /* \"#utility.yul\":88:205   */\n    tag_142:\n        /* \"#utility.yul\":197:198   */\n      0x00\n        /* \"#utility.yul\":194:195   */\n      dup1\n        /* \"#utility.yul\":187:199   */\n      revert\n        /* \"#utility.yul\":211:328   */\n    tag_143:\n        /* \"#utility.yul\":320:321   */\n      0x00\n        /* \"#utility.yul\":317:318   */\n      dup1\n        /* \"#utility.yul\":310:322   */\n      revert\n        /* \"#utility.yul\":334:460   */\n    tag_144:\n        /* \"#utility.yul\":371:378   */\n      0x00\n        /* \"#utility.yul\":411:453   */\n      0xffffffffffffffffffffffffffffffffffffffff\n        /* \"#utility.yul\":404:409   */\n      dup3\n        /* \"#utility.yul\":400:454   */\n      and\n        /* \"#utility.yul\":389:454   */\n      swap1\n      pop\n        /* \"#utility.yul\":334:460   */\n      swap2\n      swap1\n      pop\n      jump\t// out\n        /* \"#utility.yul\":466:562   */\n    tag_145:\n        /* \"#utility.yul\":503:510   */\n      0x00\n        /* \"#utility.yul\":532:556   */\n      tag_213\n        /* \"#utility.yul\":550:555   */\n      dup3\n        /* \"#utility.yul\":532:556   */\n      tag_144\n      jump\t// in\n    tag_213:\n        /* \"#utility.yul\":521:556   */\n      swap1\n      pop\n        /* \"#utility.yul\":466:562   */\n      swap2\n      swap1\n      pop\n      jump\t// out\n        /* \"#utility.yul\":568:690   */\n    tag_146:\n        /* \"#utility.yul\":641:665   */\n      tag_215\n        /* \"#utility.yul\":659:664   */\n      dup2\n        /* \"#utility.yul\":641:665   */\n      tag_145\n      jump\t// in\n    tag_215:\n        /* \"#utility.yul\":634:639   */\n      dup2\n        /* \"#utility.yul\":631:666   */\n      eq\n        /* \"#utility.yul\":621:684   */\n      tag_216\n      jumpi\n        /* \"#utility.yul\":680:681   */\n      0x00\n        /* \"#utility.yul\":677:678   */\n      dup1\n        /* \"#utility.yul\":670:682   */\n      revert\n        /* \"#utility.yul\":621:684   */\n    tag_216:\n        /* \"#utility.yul\":568:690   */\n      pop\n      jump\t// out\n        /* \"#utility.yul\":696:835   */\n    tag_147:\n        /* \"#utility.yul\":742:747   */\n      0x00\n        /* \"#utility.yul\":780:786   */\n      dup2\n        /* \"#utility.yul\":767:787   */\n      calldataload\n        /* \"#utility.yul\":758:787   */\n      swap1\n      pop\n        /* \"#utility.yul\":796:829   */\n      tag_218\n        /* \"#utility.yul\":823:828   */\n      dup2\n        /* \"#utility.yul\":796:829   */\n      tag_146\n      jump\t// in\n    tag_218:\n        /* \"#utility.yul\":696:835   */\n      swap3\n      swap2\n      pop\n      pop\n      jump\t// out\n        /* \"#utility.yul\":841:1170   */\n    tag_25:\n        /* \"#utility.yul\":900:906   */\n      0x00\n        /* \"#utility.yul\":949:951   */\n      0x20\n        /* \"#utility.yul\":937:946   */\n      dup3\n        /* \"#utility.yul\":928:935   */\n      dup5\n        /* \"#utility.yul\":924:947   */\n      sub\n        /* \"#utility.yul\":920:952   */\n      slt\n        /* \"#utility.yul\":917:1036   */\n      iszero\n      tag_220\n      jumpi\n        /* \"#utility.yul\":955:1034   */\n      tag_221\n      tag_142\n      jump\t// in\n    tag_221:\n        /* \"#utility.yul\":917:1036   */\n    tag_220:\n        /* \"#utility.yul\":1075:1076   */\n      0x00\n        /* \"#utility.yul\":1100:1153   */\n      tag_222\n        /* \"#utility.yul\":1145:1152   */\n      dup5\n        /* \"#utility.yul\":1136:1142   */\n      dup3\n        /* \"#utility.yul\":1125:1134   */\n      dup6\n        /* \"#utility.yul\":1121:1143   */\n      add\n        /* \"#utility.yul\":1100:1153   */\n      tag_147\n      jump\t// in\n    tag_222:\n        /* \"#utility.yul\":1090:1153   */\n      swap2\n      pop\n        /* \"#utility.yul\":1046:1163   */\n      pop\n        /* \"#utility.yul\":841:1170   */\n      swap3\n      swap2\n      pop\n      pop\n      jump\t// out\n        /* \"#utility.yul\":1176:1253   */\n    tag_148:\n        /* \"#utility.yul\":1213:1220   */\n      0x00\n        /* \"#utility.yul\":1242:1247   */\n      dup2\n        /* \"#utility.yul\":1231:1247   */\n      swap1\n      pop\n        /* \"#utility.yul\":1176:1253   */\n      swap2\n      swap1\n      pop\n      jump\t// out\n        /* \"#utility.yul\":1259:1377   */\n    tag_149:\n        /* \"#utility.yul\":1346:1370   */\n      tag_225\n        /* \"#utility.yul\":1364:1369   */\n      dup2\n        /* \"#utility.yul\":1346:1370   */\n      tag_148\n      jump\t// in\n    tag_225:\n        /* \"#utility.yul\":1341:1344   */\n      dup3\n        /* \"#utility.yul\":1334:1371   */\n      mstore\n        /* \"#utility.yul\":1259:1377   */\n      pop\n      pop\n      jump\t// out\n        /* \"#utility.yul\":1383:1605   */\n    tag_28:\n        /* \"#utility.yul\":1476:1480   */\n      0x00\n        /* \"#utility.yul\":1514:1516   */\n      0x20\n        /* \"#utility.yul\":1503:1512   */\n      dup3\n        /* \"#utility.yul\":1499:1517   */\n      add\n        /* \"#utility.yul\":1491:1517   */\n      swap1\n      pop\n        /* \"#utility.yul\":1527:1598   */\n      tag_227\n        /* \"#utility.yul\":1595:1596   */\n      0x00\n        /* \"#utility.yul\":1584:1593   */\n      dup4\n        /* \"#utility.yul\":1580:1597   */\n      add\n        /* \"#utility.yul\":1571:1577   */\n      dup5\n        /* \"#utility.yul\":1527:1598   */\n      tag_149\n      jump\t// in\n    tag_227:\n        /* \"#utility.yul\":1383:1605   */\n      swap3\n      swap2\n      pop\n      pop\n      jump\t// out\n        /* \"#utility.yul\":1611:1728   */\n    tag_150:\n        /* \"#utility.yul\":1720:1721   */\n      0x00\n        /* \"#utility.yul\":1717:1718   */\n      dup1\n        /* \"#utility.yul\":1710:1722   */\n      revert\n        /* \"#utility.yul\":1734:1851   */\n    tag_151:\n        /* \"#utility.yul\":1843:1844   */\n      0x00\n        /* \"#utility.yul\":1840:1841   */\n      dup1\n        /* \"#utility.yul\":1833:1845   */\n      revert\n        /* \"#utility.yul\":1857:1959   */\n    tag_152:\n        /* \"#utility.yul\":1898:1904   */\n      0x00\n        /* \"#utility.yul\":1949:1951   */\n      0x1f\n        /* \"#utility.yul\":1945:1952   */\n      not\n        /* \"#utility.yul\":1940:1942   */\n      0x1f\n        /* \"#utility.yul\":1933:1938   */\n      dup4\n        /* \"#utility.yul\":1929:1943   */\n      add\n        /* \"#utility.yul\":1925:1953   */\n      and\n        /* \"#utility.yul\":1915:1953   */\n      swap1\n      pop\n        /* \"#utility.yul\":1857:1959   */\n      swap2\n      swap1\n      pop\n      jump\t// out\n        /* \"#utility.yul\":1965:2145   */\n    tag_153:\n        /* \"#utility.yul\":2013:2090   */\n      0x4e487b7100000000000000000000000000000000000000000000000000000000\n        /* \"#utility.yul\":2010:2011   */\n      0x00\n        /* \"#utility.yul\":2003:2091   */\n      mstore\n        /* \"#utility.yul\":2110:2114   */\n      0x41\n        /* \"#utility.yul\":2107:2108   */\n      0x04\n        /* \"#utility.yul\":2100:2115   */\n      mstore\n        /* \"#utility.yul\":2134:2138   */\n      0x24\n        /* \"#utility.yul\":2131:2132   */\n      0x00\n        /* \"#utility.yul\":2124:2139   */\n      revert\n        /* \"#utility.yul\":2151:2432   */\n    tag_154:\n        /* \"#utility.yul\":2234:2261   */\n      tag_233\n        /* \"#utility.yul\":2256:2260   */\n      dup3\n        /* \"#utility.yul\":2234:2261   */\n      tag_152\n      jump\t// in\n    tag_233:\n        /* \"#utility.yul\":2226:2232   */\n      dup2\n        /* \"#utility.yul\":2222:2262   */\n      add\n        /* \"#utility.yul\":2364:2370   */\n      dup2\n        /* \"#utility.yul\":2352:2362   */\n      dup2\n        /* \"#utility.yul\":2349:2371   */\n      lt\n        /* \"#utility.yul\":2328:2346   */\n      0xffffffffffffffff\n        /* \"#utility.yul\":2316:2326   */\n      dup3\n        /* \"#utility.yul\":2313:2347   */\n      gt\n        /* \"#utility.yul\":2310:2372   */\n      or\n        /* \"#utility.yul\":2307:2395   */\n      iszero\n      tag_234\n      jumpi\n        /* \"#utility.yul\":2375:2393   */\n      tag_235\n      tag_153\n      jump\t// in\n    tag_235:\n        /* \"#utility.yul\":2307:2395   */\n    tag_234:\n        /* \"#utility.yul\":2415:2425   */\n      dup1\n        /* \"#utility.yul\":2411:2413   */\n      0x40\n        /* \"#utility.yul\":2404:2426   */\n      mstore\n        /* \"#utility.yul\":2194:2432   */\n      pop\n        /* \"#utility.yul\":2151:2432   */\n      pop\n      pop\n      jump\t// out\n        /* \"#utility.yul\":2438:2567   */\n    tag_155:\n        /* \"#utility.yul\":2472:2478   */\n      0x00\n        /* \"#utility.yul\":2499:2519   */\n      tag_237\n      tag_141\n      jump\t// in\n    tag_237:\n        /* \"#utility.yul\":2489:2519   */\n      swap1\n      pop\n        /* \"#utility.yul\":2528:2561   */\n      tag_238\n        /* \"#utility.yul\":2556:2560   */\n      dup3\n        /* \"#utility.yul\":2548:2554   */\n      dup3\n        /* \"#utility.yul\":2528:2561   */\n      tag_154\n      jump\t// in\n    tag_238:\n        /* \"#utility.yul\":2438:2567   */\n      swap2\n      swap1\n      pop\n      jump\t// out\n        /* \"#utility.yul\":2573:2881   */\n    tag_156:\n        /* \"#utility.yul\":2635:2639   */\n      0x00\n        /* \"#utility.yul\":2725:2743   */\n      0xffffffffffffffff\n        /* \"#utility.yul\":2717:2723   */\n      dup3\n        /* \"#utility.yul\":2714:2744   */\n      gt\n        /* \"#utility.yul\":2711:2767   */\n      iszero\n      tag_240\n      jumpi\n        /* \"#utility.yul\":2747:2765   */\n      tag_241\n      tag_153\n      jump\t// in\n    tag_241:\n        /* \"#utility.yul\":2711:2767   */\n    tag_240:\n        /* \"#utility.yul\":2785:2814   */\n      tag_242\n        /* \"#utility.yul\":2807:2813   */\n      dup3\n        /* \"#utility.yul\":2785:2814   */\n      tag_152\n      jump\t// in\n    tag_242:\n        /* \"#utility.yul\":2777:2814   */\n      swap1\n      pop\n        /* \"#utility.yul\":2869:2873   */\n      0x20\n        /* \"#utility.yul\":2863:2867   */\n      dup2\n        /* \"#utility.yul\":2859:2874   */\n      add\n        /* \"#utility.yul\":2851:2874   */\n      swap1\n      pop\n        /* \"#utility.yul\":2573:2881   */\n      swap2\n      swap1\n      pop\n      jump\t// out\n        /* \"#utility.yul\":2887:3033   */\n    tag_157:\n        /* \"#utility.yul\":2984:2990   */\n      dup3\n        /* \"#utility.yul\":2979:2982   */\n      dup2\n        /* \"#utility.yul\":2974:2977   */\n      dup4\n        /* \"#utility.yul\":2961:2991   */\n      calldatacopy\n        /* \"#utility.yul\":3025:3026   */\n      0x00\n        /* \"#utility.yul\":3016:3022   */\n      dup4\n        /* \"#utility.yul\":3011:3014   */\n      dup4\n        /* \"#utility.yul\":3007:3023   */\n      add\n        /* \"#utility.yul\":3000:3027   */\n      mstore\n        /* \"#utility.yul\":2887:3033   */\n      pop\n      pop\n      pop\n      jump\t// out\n        /* \"#utility.yul\":3039:3464   */\n    tag_158:\n        /* \"#utility.yul\":3117:3122   */\n      0x00\n        /* \"#utility.yul\":3142:3208   */\n      tag_245\n        /* \"#utility.yul\":3158:3207   */\n      tag_246\n        /* \"#utility.yul\":3200:3206   */\n      dup5\n        /* \"#utility.yul\":3158:3207   */\n      tag_156\n      jump\t// in\n    tag_246:\n        /* \"#utility.yul\":3142:3208   */\n      tag_155\n      jump\t// in\n    tag_245:\n        /* \"#utility.yul\":3133:3208   */\n      swap1\n      pop\n        /* \"#utility.yul\":3231:3237   */\n      dup3\n        /* \"#utility.yul\":3224:3229   */\n      dup2\n        /* \"#utility.yul\":3217:3238   */\n      mstore\n        /* \"#utility.yul\":3269:3273   */\n      0x20\n        /* \"#utility.yul\":3262:3267   */\n      dup2\n        /* \"#utility.yul\":3258:3274   */\n      add\n        /* \"#utility.yul\":3307:3310   */\n      dup5\n        /* \"#utility.yul\":3298:3304   */\n      dup5\n        /* \"#utility.yul\":3293:3296   */\n      dup5\n        /* \"#utility.yul\":3289:3305   */\n      add\n        /* \"#utility.yul\":3286:3311   */\n      gt\n        /* \"#utility.yul\":3283:3395   */\n      iszero\n      tag_247\n      jumpi\n        /* \"#utility.yul\":3314:3393   */\n      tag_248\n      tag_151\n      jump\t// in\n    tag_248:\n        /* \"#utility.yul\":3283:3395   */\n    tag_247:\n        /* \"#utility.yul\":3404:3458   */\n      tag_249\n        /* \"#utility.yul\":3451:3457   */\n      dup5\n        /* \"#utility.yul\":3446:3449   */\n      dup3\n        /* \"#utility.yul\":3441:3444   */\n      dup6\n        /* \"#utility.yul\":3404:3458   */\n      tag_157\n      jump\t// in\n    tag_249:\n        /* \"#utility.yul\":3123:3464   */\n      pop\n        /* \"#utility.yul\":3039:3464   */\n      swap4\n      swap3\n      pop\n      pop\n      pop\n      jump\t// out\n        /* \"#utility.yul\":3484:3824   */\n    tag_159:\n        /* \"#utility.yul\":3540:3545   */\n      0x00\n        /* \"#utility.yul\":3589:3592   */\n      dup3\n        /* \"#utility.yul\":3582:3586   */\n      0x1f\n        /* \"#utility.yul\":3574:3580   */\n      dup4\n        /* \"#utility.yul\":3570:3587   */\n      add\n        /* \"#utility.yul\":3566:3593   */\n      slt\n        /* \"#utility.yul\":3556:3678   */\n      tag_251\n      jumpi\n        /* \"#utility.yul\":3597:3676   */\n      tag_252\n      tag_150\n      jump\t// in\n    tag_252:\n        /* \"#utility.yul\":3556:3678   */\n    tag_251:\n        /* \"#utility.yul\":3714:3720   */\n      dup2\n        /* \"#utility.yul\":3701:3721   */\n      calldataload\n        /* \"#utility.yul\":3739:3818   */\n      tag_253\n        /* \"#utility.yul\":3814:3817   */\n      dup5\n        /* \"#utility.yul\":3806:3812   */\n      dup3\n        /* \"#utility.yul\":3799:3803   */\n      0x20\n        /* \"#utility.yul\":3791:3797   */\n      dup7\n        /* \"#utility.yul\":3787:3804   */\n      add\n        /* \"#utility.yul\":3739:3818   */\n      tag_158\n      jump\t// in\n    tag_253:\n        /* \"#utility.yul\":3730:3818   */\n      swap2\n      pop\n        /* \"#utility.yul\":3546:3824   */\n      pop\n        /* \"#utility.yul\":3484:3824   */\n      swap3\n      swap2\n      pop\n      pop\n      jump\t// out\n        /* \"#utility.yul\":3830:3934   */\n    tag_160:\n        /* \"#utility.yul\":3875:3882   */\n      0x00\n        /* \"#utility.yul\":3904:3928   */\n      tag_255\n        /* \"#utility.yul\":3922:3927   */\n      dup3\n        /* \"#utility.yul\":3904:3928   */\n      tag_144\n      jump\t// in\n    tag_255:\n        /* \"#utility.yul\":3893:3928   */\n      swap1\n      pop\n        /* \"#utility.yul\":3830:3934   */\n      swap2\n      swap1\n      pop\n      jump\t// out\n        /* \"#utility.yul\":3940:4078   */\n    tag_161:\n        /* \"#utility.yul\":4021:4053   */\n      tag_257\n        /* \"#utility.yul\":4047:4052   */\n      dup2\n        /* \"#utility.yul\":4021:4053   */\n      tag_160\n      jump\t// in\n    tag_257:\n        /* \"#utility.yul\":4014:4019   */\n      dup2\n        /* \"#utility.yul\":4011:4054   */\n      eq\n        /* \"#utility.yul\":4001:4072   */\n      tag_258\n      jumpi\n        /* \"#utility.yul\":4068:4069   */\n      0x00\n        /* \"#utility.yul\":4065:4066   */\n      dup1\n        /* \"#utility.yul\":4058:4070   */\n      revert\n        /* \"#utility.yul\":4001:4072   */\n    tag_258:\n        /* \"#utility.yul\":3940:4078   */\n      pop\n      jump\t// out\n        /* \"#utility.yul\":4084:4239   */\n    tag_162:\n        /* \"#utility.yul\":4138:4143   */\n      0x00\n        /* \"#utility.yul\":4176:4182   */\n      dup2\n        /* \"#utility.yul\":4163:4183   */\n      calldataload\n        /* \"#utility.yul\":4154:4183   */\n      swap1\n      pop\n        /* \"#utility.yul\":4192:4233   */\n      tag_260\n        /* \"#utility.yul\":4227:4232   */\n      dup2\n        /* \"#utility.yul\":4192:4233   */\n      tag_161\n      jump\t// in\n    tag_260:\n        /* \"#utility.yul\":4084:4239   */\n      swap3\n      swap2\n      pop\n      pop\n      jump\t// out\n        /* \"#utility.yul\":4245:4367   */\n    tag_163:\n        /* \"#utility.yul\":4318:4342   */\n      tag_262\n        /* \"#utility.yul\":4336:4341   */\n      dup2\n        /* \"#utility.yul\":4318:4342   */\n      tag_148\n      jump\t// in\n    tag_262:\n        /* \"#utility.yul\":4311:4316   */\n      dup2\n        /* \"#utility.yul\":4308:4343   */\n      eq\n        /* \"#utility.yul\":4298:4361   */\n      tag_263\n      jumpi\n        /* \"#utility.yul\":4357:4358   */\n      0x00\n        /* \"#utility.yul\":4354:4355   */\n      dup1\n        /* \"#utility.yul\":4347:4359   */\n      revert\n        /* \"#utility.yul\":4298:4361   */\n    tag_263:\n        /* \"#utility.yul\":4245:4367   */\n      pop\n      jump\t// out\n        /* \"#utility.yul\":4373:4512   */\n    tag_164:\n        /* \"#utility.yul\":4419:4424   */\n      0x00\n        /* \"#utility.yul\":4457:4463   */\n      dup2\n        /* \"#utility.yul\":4444:4464   */\n      calldataload\n        /* \"#utility.yul\":4435:4464   */\n      swap1\n      pop\n        /* \"#utility.yul\":4473:4506   */\n      tag_265\n        /* \"#utility.yul\":4500:4505   */\n      dup2\n        /* \"#utility.yul\":4473:4506   */\n      tag_163\n      jump\t// in\n    tag_265:\n        /* \"#utility.yul\":4373:4512   */\n      swap3\n      swap2\n      pop\n      pop\n      jump\t// out\n        /* \"#utility.yul\":4518:5333   */\n    tag_36:\n        /* \"#utility.yul\":4613:4619   */\n      0x00\n        /* \"#utility.yul\":4621:4627   */\n      dup1\n        /* \"#utility.yul\":4629:4635   */\n      0x00\n        /* \"#utility.yul\":4678:4680   */\n      0x60\n        /* \"#utility.yul\":4666:4675   */\n      dup5\n        /* \"#utility.yul\":4657:4664   */\n      dup7\n        /* \"#utility.yul\":4653:4676   */\n      sub\n        /* \"#utility.yul\":4649:4681   */\n      slt\n        /* \"#utility.yul\":4646:4765   */\n      iszero\n      tag_267\n      jumpi\n        /* \"#utility.yul\":4684:4763   */\n      tag_268\n      tag_142\n      jump\t// in\n    tag_268:\n        /* \"#utility.yul\":4646:4765   */\n    tag_267:\n        /* \"#utility.yul\":4832:4833   */\n      0x00\n        /* \"#utility.yul\":4821:4830   */\n      dup5\n        /* \"#utility.yul\":4817:4834   */\n      add\n        /* \"#utility.yul\":4804:4835   */\n      calldataload\n        /* \"#utility.yul\":4862:4880   */\n      0xffffffffffffffff\n        /* \"#utility.yul\":4854:4860   */\n      dup2\n        /* \"#utility.yul\":4851:4881   */\n      gt\n        /* \"#utility.yul\":4848:4965   */\n      iszero\n      tag_269\n      jumpi\n        /* \"#utility.yul\":4884:4963   */\n      tag_270\n      tag_143\n      jump\t// in\n    tag_270:\n        /* \"#utility.yul\":4848:4965   */\n    tag_269:\n        /* \"#utility.yul\":4989:5052   */\n      tag_271\n        /* \"#utility.yul\":5044:5051   */\n      dup7\n        /* \"#utility.yul\":5035:5041   */\n      dup3\n        /* \"#utility.yul\":5024:5033   */\n      dup8\n        /* \"#utility.yul\":5020:5042   */\n      add\n        /* \"#utility.yul\":4989:5052   */\n      tag_159\n      jump\t// in\n    tag_271:\n        /* \"#utility.yul\":4979:5052   */\n      swap4\n      pop\n        /* \"#utility.yul\":4775:5062   */\n      pop\n        /* \"#utility.yul\":5101:5103   */\n      0x20\n        /* \"#utility.yul\":5127:5188   */\n      tag_272\n        /* \"#utility.yul\":5180:5187   */\n      dup7\n        /* \"#utility.yul\":5171:5177   */\n      dup3\n        /* \"#utility.yul\":5160:5169   */\n      dup8\n        /* \"#utility.yul\":5156:5178   */\n      add\n        /* \"#utility.yul\":5127:5188   */\n      tag_162\n      jump\t// in\n    tag_272:\n        /* \"#utility.yul\":5117:5188   */\n      swap3\n      pop\n        /* \"#utility.yul\":5072:5198   */\n      pop\n        /* \"#utility.yul\":5237:5239   */\n      0x40\n        /* \"#utility.yul\":5263:5316   */\n      tag_273\n        /* \"#utility.yul\":5308:5315   */\n      dup7\n        /* \"#utility.yul\":5299:5305   */\n      dup3\n        /* \"#utility.yul\":5288:5297   */\n      dup8\n        /* \"#utility.yul\":5284:5306   */\n      add\n        /* \"#utility.yul\":5263:5316   */\n      tag_164\n      jump\t// in\n    tag_273:\n        /* \"#utility.yul\":5253:5316   */\n      swap2\n      pop\n        /* \"#utility.yul\":5208:5326   */\n      pop\n        /* \"#utility.yul\":4518:5333   */\n      swap3\n      pop\n      swap3\n      pop\n      swap3\n      jump\t// out\n        /* \"#utility.yul\":5339:5457   */\n    tag_165:\n        /* \"#utility.yul\":5426:5450   */\n      tag_275\n        /* \"#utility.yul\":5444:5449   */\n      dup2\n        /* \"#utility.yul\":5426:5450   */\n      tag_145\n      jump\t// in\n    tag_275:\n        /* \"#utility.yul\":5421:5424   */\n      dup3\n        /* \"#utility.yul\":5414:5451   */\n      mstore\n        /* \"#utility.yul\":5339:5457   */\n      pop\n      pop\n      jump\t// out\n        /* \"#utility.yul\":5463:5685   */\n    tag_42:\n        /* \"#utility.yul\":5556:5560   */\n      0x00\n        /* \"#utility.yul\":5594:5596   */\n      0x20\n        /* \"#utility.yul\":5583:5592   */\n      dup3\n        /* \"#utility.yul\":5579:5597   */\n      add\n        /* \"#utility.yul\":5571:5597   */\n      swap1\n      pop\n        /* \"#utility.yul\":5607:5678   */\n      tag_277\n        /* \"#utility.yul\":5675:5676   */\n      0x00\n        /* \"#utility.yul\":5664:5673   */\n      dup4\n        /* \"#utility.yul\":5660:5677   */\n      add\n        /* \"#utility.yul\":5651:5657   */\n      dup5\n        /* \"#utility.yul\":5607:5678   */\n      tag_165\n      jump\t// in\n    tag_277:\n        /* \"#utility.yul\":5463:5685   */\n      swap3\n      swap2\n      pop\n      pop\n      jump\t// out\n        /* \"#utility.yul\":5691:6020   */\n    tag_61:\n        /* \"#utility.yul\":5750:5756   */\n      0x00\n        /* \"#utility.yul\":5799:5801   */\n      0x20\n        /* \"#utility.yul\":5787:5796   */\n      dup3\n        /* \"#utility.yul\":5778:5785   */\n      dup5\n        /* \"#utility.yul\":5774:5797   */\n      sub\n        /* \"#utility.yul\":5770:5802   */\n      slt\n        /* \"#utility.yul\":5767:5886   */\n      iszero\n      tag_279\n      jumpi\n        /* \"#utility.yul\":5805:5884   */\n      tag_280\n      tag_142\n      jump\t// in\n    tag_280:\n        /* \"#utility.yul\":5767:5886   */\n    tag_279:\n        /* \"#utility.yul\":5925:5926   */\n      0x00\n        /* \"#utility.yul\":5950:6003   */\n      tag_281\n        /* \"#utility.yul\":5995:6002   */\n      dup5\n        /* \"#utility.yul\":5986:5992   */\n      dup3\n        /* \"#utility.yul\":5975:5984   */\n      dup6\n        /* \"#utility.yul\":5971:5993   */\n      add\n        /* \"#utility.yul\":5950:6003   */\n      tag_164\n      jump\t// in\n    tag_281:\n        /* \"#utility.yul\":5940:6003   */\n      swap2\n      pop\n        /* \"#utility.yul\":5896:6013   */\n      pop\n        /* \"#utility.yul\":5691:6020   */\n      swap3\n      swap2\n      pop\n      pop\n      jump\t// out\n        /* \"#utility.yul\":6026:6125   */\n    tag_166:\n        /* \"#utility.yul\":6078:6084   */\n      0x00\n        /* \"#utility.yul\":6112:6117   */\n      dup2\n        /* \"#utility.yul\":6106:6118   */\n      mload\n        /* \"#utility.yul\":6096:6118   */\n      swap1\n      pop\n        /* \"#utility.yul\":6026:6125   */\n      swap2\n      swap1\n      pop\n      jump\t// out\n        /* \"#utility.yul\":6131:6300   */\n    tag_167:\n        /* \"#utility.yul\":6215:6226   */\n      0x00\n        /* \"#utility.yul\":6249:6255   */\n      dup3\n        /* \"#utility.yul\":6244:6247   */\n      dup3\n        /* \"#utility.yul\":6237:6256   */\n      mstore\n        /* \"#utility.yul\":6289:6293   */\n      0x20\n        /* \"#utility.yul\":6284:6287   */\n      dup3\n        /* \"#utility.yul\":6280:6294   */\n      add\n        /* \"#utility.yul\":6265:6294   */\n      swap1\n      pop\n        /* \"#utility.yul\":6131:6300   */\n      swap3\n      swap2\n      pop\n      pop\n      jump\t// out\n        /* \"#utility.yul\":6306:6552   */\n    tag_168:\n        /* \"#utility.yul\":6387:6388   */\n      0x00\n        /* \"#utility.yul\":6397:6510   */\n    tag_285:\n        /* \"#utility.yul\":6411:6417   */\n      dup4\n        /* \"#utility.yul\":6408:6409   */\n      dup2\n        /* \"#utility.yul\":6405:6418   */\n      lt\n        /* \"#utility.yul\":6397:6510   */\n      iszero\n      tag_287\n      jumpi\n        /* \"#utility.yul\":6496:6497   */\n      dup1\n        /* \"#utility.yul\":6491:6494   */\n      dup3\n        /* \"#utility.yul\":6487:6498   */\n      add\n        /* \"#utility.yul\":6481:6499   */\n      mload\n        /* \"#utility.yul\":6477:6478   */\n      dup2\n        /* \"#utility.yul\":6472:6475   */\n      dup5\n        /* \"#utility.yul\":6468:6479   */\n      add\n        /* \"#utility.yul\":6461:6500   */\n      mstore\n        /* \"#utility.yul\":6433:6435   */\n      0x20\n        /* \"#utility.yul\":6430:6431   */\n      dup2\n        /* \"#utility.yul\":6426:6436   */\n      add\n        /* \"#utility.yul\":6421:6436   */\n      swap1\n      pop\n        /* \"#utility.yul\":6397:6510   */\n      jump(tag_285)\n    tag_287:\n        /* \"#utility.yul\":6544:6545   */\n      0x00\n        /* \"#utility.yul\":6535:6541   */\n      dup5\n        /* \"#utility.yul\":6530:6533   */\n      dup5\n        /* \"#utility.yul\":6526:6542   */\n      add\n        /* \"#utility.yul\":6519:6546   */\n      mstore\n        /* \"#utility.yul\":6368:6552   */\n      pop\n        /* \"#utility.yul\":6306:6552   */\n      pop\n      pop\n      pop\n      jump\t// out\n        /* \"#utility.yul\":6558:6935   */\n    tag_169:\n        /* \"#utility.yul\":6646:6649   */\n      0x00\n        /* \"#utility.yul\":6674:6713   */\n      tag_289\n        /* \"#utility.yul\":6707:6712   */\n      dup3\n        /* \"#utility.yul\":6674:6713   */\n      tag_166\n      jump\t// in\n    tag_289:\n        /* \"#utility.yul\":6729:6800   */\n      tag_290\n        /* \"#utility.yul\":6793:6799   */\n      dup2\n        /* \"#utility.yul\":6788:6791   */\n      dup6\n        /* \"#utility.yul\":6729:6800   */\n      tag_167\n      jump\t// in\n    tag_290:\n        /* \"#utility.yul\":6722:6800   */\n      swap4\n      pop\n        /* \"#utility.yul\":6809:6874   */\n      tag_291\n        /* \"#utility.yul\":6867:6873   */\n      dup2\n        /* \"#utility.yul\":6862:6865   */\n      dup6\n        /* \"#utility.yul\":6855:6859   */\n      0x20\n        /* \"#utility.yul\":6848:6853   */\n      dup7\n        /* \"#utility.yul\":6844:6860   */\n      add\n        /* \"#utility.yul\":6809:6874   */\n      tag_168\n      jump\t// in\n    tag_291:\n        /* \"#utility.yul\":6899:6928   */\n      tag_292\n        /* \"#utility.yul\":6921:6927   */\n      dup2\n        /* \"#utility.yul\":6899:6928   */\n      tag_152\n      jump\t// in\n    tag_292:\n        /* \"#utility.yul\":6894:6897   */\n      dup5\n        /* \"#utility.yul\":6890:6929   */\n      add\n        /* \"#utility.yul\":6883:6929   */\n      swap2\n      pop\n        /* \"#utility.yul\":6650:6935   */\n      pop\n        /* \"#utility.yul\":6558:6935   */\n      swap3\n      swap2\n      pop\n      pop\n      jump\t// out\n        /* \"#utility.yul\":6941:7083   */\n    tag_170:\n        /* \"#utility.yul\":7044:7076   */\n      tag_294\n        /* \"#utility.yul\":7070:7075   */\n      dup2\n        /* \"#utility.yul\":7044:7076   */\n      tag_160\n      jump\t// in\n    tag_294:\n        /* \"#utility.yul\":7039:7042   */\n      dup3\n        /* \"#utility.yul\":7032:7077   */\n      mstore\n        /* \"#utility.yul\":6941:7083   */\n      pop\n      pop\n      jump\t// out\n        /* \"#utility.yul\":7089:7179   */\n    tag_171:\n        /* \"#utility.yul\":7123:7130   */\n      0x00\n        /* \"#utility.yul\":7166:7171   */\n      dup2\n        /* \"#utility.yul\":7159:7172   */\n      iszero\n        /* \"#utility.yul\":7152:7173   */\n      iszero\n        /* \"#utility.yul\":7141:7173   */\n      swap1\n      pop\n        /* \"#utility.yul\":7089:7179   */\n      swap2\n      swap1\n      pop\n      jump\t// out\n        /* \"#utility.yul\":7185:7294   */\n    tag_172:\n        /* \"#utility.yul\":7266:7287   */\n      tag_297\n        /* \"#utility.yul\":7281:7286   */\n      dup2\n        /* \"#utility.yul\":7266:7287   */\n      tag_171\n      jump\t// in\n    tag_297:\n        /* \"#utility.yul\":7261:7264   */\n      dup3\n        /* \"#utility.yul\":7254:7288   */\n      mstore\n        /* \"#utility.yul\":7185:7294   */\n      pop\n      pop\n      jump\t// out\n        /* \"#utility.yul\":7300:8075   */\n    tag_64:\n        /* \"#utility.yul\":7535:7539   */\n      0x00\n        /* \"#utility.yul\":7573:7576   */\n      0xa0\n        /* \"#utility.yul\":7562:7571   */\n      dup3\n        /* \"#utility.yul\":7558:7577   */\n      add\n        /* \"#utility.yul\":7550:7577   */\n      swap1\n      pop\n        /* \"#utility.yul\":7623:7632   */\n      dup2\n        /* \"#utility.yul\":7617:7621   */\n      dup2\n        /* \"#utility.yul\":7613:7633   */\n      sub\n        /* \"#utility.yul\":7609:7610   */\n      0x00\n        /* \"#utility.yul\":7598:7607   */\n      dup4\n        /* \"#utility.yul\":7594:7611   */\n      add\n        /* \"#utility.yul\":7587:7634   */\n      mstore\n        /* \"#utility.yul\":7651:7729   */\n      tag_299\n        /* \"#utility.yul\":7724:7728   */\n      dup2\n        /* \"#utility.yul\":7715:7721   */\n      dup9\n        /* \"#utility.yul\":7651:7729   */\n      tag_169\n      jump\t// in\n    tag_299:\n        /* \"#utility.yul\":7643:7729   */\n      swap1\n      pop\n        /* \"#utility.yul\":7739:7827   */\n      tag_300\n        /* \"#utility.yul\":7823:7825   */\n      0x20\n        /* \"#utility.yul\":7812:7821   */\n      dup4\n        /* \"#utility.yul\":7808:7826   */\n      add\n        /* \"#utility.yul\":7799:7805   */\n      dup8\n        /* \"#utility.yul\":7739:7827   */\n      tag_170\n      jump\t// in\n    tag_300:\n        /* \"#utility.yul\":7837:7909   */\n      tag_301\n        /* \"#utility.yul\":7905:7907   */\n      0x40\n        /* \"#utility.yul\":7894:7903   */\n      dup4\n        /* \"#utility.yul\":7890:7908   */\n      add\n        /* \"#utility.yul\":7881:7887   */\n      dup7\n        /* \"#utility.yul\":7837:7909   */\n      tag_149\n      jump\t// in\n    tag_301:\n        /* \"#utility.yul\":7919:7985   */\n      tag_302\n        /* \"#utility.yul\":7981:7983   */\n      0x60\n        /* \"#utility.yul\":7970:7979   */\n      dup4\n        /* \"#utility.yul\":7966:7984   */\n      add\n        /* \"#utility.yul\":7957:7963   */\n      dup6\n        /* \"#utility.yul\":7919:7985   */\n      tag_172\n      jump\t// in\n    tag_302:\n        /* \"#utility.yul\":7995:8068   */\n      tag_303\n        /* \"#utility.yul\":8063:8066   */\n      0x80\n        /* \"#utility.yul\":8052:8061   */\n      dup4\n        /* \"#utility.yul\":8048:8067   */\n      add\n        /* \"#utility.yul\":8039:8045   */\n      dup5\n        /* \"#utility.yul\":7995:8068   */\n      tag_149\n      jump\t// in\n    tag_303:\n        /* \"#utility.yul\":7300:8075   */\n      swap7\n      swap6\n      pop\n      pop\n      pop\n      pop\n      pop\n      pop\n      jump\t// out\n        /* \"#utility.yul\":8081:8250   */\n    tag_173:\n        /* \"#utility.yul\":8221:8242   */\n      0x446561646c696e65206861732070617373656400000000000000000000000000\n        /* \"#utility.yul\":8217:8218   */\n      0x00\n        /* \"#utility.yul\":8209:8215   */\n      dup3\n        /* \"#utility.yul\":8205:8219   */\n      add\n        /* \"#utility.yul\":8198:8243   */\n      mstore\n        /* \"#utility.yul\":8081:8250   */\n      pop\n      jump\t// out\n        /* \"#utility.yul\":8256:8622   */\n    tag_174:\n        /* \"#utility.yul\":8398:8401   */\n      0x00\n        /* \"#utility.yul\":8419:8486   */\n      tag_306\n        /* \"#utility.yul\":8483:8485   */\n      0x13\n        /* \"#utility.yul\":8478:8481   */\n      dup4\n        /* \"#utility.yul\":8419:8486   */\n      tag_167\n      jump\t// in\n    tag_306:\n        /* \"#utility.yul\":8412:8486   */\n      swap2\n      pop\n        /* \"#utility.yul\":8495:8588   */\n      tag_307\n        /* \"#utility.yul\":8584:8587   */\n      dup3\n        /* \"#utility.yul\":8495:8588   */\n      tag_173\n      jump\t// in\n    tag_307:\n        /* \"#utility.yul\":8613:8615   */\n      0x20\n        /* \"#utility.yul\":8608:8611   */\n      dup3\n        /* \"#utility.yul\":8604:8616   */\n      add\n        /* \"#utility.yul\":8597:8616   */\n      swap1\n      pop\n        /* \"#utility.yul\":8256:8622   */\n      swap2\n      swap1\n      pop\n      jump\t// out\n        /* \"#utility.yul\":8628:9047   */\n    tag_88:\n        /* \"#utility.yul\":8794:8798   */\n      0x00\n        /* \"#utility.yul\":8832:8834   */\n      0x20\n        /* \"#utility.yul\":8821:8830   */\n      dup3\n        /* \"#utility.yul\":8817:8835   */\n      add\n        /* \"#utility.yul\":8809:8835   */\n      swap1\n      pop\n        /* \"#utility.yul\":8881:8890   */\n      dup2\n        /* \"#utility.yul\":8875:8879   */\n      dup2\n        /* \"#utility.yul\":8871:8891   */\n      sub\n        /* \"#utility.yul\":8867:8868   */\n      0x00\n        /* \"#utility.yul\":8856:8865   */\n      dup4\n        /* \"#utility.yul\":8852:8869   */\n      add\n        /* \"#utility.yul\":8845:8892   */\n      mstore\n        /* \"#utility.yul\":8909:9040   */\n      tag_309\n        /* \"#utility.yul\":9035:9039   */\n      dup2\n        /* \"#utility.yul\":8909:9040   */\n      tag_174\n      jump\t// in\n    tag_309:\n        /* \"#utility.yul\":8901:9040   */\n      swap1\n      pop\n        /* \"#utility.yul\":8628:9047   */\n      swap2\n      swap1\n      pop\n      jump\t// out\n        /* \"#utility.yul\":9053:9233   */\n    tag_175:\n        /* \"#utility.yul\":9193:9225   */\n      0x4d696e69756d20636f6e747269627574696f6e206973206e6f74206d65740000\n        /* \"#utility.yul\":9189:9190   */\n      0x00\n        /* \"#utility.yul\":9181:9187   */\n      dup3\n        /* \"#utility.yul\":9177:9191   */\n      add\n        /* \"#utility.yul\":9170:9226   */\n      mstore\n        /* \"#utility.yul\":9053:9233   */\n      pop\n      jump\t// out\n        /* \"#utility.yul\":9239:9605   */\n    tag_176:\n        /* \"#utility.yul\":9381:9384   */\n      0x00\n        /* \"#utility.yul\":9402:9469   */\n      tag_312\n        /* \"#utility.yul\":9466:9468   */\n      0x1e\n        /* \"#utility.yul\":9461:9464   */\n      dup4\n        /* \"#utility.yul\":9402:9469   */\n      tag_167\n      jump\t// in\n    tag_312:\n        /* \"#utility.yul\":9395:9469   */\n      swap2\n      pop\n        /* \"#utility.yul\":9478:9571   */\n      tag_313\n        /* \"#utility.yul\":9567:9570   */\n      dup3\n        /* \"#utility.yul\":9478:9571   */\n      tag_175\n      jump\t// in\n    tag_313:\n        /* \"#utility.yul\":9596:9598   */\n      0x20\n        /* \"#utility.yul\":9591:9594   */\n      dup3\n        /* \"#utility.yul\":9587:9599   */\n      add\n        /* \"#utility.yul\":9580:9599   */\n      swap1\n      pop\n        /* \"#utility.yul\":9239:9605   */\n      swap2\n      swap1\n      pop\n      jump\t// out\n        /* \"#utility.yul\":9611:10030   */\n    tag_91:\n        /* \"#utility.yul\":9777:9781   */\n      0x00\n        /* \"#utility.yul\":9815:9817   */\n      0x20\n        /* \"#utility.yul\":9804:9813   */\n      dup3\n        /* \"#utility.yul\":9800:9818   */\n      add\n        /* \"#utility.yul\":9792:9818   */\n      swap1\n      pop\n        /* \"#utility.yul\":9864:9873   */\n      dup2\n        /* \"#utility.yul\":9858:9862   */\n      dup2\n        /* \"#utility.yul\":9854:9874   */\n      sub\n        /* \"#utility.yul\":9850:9851   */\n      0x00\n        /* \"#utility.yul\":9839:9848   */\n      dup4\n        /* \"#utility.yul\":9835:9852   */\n      add\n        /* \"#utility.yul\":9828:9875   */\n      mstore\n        /* \"#utility.yul\":9892:10023   */\n      tag_315\n        /* \"#utility.yul\":10018:10022   */\n      dup2\n        /* \"#utility.yul\":9892:10023   */\n      tag_176\n      jump\t// in\n    tag_315:\n        /* \"#utility.yul\":9884:10023   */\n      swap1\n      pop\n        /* \"#utility.yul\":9611:10030   */\n      swap2\n      swap1\n      pop\n      jump\t// out\n        /* \"#utility.yul\":10036:10216   */\n    tag_177:\n        /* \"#utility.yul\":10084:10161   */\n      0x4e487b7100000000000000000000000000000000000000000000000000000000\n        /* \"#utility.yul\":10081:10082   */\n      0x00\n        /* \"#utility.yul\":10074:10162   */\n      mstore\n        /* \"#utility.yul\":10181:10185   */\n      0x11\n        /* \"#utility.yul\":10178:10179   */\n      0x04\n        /* \"#utility.yul\":10171:10186   */\n      mstore\n        /* \"#utility.yul\":10205:10209   */\n      0x24\n        /* \"#utility.yul\":10202:10203   */\n      0x00\n        /* \"#utility.yul\":10195:10210   */\n      revert\n        /* \"#utility.yul\":10222:10455   */\n    tag_94:\n        /* \"#utility.yul\":10261:10264   */\n      0x00\n        /* \"#utility.yul\":10284:10308   */\n      tag_318\n        /* \"#utility.yul\":10302:10307   */\n      dup3\n        /* \"#utility.yul\":10284:10308   */\n      tag_148\n      jump\t// in\n    tag_318:\n        /* \"#utility.yul\":10275:10308   */\n      swap2\n      pop\n        /* \"#utility.yul\":10330:10396   */\n      0xffffffffffffffffffffffffffffffffffffffffffffffffffffffffffffffff\n        /* \"#utility.yul\":10323:10328   */\n      dup3\n        /* \"#utility.yul\":10320:10397   */\n      sub\n        /* \"#utility.yul\":10317:10420   */\n      tag_319\n      jumpi\n        /* \"#utility.yul\":10400:10418   */\n      tag_320\n      tag_177\n      jump\t// in\n    tag_320:\n        /* \"#utility.yul\":10317:10420   */\n    tag_319:\n        /* \"#utility.yul\":10447:10448   */\n      0x01\n        /* \"#utility.yul\":10440:10445   */\n      dup3\n        /* \"#utility.yul\":10436:10449   */\n      add\n        /* \"#utility.yul\":10429:10449   */\n      swap1\n      pop\n        /* \"#utility.yul\":10222:10455   */\n      swap2\n      swap1\n      pop\n      jump\t// out\n        /* \"#utility.yul\":10461:10652   */\n    tag_96:\n        /* \"#utility.yul\":10501:10504   */\n      0x00\n        /* \"#utility.yul\":10520:10540   */\n      tag_322\n        /* \"#utility.yul\":10538:10539   */\n      dup3\n        /* \"#utility.yul\":10520:10540   */\n      tag_148\n      jump\t// in\n    tag_322:\n        /* \"#utility.yul\":10515:10540   */\n      swap2\n      pop\n        /* \"#utility.yul\":10554:10574   */\n      tag_323\n        /* \"#utility.yul\":10572:10573   */\n      dup4\n        /* \"#utility.yul\":10554:10574   */\n      tag_148\n      jump\t// in\n    tag_323:\n        /* \"#utility.yul\":10549:10574   */\n      swap3\n      pop\n        /* \"#utility.yul\":10597:10598   */\n      dup3\n        /* \"#utility.yul\":10594:10595   */\n      dup3\n        /* \"#utility.yul\":10590:10599   */\n      add\n        /* \"#utility.yul\":10583:10599   */\n      swap1\n      pop\n        /* \"#utility.yul\":10618:10621   */\n      dup1\n        /* \"#utility.yul\":10615:10616   */\n      dup3\n        /* \"#utility.yul\":10612:10622   */\n      gt\n        /* \"#utility.yul\":10609:10645   */\n      iszero\n      tag_324\n      jumpi\n        /* \"#utility.yul\":10625:10643   */\n      tag_325\n      tag_177\n      jump\t// in\n    tag_325:\n        /* \"#utility.yul\":10609:10645   */\n    tag_324:\n        /* \"#utility.yul\":10461:10652   */\n      swap3\n      swap2\n      pop\n      pop\n      jump\t// out\n        /* \"#utility.yul\":10658:10880   */\n    tag_178:\n        /* \"#utility.yul\":10798:10832   */\n      0x6f6e6c79206d616e616765722063616e2063616c6c20746869732066756e6374\n        /* \"#utility.yul\":10794:10795   */\n      0x00\n        /* \"#utility.yul\":10786:10792   */\n      dup3\n        /* \"#utility.yul\":10782:10796   */\n      add\n        /* \"#utility.yul\":10775:10833   */\n      mstore\n        /* \"#utility.yul\":10867:10872   */\n      0x696f6e0000000000000000000000000000000000000000000000000000000000\n        /* \"#utility.yul\":10862:10864   */\n      0x20\n        /* \"#utility.yul\":10854:10860   */\n      dup3\n        /* \"#utility.yul\":10850:10865   */\n      add\n        /* \"#utility.yul\":10843:10873   */\n      mstore\n        /* \"#utility.yul\":10658:10880   */\n      pop\n      jump\t// out\n        /* \"#utility.yul\":10886:11252   */\n    tag_179:\n        /* \"#utility.yul\":11028:11031   */\n      0x00\n        /* \"#utility.yul\":11049:11116   */\n      tag_328\n        /* \"#utility.yul\":11113:11115   */\n      0x23\n        /* \"#utility.yul\":11108:11111   */\n      dup4\n        /* \"#utility.yul\":11049:11116   */\n      tag_167\n      jump\t// in\n    tag_328:\n        /* \"#utility.yul\":11042:11116   */\n      swap2\n      pop\n        /* \"#utility.yul\":11125:11218   */\n      tag_329\n        /* \"#utility.yul\":11214:11217   */\n      dup3\n        /* \"#utility.yul\":11125:11218   */\n      tag_178\n      jump\t// in\n    tag_329:\n        /* \"#utility.yul\":11243:11245   */\n      0x40\n        /* \"#utility.yul\":11238:11241   */\n      dup3\n        /* \"#utility.yul\":11234:11246   */\n      add\n        /* \"#utility.yul\":11227:11246   */\n      swap1\n      pop\n        /* \"#utility.yul\":10886:11252   */\n      swap2\n      swap1\n      pop\n      jump\t// out\n        /* \"#utility.yul\":11258:11677   */\n    tag_101:\n        /* \"#utility.yul\":11424:11428   */\n      0x00\n        /* \"#utility.yul\":11462:11464   */\n      0x20\n        /* \"#utility.yul\":11451:11460   */\n      dup3\n        /* \"#utility.yul\":11447:11465   */\n      add\n        /* \"#utility.yul\":11439:11465   */\n      swap1\n      pop\n        /* \"#utility.yul\":11511:11520   */\n      dup2\n        /* \"#utility.yul\":11505:11509   */\n      dup2\n        /* \"#utility.yul\":11501:11521   */\n      sub\n        /* \"#utility.yul\":11497:11498   */\n      0x00\n        /* \"#utility.yul\":11486:11495   */\n      dup4\n        /* \"#utility.yul\":11482:11499   */\n      add\n        /* \"#utility.yul\":11475:11522   */\n      mstore\n        /* \"#utility.yul\":11539:11670   */\n      tag_331\n        /* \"#utility.yul\":11665:11669   */\n      dup2\n        /* \"#utility.yul\":11539:11670   */\n      tag_179\n      jump\t// in\n    tag_331:\n        /* \"#utility.yul\":11531:11670   */\n      swap1\n      pop\n        /* \"#utility.yul\":11258:11677   */\n      swap2\n      swap1\n      pop\n      jump\t// out\n        /* \"#utility.yul\":11683:11863   */\n    tag_180:\n        /* \"#utility.yul\":11731:11808   */\n      0x4e487b7100000000000000000000000000000000000000000000000000000000\n        /* \"#utility.yul\":11728:11729   */\n      0x00\n        /* \"#utility.yul\":11721:11809   */\n      mstore\n        /* \"#utility.yul\":11828:11832   */\n      0x22\n        /* \"#utility.yul\":11825:11826   */\n      0x04\n        /* \"#utility.yul\":11818:11833   */\n      mstore\n        /* \"#utility.yul\":11852:11856   */\n      0x24\n        /* \"#utility.yul\":11849:11850   */\n      0x00\n        /* \"#utility.yul\":11842:11857   */\n      revert\n        /* \"#utility.yul\":11869:12189   */\n    tag_115:\n        /* \"#utility.yul\":11913:11919   */\n      0x00\n        /* \"#utility.yul\":11950:11951   */\n      0x02\n        /* \"#utility.yul\":11944:11948   */\n      dup3\n        /* \"#utility.yul\":11940:11952   */\n      div\n        /* \"#utility.yul\":11930:11952   */\n      swap1\n      pop\n        /* \"#utility.yul\":11997:11998   */\n      0x01\n        /* \"#utility.yul\":11991:11995   */\n      dup3\n        /* \"#utility.yul\":11987:11999   */\n      and\n        /* \"#utility.yul\":12018:12036   */\n      dup1\n        /* \"#utility.yul\":12008:12089   */\n      tag_334\n      jumpi\n        /* \"#utility.yul\":12074:12078   */\n      0x7f\n        /* \"#utility.yul\":12066:12072   */\n      dup3\n        /* \"#utility.yul\":12062:12079   */\n      and\n        /* \"#utility.yul\":12052:12079   */\n      swap2\n      pop\n        /* \"#utility.yul\":12008:12089   */\n    tag_334:\n        /* \"#utility.yul\":12136:12138   */\n      0x20\n        /* \"#utility.yul\":12128:12134   */\n      dup3\n        /* \"#utility.yul\":12125:12139   */\n      lt\n        /* \"#utility.yul\":12105:12123   */\n      dup2\n        /* \"#utility.yul\":12102:12140   */\n      sub\n        /* \"#utility.yul\":12099:12183   */\n      tag_335\n      jumpi\n        /* \"#utility.yul\":12155:12173   */\n      tag_336\n      tag_180\n      jump\t// in\n    tag_336:\n        /* \"#utility.yul\":12099:12183   */\n    tag_335:\n        /* \"#utility.yul\":11920:12189   */\n      pop\n        /* \"#utility.yul\":11869:12189   */\n      swap2\n      swap1\n      pop\n      jump\t// out\n        /* \"#utility.yul\":12195:12336   */\n    tag_181:\n        /* \"#utility.yul\":12244:12248   */\n      0x00\n        /* \"#utility.yul\":12267:12270   */\n      dup2\n        /* \"#utility.yul\":12259:12270   */\n      swap1\n      pop\n        /* \"#utility.yul\":12290:12293   */\n      dup2\n        /* \"#utility.yul\":12287:12288   */\n      0x00\n        /* \"#utility.yul\":12280:12294   */\n      mstore\n        /* \"#utility.yul\":12324:12328   */\n      0x20\n        /* \"#utility.yul\":12321:12322   */\n      0x00\n        /* \"#utility.yul\":12311:12329   */\n      keccak256\n        /* \"#utility.yul\":12303:12329   */\n      swap1\n      pop\n        /* \"#utility.yul\":12195:12336   */\n      swap2\n      swap1\n      pop\n      jump\t// out\n        /* \"#utility.yul\":12342:12435   */\n    tag_182:\n        /* \"#utility.yul\":12379:12385   */\n      0x00\n        /* \"#utility.yul\":12426:12428   */\n      0x20\n        /* \"#utility.yul\":12421:12423   */\n      0x1f\n        /* \"#utility.yul\":12414:12419   */\n      dup4\n        /* \"#utility.yul\":12410:12424   */\n      add\n        /* \"#utility.yul\":12406:12429   */\n      div\n        /* \"#utility.yul\":12396:12429   */\n      swap1\n      pop\n        /* \"#utility.yul\":12342:12435   */\n      swap2\n      swap1\n      pop\n      jump\t// out\n        /* \"#utility.yul\":12441:12548   */\n    tag_183:\n        /* \"#utility.yul\":12485:12493   */\n      0x00\n        /* \"#utility.yul\":12535:12540   */\n      dup3\n        /* \"#utility.yul\":12529:12533   */\n      dup3\n        /* \"#utility.yul\":12525:12541   */\n      shl\n        /* \"#utility.yul\":12504:12541   */\n      swap1\n      pop\n        /* \"#utility.yul\":12441:12548   */\n      swap3\n      swap2\n      pop\n      pop\n      jump\t// out\n        /* \"#utility.yul\":12554:12947   */\n    tag_184:\n        /* \"#utility.yul\":12623:12629   */\n      0x00\n        /* \"#utility.yul\":12673:12674   */\n      0x08\n        /* \"#utility.yul\":12661:12671   */\n      dup4\n        /* \"#utility.yul\":12657:12675   */\n      mul\n        /* \"#utility.yul\":12696:12793   */\n      tag_341\n        /* \"#utility.yul\":12726:12792   */\n      0xffffffffffffffffffffffffffffffffffffffffffffffffffffffffffffffff\n        /* \"#utility.yul\":12715:12724   */\n      dup3\n        /* \"#utility.yul\":12696:12793   */\n      tag_183\n      jump\t// in\n    tag_341:\n        /* \"#utility.yul\":12814:12853   */\n      tag_342\n        /* \"#utility.yul\":12844:12852   */\n      dup7\n        /* \"#utility.yul\":12833:12842   */\n      dup4\n        /* \"#utility.yul\":12814:12853   */\n      tag_183\n      jump\t// in\n    tag_342:\n        /* \"#utility.yul\":12802:12853   */\n      swap6\n      pop\n        /* \"#utility.yul\":12886:12890   */\n      dup1\n        /* \"#utility.yul\":12882:12891   */\n      not\n        /* \"#utility.yul\":12875:12880   */\n      dup5\n        /* \"#utility.yul\":12871:12892   */\n      and\n        /* \"#utility.yul\":12862:12892   */\n      swap4\n      pop\n        /* \"#utility.yul\":12935:12939   */\n      dup1\n        /* \"#utility.yul\":12925:12933   */\n      dup7\n        /* \"#utility.yul\":12921:12940   */\n      and\n        /* \"#utility.yul\":12914:12919   */\n      dup5\n        /* \"#utility.yul\":12911:12941   */\n      or\n        /* \"#utility.yul\":12901:12941   */\n      swap3\n      pop\n        /* \"#utility.yul\":12630:12947   */\n      pop\n      pop\n        /* \"#utility.yul\":12554:12947   */\n      swap4\n      swap3\n      pop\n      pop\n      pop\n      jump\t// out\n        /* \"#utility.yul\":12953:13013   */\n    tag_185:\n        /* \"#utility.yul\":12981:12984   */\n      0x00\n        /* \"#utility.yul\":13002:13007   */\n      dup2\n        /* \"#utility.yul\":12995:13007   */\n      swap1\n      pop\n        /* \"#utility.yul\":12953:13013   */\n      swap2\n      swap1\n      pop\n      jump\t// out\n        /* \"#utility.yul\":13019:13161   */\n    tag_186:\n        /* \"#utility.yul\":13069:13078   */\n      0x00\n        /* \"#utility.yul\":13102:13155   */\n      tag_345\n        /* \"#utility.yul\":13120:13154   */\n      tag_346\n        /* \"#utility.yul\":13129:13153   */\n      tag_347\n        /* \"#utility.yul\":13147:13152   */\n      dup5\n        /* \"#utility.yul\":13129:13153   */\n      tag_148\n      jump\t// in\n    tag_347:\n        /* \"#utility.yul\":13120:13154   */\n      tag_185\n      jump\t// in\n    tag_346:\n        /* \"#utility.yul\":13102:13155   */\n      tag_148\n      jump\t// in\n    tag_345:\n        /* \"#utility.yul\":13089:13155   */\n      swap1\n      pop\n        /* \"#utility.yul\":13019:13161   */\n      swap2\n      swap1\n      pop\n      jump\t// out\n        /* \"#utility.yul\":13167:13242   */\n    tag_187:\n        /* \"#utility.yul\":13210:13213   */\n      0x00\n        /* \"#utility.yul\":13231:13236   */\n      dup2\n        /* \"#utility.yul\":13224:13236   */\n      swap1\n      pop\n        /* \"#utility.yul\":13167:13242   */\n      swap2\n      swap1\n      pop\n      jump\t// out\n        /* \"#utility.yul\":13248:13517   */\n    tag_188:\n        /* \"#utility.yul\":13358:13397   */\n      tag_350\n        /* \"#utility.yul\":13389:13396   */\n      dup4\n        /* \"#utility.yul\":13358:13397   */\n      tag_186\n      jump\t// in\n    tag_350:\n        /* \"#utility.yul\":13419:13510   */\n      tag_351\n        /* \"#utility.yul\":13468:13509   */\n      tag_352\n        /* \"#utility.yul\":13492:13508   */\n      dup3\n        /* \"#utility.yul\":13468:13509   */\n      tag_187\n      jump\t// in\n    tag_352:\n        /* \"#utility.yul\":13460:13466   */\n      dup5\n        /* \"#utility.yul\":13453:13457   */\n      dup5\n        /* \"#utility.yul\":13447:13458   */\n      sload\n        /* \"#utility.yul\":13419:13510   */\n      tag_184\n      jump\t// in\n    tag_351:\n        /* \"#utility.yul\":13413:13417   */\n      dup3\n        /* \"#utility.yul\":13406:13511   */\n      sstore\n        /* \"#utility.yul\":13324:13517   */\n      pop\n        /* \"#utility.yul\":13248:13517   */\n      pop\n      pop\n      pop\n      jump\t// out\n        /* \"#utility.yul\":13523:13596   */\n    tag_189:\n        /* \"#utility.yul\":13568:13571   */\n      0x00\n        /* \"#utility.yul\":13523:13596   */\n      swap1\n      jump\t// out\n        /* \"#utility.yul\":13602:13791   */\n    tag_190:\n        /* \"#utility.yul\":13679:13711   */\n      tag_355\n      tag_189\n      jump\t// in\n    tag_355:\n        /* \"#utility.yul\":13720:13785   */\n      tag_356\n        /* \"#utility.yul\":13778:13784   */\n      dup2\n        /* \"#utility.yul\":13770:13776   */\n      dup5\n        /* \"#utility.yul\":13764:13768   */\n      dup5\n        /* \"#utility.yul\":13720:13785   */\n      tag_188\n      jump\t// in\n    tag_356:\n        /* \"#utility.yul\":13655:13791   */\n      pop\n        /* \"#utility.yul\":13602:13791   */\n      pop\n      pop\n      jump\t// out\n        /* \"#utility.yul\":13797:13983   */\n    tag_191:\n        /* \"#utility.yul\":13857:13977   */\n    tag_358:\n        /* \"#utility.yul\":13874:13877   */\n      dup2\n        /* \"#utility.yul\":13867:13872   */\n      dup2\n        /* \"#utility.yul\":13864:13878   */\n      lt\n        /* \"#utility.yul\":13857:13977   */\n      iszero\n      tag_360\n      jumpi\n        /* \"#utility.yul\":13928:13967   */\n      tag_361\n        /* \"#utility.yul\":13965:13966   */\n      0x00\n        /* \"#utility.yul\":13958:13963   */\n      dup3\n        /* \"#utility.yul\":13928:13967   */\n      tag_190\n      jump\t// in\n    tag_361:\n        /* \"#utility.yul\":13901:13902   */\n      0x01\n        /* \"#utility.yul\":13894:13899   */\n      dup2\n        /* \"#utility.yul\":13890:13903   */\n      add\n        /* \"#utility.yul\":13881:13903   */\n      swap1\n      pop\n        /* \"#utility.yul\":13857:13977   */\n      jump(tag_358)\n    tag_360:\n        /* \"#utility.yul\":13797:13983   */\n      pop\n      pop\n      jump\t// out\n        /* \"#utility.yul\":13989:14532   */\n    tag_192:\n        /* \"#utility.yul\":14090:14092   */\n      0x1f\n        /* \"#utility.yul\":14085:14088   */\n      dup3\n        /* \"#utility.yul\":14082:14093   */\n      gt\n        /* \"#utility.yul\":14079:14525   */\n      iszero\n      tag_363\n      jumpi\n        /* \"#utility.yul\":14124:14162   */\n      tag_364\n        /* \"#utility.yul\":14156:14161   */\n      dup2\n        /* \"#utility.yul\":14124:14162   */\n      tag_181\n      jump\t// in\n    tag_364:\n        /* \"#utility.yul\":14208:14237   */\n      tag_365\n        /* \"#utility.yul\":14226:14236   */\n      dup5\n        /* \"#utility.yul\":14208:14237   */\n      tag_182\n      jump\t// in\n    tag_365:\n        /* \"#utility.yul\":14198:14206   */\n      dup2\n        /* \"#utility.yul\":14194:14238   */\n      add\n        /* \"#utility.yul\":14391:14393   */\n      0x20\n        /* \"#utility.yul\":14379:14389   */\n      dup6\n        /* \"#utility.yul\":14376:14394   */\n      lt\n        /* \"#utility.yul\":14373:14422   */\n      iszero\n      tag_366\n      jumpi\n        /* \"#utility.yul\":14412:14420   */\n      dup2\n        /* \"#utility.yul\":14397:14420   */\n      swap1\n      pop\n        /* \"#utility.yul\":14373:14422   */\n    tag_366:\n        /* \"#utility.yul\":14435:14515   */\n      tag_367\n        /* \"#utility.yul\":14491:14513   */\n      tag_368\n        /* \"#utility.yul\":14509:14512   */\n      dup6\n        /* \"#utility.yul\":14491:14513   */\n      tag_182\n      jump\t// in\n    tag_368:\n        /* \"#utility.yul\":14481:14489   */\n      dup4\n        /* \"#utility.yul\":14477:14514   */\n      add\n        /* \"#utility.yul\":14464:14475   */\n      dup3\n        /* \"#utility.yul\":14435:14515   */\n      tag_191\n      jump\t// in\n    tag_367:\n        /* \"#utility.yul\":14094:14525   */\n      pop\n      pop\n        /* \"#utility.yul\":14079:14525   */\n    tag_363:\n        /* \"#utility.yul\":13989:14532   */\n      pop\n      pop\n      pop\n      jump\t// out\n        /* \"#utility.yul\":14538:14655   */\n    tag_193:\n        /* \"#utility.yul\":14592:14600   */\n      0x00\n        /* \"#utility.yul\":14642:14647   */\n      dup3\n        /* \"#utility.yul\":14636:14640   */\n      dup3\n        /* \"#utility.yul\":14632:14648   */\n      shr\n        /* \"#utility.yul\":14611:14648   */\n      swap1\n      pop\n        /* \"#utility.yul\":14538:14655   */\n      swap3\n      swap2\n      pop\n      pop\n      jump\t// out\n        /* \"#utility.yul\":14661:14830   */\n    tag_194:\n        /* \"#utility.yul\":14705:14711   */\n      0x00\n        /* \"#utility.yul\":14738:14789   */\n      tag_371\n        /* \"#utility.yul\":14786:14787   */\n      0x00\n        /* \"#utility.yul\":14782:14788   */\n      not\n        /* \"#utility.yul\":14774:14779   */\n      dup5\n        /* \"#utility.yul\":14771:14772   */\n      0x08\n        /* \"#utility.yul\":14767:14780   */\n      mul\n        /* \"#utility.yul\":14738:14789   */\n      tag_193\n      jump\t// in\n    tag_371:\n        /* \"#utility.yul\":14734:14790   */\n      not\n        /* \"#utility.yul\":14819:14823   */\n      dup1\n        /* \"#utility.yul\":14813:14817   */\n      dup4\n        /* \"#utility.yul\":14809:14824   */\n      and\n        /* \"#utility.yul\":14799:14824   */\n      swap2\n      pop\n        /* \"#utility.yul\":14712:14830   */\n      pop\n        /* \"#utility.yul\":14661:14830   */\n      swap3\n      swap2\n      pop\n      pop\n      jump\t// out\n        /* \"#utility.yul\":14835:15130   */\n    tag_195:\n        /* \"#utility.yul\":14911:14915   */\n      0x00\n        /* \"#utility.yul\":15057:15086   */\n      tag_373\n        /* \"#utility.yul\":15082:15085   */\n      dup4\n        /* \"#utility.yul\":15076:15080   */\n      dup4\n        /* \"#utility.yul\":15057:15086   */\n      tag_194\n      jump\t// in\n    tag_373:\n        /* \"#utility.yul\":15049:15086   */\n      swap2\n      pop\n        /* \"#utility.yul\":15119:15122   */\n      dup3\n        /* \"#utility.yul\":15116:15117   */\n      0x02\n        /* \"#utility.yul\":15112:15123   */\n      mul\n        /* \"#utility.yul\":15106:15110   */\n      dup3\n        /* \"#utility.yul\":15103:15124   */\n      or\n        /* \"#utility.yul\":15095:15124   */\n      swap1\n      pop\n        /* \"#utility.yul\":14835:15130   */\n      swap3\n      swap2\n      pop\n      pop\n      jump\t// out\n        /* \"#utility.yul\":15135:16530   */\n    tag_104:\n        /* \"#utility.yul\":15252:15289   */\n      tag_375\n        /* \"#utility.yul\":15285:15288   */\n      dup3\n        /* \"#utility.yul\":15252:15289   */\n      tag_166\n      jump\t// in\n    tag_375:\n        /* \"#utility.yul\":15354:15372   */\n      0xffffffffffffffff\n        /* \"#utility.yul\":15346:15352   */\n      dup2\n        /* \"#utility.yul\":15343:15373   */\n      gt\n        /* \"#utility.yul\":15340:15396   */\n      iszero\n      tag_376\n      jumpi\n        /* \"#utility.yul\":15376:15394   */\n      tag_377\n      tag_153\n      jump\t// in\n    tag_377:\n        /* \"#utility.yul\":15340:15396   */\n    tag_376:\n        /* \"#utility.yul\":15420:15458   */\n      tag_378\n        /* \"#utility.yul\":15452:15456   */\n      dup3\n        /* \"#utility.yul\":15446:15457   */\n      sload\n        /* \"#utility.yul\":15420:15458   */\n      tag_115\n      jump\t// in\n    tag_378:\n        /* \"#utility.yul\":15505:15572   */\n      tag_379\n        /* \"#utility.yul\":15565:15571   */\n      dup3\n        /* \"#utility.yul\":15557:15563   */\n      dup3\n        /* \"#utility.yul\":15551:15555   */\n      dup6\n        /* \"#utility.yul\":15505:15572   */\n      tag_192\n      jump\t// in\n    tag_379:\n        /* \"#utility.yul\":15599:15600   */\n      0x00\n        /* \"#utility.yul\":15623:15627   */\n      0x20\n        /* \"#utility.yul\":15610:15627   */\n      swap1\n      pop\n        /* \"#utility.yul\":15655:15657   */\n      0x1f\n        /* \"#utility.yul\":15647:15653   */\n      dup4\n        /* \"#utility.yul\":15644:15658   */\n      gt\n        /* \"#utility.yul\":15672:15673   */\n      0x01\n        /* \"#utility.yul\":15667:16285   */\n      dup2\n      eq\n      tag_381\n      jumpi\n        /* \"#utility.yul\":16329:16330   */\n      0x00\n        /* \"#utility.yul\":16346:16352   */\n      dup5\n        /* \"#utility.yul\":16343:16420   */\n      iszero\n      tag_382\n      jumpi\n        /* \"#utility.yul\":16395:16404   */\n      dup3\n        /* \"#utility.yul\":16390:16393   */\n      dup8\n        /* \"#utility.yul\":16386:16405   */\n      add\n        /* \"#utility.yul\":16380:16406   */\n      mload\n        /* \"#utility.yul\":16371:16406   */\n      swap1\n      pop\n        /* \"#utility.yul\":16343:16420   */\n    tag_382:\n        /* \"#utility.yul\":16446:16513   */\n      tag_383\n        /* \"#utility.yul\":16506:16512   */\n      dup6\n        /* \"#utility.yul\":16499:16504   */\n      dup3\n        /* \"#utility.yul\":16446:16513   */\n      tag_195\n      jump\t// in\n    tag_383:\n        /* \"#utility.yul\":16440:16444   */\n      dup7\n        /* \"#utility.yul\":16433:16514   */\n      sstore\n        /* \"#utility.yul\":16302:16524   */\n      pop\n        /* \"#utility.yul\":15637:16524   */\n      jump(tag_380)\n        /* \"#utility.yul\":15667:16285   */\n    tag_381:\n        /* \"#utility.yul\":15719:15723   */\n      0x1f\n        /* \"#utility.yul\":15715:15724   */\n      not\n        /* \"#utility.yul\":15707:15713   */\n      dup5\n        /* \"#utility.yul\":15703:15725   */\n      and\n        /* \"#utility.yul\":15753:15790   */\n      tag_384\n        /* \"#utility.yul\":15785:15789   */\n      dup7\n        /* \"#utility.yul\":15753:15790   */\n      tag_181\n      jump\t// in\n    tag_384:\n        /* \"#utility.yul\":15812:15813   */\n      0x00\n        /* \"#utility.yul\":15826:16034   */\n    tag_385:\n        /* \"#utility.yul\":15840:15847   */\n      dup3\n        /* \"#utility.yul\":15837:15838   */\n      dup2\n        /* \"#utility.yul\":15834:15848   */\n      lt\n        /* \"#utility.yul\":15826:16034   */\n      iszero\n      tag_387\n      jumpi\n        /* \"#utility.yul\":15919:15928   */\n      dup5\n        /* \"#utility.yul\":15914:15917   */\n      dup10\n        /* \"#utility.yul\":15910:15929   */\n      add\n        /* \"#utility.yul\":15904:15930   */\n      mload\n        /* \"#utility.yul\":15896:15902   */\n      dup3\n        /* \"#utility.yul\":15889:15931   */\n      sstore\n        /* \"#utility.yul\":15970:15971   */\n      0x01\n        /* \"#utility.yul\":15962:15968   */\n      dup3\n        /* \"#utility.yul\":15958:15972   */\n      add\n        /* \"#utility.yul\":15948:15972   */\n      swap2\n      pop\n        /* \"#utility.yul\":16017:16019   */\n      0x20\n        /* \"#utility.yul\":16006:16015   */\n      dup6\n        /* \"#utility.yul\":16002:16020   */\n      add\n        /* \"#utility.yul\":15989:16020   */\n      swap5\n      pop\n        /* \"#utility.yul\":15863:15867   */\n      0x20\n        /* \"#utility.yul\":15860:15861   */\n      dup2\n        /* \"#utility.yul\":15856:15868   */\n      add\n        /* \"#utility.yul\":15851:15868   */\n      swap1\n      pop\n        /* \"#utility.yul\":15826:16034   */\n      jump(tag_385)\n    tag_387:\n        /* \"#utility.yul\":16062:16068   */\n      dup7\n        /* \"#utility.yul\":16053:16060   */\n      dup4\n        /* \"#utility.yul\":16050:16069   */\n      lt\n        /* \"#utility.yul\":16047:16226   */\n      iszero\n      tag_388\n      jumpi\n        /* \"#utility.yul\":16120:16129   */\n      dup5\n        /* \"#utility.yul\":16115:16118   */\n      dup10\n        /* \"#utility.yul\":16111:16130   */\n      add\n        /* \"#utility.yul\":16105:16131   */\n      mload\n        /* \"#utility.yul\":16163:16211   */\n      tag_389\n        /* \"#utility.yul\":16205:16209   */\n      0x1f\n        /* \"#utility.yul\":16197:16203   */\n      dup10\n        /* \"#utility.yul\":16193:16210   */\n      and\n        /* \"#utility.yul\":16182:16191   */\n      dup3\n        /* \"#utility.yul\":16163:16211   */\n      tag_194\n      jump\t// in\n    tag_389:\n        /* \"#utility.yul\":16155:16161   */\n      dup4\n        /* \"#utility.yul\":16148:16212   */\n      sstore\n        /* \"#utility.yul\":16070:16226   */\n      pop\n        /* \"#utility.yul\":16047:16226   */\n    tag_388:\n        /* \"#utility.yul\":16272:16273   */\n      0x01\n        /* \"#utility.yul\":16268:16269   */\n      0x02\n        /* \"#utility.yul\":16260:16266   */\n      dup9\n        /* \"#utility.yul\":16256:16270   */\n      mul\n        /* \"#utility.yul\":16252:16274   */\n      add\n        /* \"#utility.yul\":16246:16250   */\n      dup9\n        /* \"#utility.yul\":16239:16275   */\n      sstore\n        /* \"#utility.yul\":15674:16285   */\n      pop\n      pop\n      pop\n        /* \"#utility.yul\":15637:16524   */\n    tag_380:\n      pop\n        /* \"#utility.yul\":15227:16530   */\n      pop\n      pop\n      pop\n        /* \"#utility.yul\":15135:16530   */\n      pop\n      pop\n      jump\t// out\n        /* \"#utility.yul\":16536:16718   */\n    tag_196:\n        /* \"#utility.yul\":16676:16710   */\n      0x20596f7520617265206e6f7420656c696769626c6520666f7220726566756e64\n        /* \"#utility.yul\":16672:16673   */\n      0x00\n        /* \"#utility.yul\":16664:16670   */\n      dup3\n        /* \"#utility.yul\":16660:16674   */\n      add\n        /* \"#utility.yul\":16653:16711   */\n      mstore\n        /* \"#utility.yul\":16536:16718   */\n      pop\n      jump\t// out\n        /* \"#utility.yul\":16724:17090   */\n    tag_197:\n        /* \"#utility.yul\":16866:16869   */\n      0x00\n        /* \"#utility.yul\":16887:16954   */\n      tag_392\n        /* \"#utility.yul\":16951:16953   */\n      0x20\n        /* \"#utility.yul\":16946:16949   */\n      dup4\n        /* \"#utility.yul\":16887:16954   */\n      tag_167\n      jump\t// in\n    tag_392:\n        /* \"#utility.yul\":16880:16954   */\n      swap2\n      pop\n        /* \"#utility.yul\":16963:17056   */\n      tag_393\n        /* \"#utility.yul\":17052:17055   */\n      dup3\n        /* \"#utility.yul\":16963:17056   */\n      tag_196\n      jump\t// in\n    tag_393:\n        /* \"#utility.yul\":17081:17083   */\n      0x20\n        /* \"#utility.yul\":17076:17079   */\n      dup3\n        /* \"#utility.yul\":17072:17084   */\n      add\n        /* \"#utility.yul\":17065:17084   */\n      swap1\n      pop\n        /* \"#utility.yul\":16724:17090   */\n      swap2\n      swap1\n      pop\n      jump\t// out\n        /* \"#utility.yul\":17096:17515   */\n    tag_109:\n        /* \"#utility.yul\":17262:17266   */\n      0x00\n        /* \"#utility.yul\":17300:17302   */\n      0x20\n        /* \"#utility.yul\":17289:17298   */\n      dup3\n        /* \"#utility.yul\":17285:17303   */\n      add\n        /* \"#utility.yul\":17277:17303   */\n      swap1\n      pop\n        /* \"#utility.yul\":17349:17358   */\n      dup2\n        /* \"#utility.yul\":17343:17347   */\n      dup2\n        /* \"#utility.yul\":17339:17359   */\n      sub\n        /* \"#utility.yul\":17335:17336   */\n      0x00\n        /* \"#utility.yul\":17324:17333   */\n      dup4\n        /* \"#utility.yul\":17320:17337   */\n      add\n        /* \"#utility.yul\":17313:17360   */\n      mstore\n        /* \"#utility.yul\":17377:17508   */\n      tag_395\n        /* \"#utility.yul\":17503:17507   */\n      dup2\n        /* \"#utility.yul\":17377:17508   */\n      tag_197\n      jump\t// in\n    tag_395:\n        /* \"#utility.yul\":17369:17508   */\n      swap1\n      pop\n        /* \"#utility.yul\":17096:17515   */\n      swap2\n      swap1\n      pop\n      jump\t// out\n        /* \"#utility.yul\":17521:17696   */\n    tag_198:\n        /* \"#utility.yul\":17661:17688   */\n      0x796f75206d757374206265206120636f6e7472696275746f7200000000000000\n        /* \"#utility.yul\":17657:17658   */\n      0x00\n        /* \"#utility.yul\":17649:17655   */\n      dup3\n        /* \"#utility.yul\":17645:17659   */\n      add\n        /* \"#utility.yul\":17638:17689   */\n      mstore\n        /* \"#utility.yul\":17521:17696   */\n      pop\n      jump\t// out\n        /* \"#utility.yul\":17702:18068   */\n    tag_199:\n        /* \"#utility.yul\":17844:17847   */\n      0x00\n        /* \"#utility.yul\":17865:17932   */\n      tag_398\n        /* \"#utility.yul\":17929:17931   */\n      0x19\n        /* \"#utility.yul\":17924:17927   */\n      dup4\n        /* \"#utility.yul\":17865:17932   */\n      tag_167\n      jump\t// in\n    tag_398:\n        /* \"#utility.yul\":17858:17932   */\n      swap2\n      pop\n        /* \"#utility.yul\":17941:18034   */\n      tag_399\n        /* \"#utility.yul\":18030:18033   */\n      dup3\n        /* \"#utility.yul\":17941:18034   */\n      tag_198\n      jump\t// in\n    tag_399:\n        /* \"#utility.yul\":18059:18061   */\n      0x20\n        /* \"#utility.yul\":18054:18057   */\n      dup3\n        /* \"#utility.yul\":18050:18062   */\n      add\n        /* \"#utility.yul\":18043:18062   */\n      swap1\n      pop\n        /* \"#utility.yul\":17702:18068   */\n      swap2\n      swap1\n      pop\n      jump\t// out\n        /* \"#utility.yul\":18074:18493   */\n    tag_123:\n        /* \"#utility.yul\":18240:18244   */\n      0x00\n        /* \"#utility.yul\":18278:18280   */\n      0x20\n        /* \"#utility.yul\":18267:18276   */\n      dup3\n        /* \"#utility.yul\":18263:18281   */\n      add\n        /* \"#utility.yul\":18255:18281   */\n      swap1\n      pop\n        /* \"#utility.yul\":18327:18336   */\n      dup2\n        /* \"#utility.yul\":18321:18325   */\n      dup2\n        /* \"#utility.yul\":18317:18337   */\n      sub\n        /* \"#utility.yul\":18313:18314   */\n      0x00\n        /* \"#utility.yul\":18302:18311   */\n      dup4\n        /* \"#utility.yul\":18298:18315   */\n      add\n        /* \"#utility.yul\":18291:18338   */\n      mstore\n        /* \"#utility.yul\":18355:18486   */\n      tag_401\n        /* \"#utility.yul\":18481:18485   */\n      dup2\n        /* \"#utility.yul\":18355:18486   */\n      tag_199\n      jump\t// in\n    tag_401:\n        /* \"#utility.yul\":18347:18486   */\n      swap1\n      pop\n        /* \"#utility.yul\":18074:18493   */\n      swap2\n      swap1\n      pop\n      jump\t// out\n        /* \"#utility.yul\":18499:18673   */\n    tag_200:\n        /* \"#utility.yul\":18639:18665   */\n      0x796f75206861766520616c6c726561647920766f746564200000000000000000\n        /* \"#utility.yul\":18635:18636   */\n      0x00\n        /* \"#utility.yul\":18627:18633   */\n      dup3\n        /* \"#utility.yul\":18623:18637   */\n      add\n        /* \"#utility.yul\":18616:18666   */\n      mstore\n        /* \"#utility.yul\":18499:18673   */\n      pop\n      jump\t// out\n        /* \"#utility.yul\":18679:19045   */\n    tag_201:\n        /* \"#utility.yul\":18821:18824   */\n      0x00\n        /* \"#utility.yul\":18842:18909   */\n      tag_404\n        /* \"#utility.yul\":18906:18908   */\n      0x18\n        /* \"#utility.yul\":18901:18904   */\n      dup4\n        /* \"#utility.yul\":18842:18909   */\n      tag_167\n      jump\t// in\n    tag_404:\n        /* \"#utility.yul\":18835:18909   */\n      swap2\n      pop\n        /* \"#utility.yul\":18918:19011   */\n      tag_405\n        /* \"#utility.yul\":19007:19010   */\n      dup3\n        /* \"#utility.yul\":18918:19011   */\n      tag_200\n      jump\t// in\n    tag_405:\n        /* \"#utility.yul\":19036:19038   */\n      0x20\n        /* \"#utility.yul\":19031:19034   */\n      dup3\n        /* \"#utility.yul\":19027:19039   */\n      add\n        /* \"#utility.yul\":19020:19039   */\n      swap1\n      pop\n        /* \"#utility.yul\":18679:19045   */\n      swap2\n      swap1\n      pop\n      jump\t// out\n        /* \"#utility.yul\":19051:19470   */\n    tag_126:\n        /* \"#utility.yul\":19217:19221   */\n      0x00\n        /* \"#utility.yul\":19255:19257   */\n      0x20\n        /* \"#utility.yul\":19244:19253   */\n      dup3\n        /* \"#utility.yul\":19240:19258   */\n      add\n        /* \"#utility.yul\":19232:19258   */\n      swap1\n      pop\n        /* \"#utility.yul\":19304:19313   */\n      dup2\n        /* \"#utility.yul\":19298:19302   */\n      dup2\n        /* \"#utility.yul\":19294:19314   */\n      sub\n        /* \"#utility.yul\":19290:19291   */\n      0x00\n        /* \"#utility.yul\":19279:19288   */\n      dup4\n        /* \"#utility.yul\":19275:19292   */\n      add\n        /* \"#utility.yul\":19268:19315   */\n      mstore\n        /* \"#utility.yul\":19332:19463   */\n      tag_407\n        /* \"#utility.yul\":19458:19462   */\n      dup2\n        /* \"#utility.yul\":19332:19463   */\n      tag_201\n      jump\t// in\n    tag_407:\n        /* \"#utility.yul\":19324:19463   */\n      swap1\n      pop\n        /* \"#utility.yul\":19051:19470   */\n      swap2\n      swap1\n      pop\n      jump\t// out\n        /* \"#utility.yul\":19476:19656   */\n    tag_202:\n        /* \"#utility.yul\":19616:19648   */\n      0x546865207265717565737420686173206265656e20636f6d706c657465640000\n        /* \"#utility.yul\":19612:19613   */\n      0x00\n        /* \"#utility.yul\":19604:19610   */\n      dup3\n        /* \"#utility.yul\":19600:19614   */\n      add\n        /* \"#utility.yul\":19593:19649   */\n      mstore\n        /* \"#utility.yul\":19476:19656   */\n      pop\n      jump\t// out\n        /* \"#utility.yul\":19662:20028   */\n    tag_203:\n        /* \"#utility.yul\":19804:19807   */\n      0x00\n        /* \"#utility.yul\":19825:19892   */\n      tag_410\n        /* \"#utility.yul\":19889:19891   */\n      0x1e\n        /* \"#utility.yul\":19884:19887   */\n      dup4\n        /* \"#utility.yul\":19825:19892   */\n      tag_167\n      jump\t// in\n    tag_410:\n        /* \"#utility.yul\":19818:19892   */\n      swap2\n      pop\n        /* \"#utility.yul\":19901:19994   */\n      tag_411\n        /* \"#utility.yul\":19990:19993   */\n      dup3\n        /* \"#utility.yul\":19901:19994   */\n      tag_202\n      jump\t// in\n    tag_411:\n        /* \"#utility.yul\":20019:20021   */\n      0x20\n        /* \"#utility.yul\":20014:20017   */\n      dup3\n        /* \"#utility.yul\":20010:20022   */\n      add\n        /* \"#utility.yul\":20003:20022   */\n      swap1\n      pop\n        /* \"#utility.yul\":19662:20028   */\n      swap2\n      swap1\n      pop\n      jump\t// out\n        /* \"#utility.yul\":20034:20453   */\n    tag_133:\n        /* \"#utility.yul\":20200:20204   */\n      0x00\n        /* \"#utility.yul\":20238:20240   */\n      0x20\n        /* \"#utility.yul\":20227:20236   */\n      dup3\n        /* \"#utility.yul\":20223:20241   */\n      add\n        /* \"#utility.yul\":20215:20241   */\n      swap1\n      pop\n        /* \"#utility.yul\":20287:20296   */\n      dup2\n        /* \"#utility.yul\":20281:20285   */\n      dup2\n        /* \"#utility.yul\":20277:20297   */\n      sub\n        /* \"#utility.yul\":20273:20274   */\n      0x00\n        /* \"#utility.yul\":20262:20271   */\n      dup4\n        /* \"#utility.yul\":20258:20275   */\n      add\n        /* \"#utility.yul\":20251:20298   */\n      mstore\n        /* \"#utility.yul\":20315:20446   */\n      tag_413\n        /* \"#utility.yul\":20441:20445   */\n      dup2\n        /* \"#utility.yul\":20315:20446   */\n      tag_203\n      jump\t// in\n    tag_413:\n        /* \"#utility.yul\":20307:20446   */\n      swap1\n      pop\n        /* \"#utility.yul\":20034:20453   */\n      swap2\n      swap1\n      pop\n      jump\t// out\n        /* \"#utility.yul\":20459:20639   */\n    tag_204:\n        /* \"#utility.yul\":20507:20584   */\n      0x4e487b7100000000000000000000000000000000000000000000000000000000\n        /* \"#utility.yul\":20504:20505   */\n      0x00\n        /* \"#utility.yul\":20497:20585   */\n      mstore\n        /* \"#utility.yul\":20604:20608   */\n      0x12\n        /* \"#utility.yul\":20601:20602   */\n      0x04\n        /* \"#utility.yul\":20594:20609   */\n      mstore\n        /* \"#utility.yul\":20628:20632   */\n      0x24\n        /* \"#utility.yul\":20625:20626   */\n      0x00\n        /* \"#utility.yul\":20618:20633   */\n      revert\n        /* \"#utility.yul\":20645:20830   */\n    tag_135:\n        /* \"#utility.yul\":20685:20686   */\n      0x00\n        /* \"#utility.yul\":20702:20722   */\n      tag_416\n        /* \"#utility.yul\":20720:20721   */\n      dup3\n        /* \"#utility.yul\":20702:20722   */\n      tag_148\n      jump\t// in\n    tag_416:\n        /* \"#utility.yul\":20697:20722   */\n      swap2\n      pop\n        /* \"#utility.yul\":20736:20756   */\n      tag_417\n        /* \"#utility.yul\":20754:20755   */\n      dup4\n        /* \"#utility.yul\":20736:20756   */\n      tag_148\n      jump\t// in\n    tag_417:\n        /* \"#utility.yul\":20731:20756   */\n      swap3\n      pop\n        /* \"#utility.yul\":20775:20776   */\n      dup3\n        /* \"#utility.yul\":20765:20800   */\n      tag_418\n      jumpi\n        /* \"#utility.yul\":20780:20798   */\n      tag_419\n      tag_204\n      jump\t// in\n    tag_419:\n        /* \"#utility.yul\":20765:20800   */\n    tag_418:\n        /* \"#utility.yul\":20822:20823   */\n      dup3\n        /* \"#utility.yul\":20819:20820   */\n      dup3\n        /* \"#utility.yul\":20815:20824   */\n      div\n        /* \"#utility.yul\":20810:20824   */\n      swap1\n      pop\n        /* \"#utility.yul\":20645:20830   */\n      swap3\n      swap2\n      pop\n      pop\n      jump\t// out\n        /* \"#utility.yul\":20836:21011   */\n    tag_205:\n        /* \"#utility.yul\":20976:21003   */\n      0x4d616a6f7269747920646f6573206e6f7420737570706f727400000000000000\n        /* \"#utility.yul\":20972:20973   */\n      0x00\n        /* \"#utility.yul\":20964:20970   */\n      dup3\n        /* \"#utility.yul\":20960:20974   */\n      add\n        /* \"#utility.yul\":20953:21004   */\n      mstore\n        /* \"#utility.yul\":20836:21011   */\n      pop\n      jump\t// out\n        /* \"#utility.yul\":21017:21383   */\n    tag_206:\n        /* \"#utility.yul\":21159:21162   */\n      0x00\n        /* \"#utility.yul\":21180:21247   */\n      tag_422\n        /* \"#utility.yul\":21244:21246   */\n      0x19\n        /* \"#utility.yul\":21239:21242   */\n      dup4\n        /* \"#utility.yul\":21180:21247   */\n      tag_167\n      jump\t// in\n    tag_422:\n        /* \"#utility.yul\":21173:21247   */\n      swap2\n      pop\n        /* \"#utility.yul\":21256:21349   */\n      tag_423\n        /* \"#utility.yul\":21345:21348   */\n      dup3\n        /* \"#utility.yul\":21256:21349   */\n      tag_205\n      jump\t// in\n    tag_423:\n        /* \"#utility.yul\":21374:21376   */\n      0x20\n        /* \"#utility.yul\":21369:21372   */\n      dup3\n        /* \"#utility.yul\":21365:21377   */\n      add\n        /* \"#utility.yul\":21358:21377   */\n      swap1\n      pop\n        /* \"#utility.yul\":21017:21383   */\n      swap2\n      swap1\n      pop\n      jump\t// out\n        /* \"#utility.yul\":21389:21808   */\n    tag_138:\n        /* \"#utility.yul\":21555:21559   */\n      0x00\n        /* \"#utility.yul\":21593:21595   */\n      0x20\n        /* \"#utility.yul\":21582:21591   */\n      dup3\n        /* \"#utility.yul\":21578:21596   */\n      add\n        /* \"#utility.yul\":21570:21596   */\n      swap1\n      pop\n        /* \"#utility.yul\":21642:21651   */\n      dup2\n        /* \"#utility.yul\":21636:21640   */\n      dup2\n        /* \"#utility.yul\":21632:21652   */\n      sub\n        /* \"#utility.yul\":21628:21629   */\n      0x00\n        /* \"#utility.yul\":21617:21626   */\n      dup4\n        /* \"#utility.yul\":21613:21630   */\n      add\n        /* \"#utility.yul\":21606:21653   */\n      mstore\n        /* \"#utility.yul\":21670:21801   */\n      tag_425\n        /* \"#utility.yul\":21796:21800   */\n      dup2\n        /* \"#utility.yul\":21670:21801   */\n      tag_206\n      jump\t// in\n    tag_425:\n        /* \"#utility.yul\":21662:21801   */\n      swap1\n      pop\n        /* \"#utility.yul\":21389:21808   */\n      swap2\n      swap1\n      pop\n      jump\t// out\n\n    auxdata: 0xa26469706673582212200346fc2715a0fa405664e21b8ce342d47436b7ec080a447d86b89957ddef4e7664736f6c63430008110033\n}\n",
				"bytecode": {
					"linkReferences": {},
					"object": "60806040523480156200001157600080fd5b50604051620019b8380380620019b88339818101604052810190620000379190620000e4565b8160048190555080426200004c91906200015a565b6003819055506103e860028190555033600160006101000a81548173ffffffffffffffffffffffffffffffffffffffff021916908373ffffffffffffffffffffffffffffffffffffffff160217905550505062000195565b600080fd5b6000819050919050565b620000be81620000a9565b8114620000ca57600080fd5b50565b600081519050620000de81620000b3565b92915050565b60008060408385031215620000fe57620000fd620000a4565b5b60006200010e85828601620000cd565b92505060206200012185828601620000cd565b9150509250929050565b7f4e487b7100000000000000000000000000000000000000000000000000000000600052601160045260246000fd5b60006200016782620000a9565b91506200017483620000a9565b92508282019050808211156200018f576200018e6200012b565b5b92915050565b61181380620001a56000396000f3fe6080604052600436106100e85760003560e01c80635c4627e91161008a578063c59ee1dc11610059578063c59ee1dc146102b5578063cbaf8671146102e0578063d4b8399214610309578063fe7c1b8a14610334576100e8565b80635c4627e9146101f5578063626b4b2c1461022057806381d12c581461024b578063967c67ce1461028c576100e8565b806330817529116100c6578063308175291461015f578063481c6a75146101885780634e260f6f146101b3578063590e1ae3146101de576100e8565b806306e99fef146100ed5780631f6d4942146100f757806329dcb0cf14610134575b600080fd5b6100f561035f565b005b34801561010357600080fd5b5061011e60048036038101906101199190610c94565b6104b7565b60405161012b9190610cda565b60405180910390f35b34801561014057600080fd5b506101496104cf565b6040516101569190610cda565b60405180910390f35b34801561016b57600080fd5b5061018660048036038101906101819190610ea5565b6104d5565b005b34801561019457600080fd5b5061019d610621565b6040516101aa9190610f23565b60405180910390f35b3480156101bf57600080fd5b506101c8610647565b6040516101d59190610cda565b60405180910390f35b3480156101ea57600080fd5b506101f361064d565b005b34801561020157600080fd5b5061020a6107bc565b6040516102179190610cda565b60405180910390f35b34801561022c57600080fd5b506102356107c2565b6040516102429190610cda565b60405180910390f35b34801561025757600080fd5b50610272600480360381019061026d9190610f3e565b6107ca565b604051610283959493929190611014565b60405180910390f35b34801561029857600080fd5b506102b360048036038101906102ae9190610f3e565b6108b5565b005b3480156102c157600080fd5b506102ca610a52565b6040516102d79190610cda565b60405180910390f35b3480156102ec57600080fd5b5061030760048036038101906103029190610f3e565b610a58565b005b34801561031557600080fd5b5061031e610c16565b60405161032b9190610cda565b60405180910390f35b34801561034057600080fd5b50610349610c1c565b6040516103569190610cda565b60405180910390f35b60035442106103a3576040517f08c379a000000000000000000000000000000000000000000000000000000000815260040161039a906110ba565b60405180910390fd5b6002543410156103e8576040517f08c379a00000000000000000000000000000000000000000000000000000000081526004016103df90611126565b60405180910390fd5b60008060003373ffffffffffffffffffffffffffffffffffffffff1673ffffffffffffffffffffffffffffffffffffffff1681526020019081526020016000205403610447576006600081548092919061044190611175565b91905055505b346000803373ffffffffffffffffffffffffffffffffffffffff1673ffffffffffffffffffffffffffffffffffffffff168152602001908152602001600020600082825461049591906111bd565b9250508190555034600560008282546104ae91906111bd565b92505081905550565b60006020528060005260406000206000915090505481565b60035481565b600160009054906101000a900473ffffffffffffffffffffffffffffffffffffffff1673ffffffffffffffffffffffffffffffffffffffff163373ffffffffffffffffffffffffffffffffffffffff1614610565576040517f08c379a000000000000000000000000000000000000000000000000000000000815260040161055c90611263565b60405180910390fd5b600060076000600854815260200190815260200160002090506008600081548092919061059190611175565b9190505550838160000190816105a7919061148f565b50828160010160006101000a81548173ffffffffffffffffffffffffffffffffffffffff021916908373ffffffffffffffffffffffffffffffffffffffff16021790555081816002018190555060008160030160006101000a81548160ff0219169083151502179055506000816004018190555050505050565b600160009054906101000a900473ffffffffffffffffffffffffffffffffffffffff1681565b60065481565b600354421180156106615750600454600554105b6106a0576040517f08c379a0000000000000000000000000000000000000000000000000000000008152600401610697906115ad565b60405180910390fd5b60008060003373ffffffffffffffffffffffffffffffffffffffff1673ffffffffffffffffffffffffffffffffffffffff16815260200190815260200160002054116106eb57600080fd5b60003390508073ffffffffffffffffffffffffffffffffffffffff166108fc6000803373ffffffffffffffffffffffffffffffffffffffff1673ffffffffffffffffffffffffffffffffffffffff168152602001908152602001600020549081150290604051600060405180830381858888f19350505050158015610774573d6000803e3d6000fd5b5060008060003373ffffffffffffffffffffffffffffffffffffffff1673ffffffffffffffffffffffffffffffffffffffff1681526020019081526020016000208190555050565b60025481565b600047905090565b60076020528060005260406000206000915090508060000180546107ed906112b2565b80601f0160208091040260200160405190810160405280929190818152602001828054610819906112b2565b80156108665780601f1061083b57610100808354040283529160200191610866565b820191906000526020600020905b81548152906001019060200180831161084957829003601f168201915b5050505050908060010160009054906101000a900473ffffffffffffffffffffffffffffffffffffffff16908060020154908060030160009054906101000a900460ff16908060040154905085565b60008060003373ffffffffffffffffffffffffffffffffffffffff1673ffffffffffffffffffffffffffffffffffffffff1681526020019081526020016000205411610936576040517f08c379a000000000000000000000000000000000000000000000000000000000815260040161092d90611619565b60405180910390fd5b6000600760008381526020019081526020016000209050600015158160050160003373ffffffffffffffffffffffffffffffffffffffff1673ffffffffffffffffffffffffffffffffffffffff16815260200190815260200160002060009054906101000a900460ff161515146109e2576040517f08c379a00000000000000000000000000000000000000000000000000000000081526004016109d990611685565b60405180910390fd5b600115158160050160003373ffffffffffffffffffffffffffffffffffffffff1673ffffffffffffffffffffffffffffffffffffffff16815260200190815260200160002060009054906101000a90505050806004016000815480929190610a4990611175565b91905055505050565b60055481565b600160009054906101000a900473ffffffffffffffffffffffffffffffffffffffff1673ffffffffffffffffffffffffffffffffffffffff163373ffffffffffffffffffffffffffffffffffffffff1614610ab257600080fd5b6004546005541015610ac357600080fd5b6000600760008381526020019081526020016000209050600015158160030160009054906101000a900460ff16151514610b32576040517f08c379a0000000000000000000000000000000000000000000000000000000008152600401610b29906116f1565b60405180910390fd5b6002600654610b419190611740565b816004015411610b86576040517f08c379a0000000000000000000000000000000000000000000000000000000008152600401610b7d906117bd565b60405180910390fd5b8060010160009054906101000a900473ffffffffffffffffffffffffffffffffffffffff1673ffffffffffffffffffffffffffffffffffffffff166108fc82600201549081150290604051600060405180830381858888f19350505050158015610bf4573d6000803e3d6000fd5b5060018160030160006101000a81548160ff0219169083151502179055505050565b60045481565b60085481565b6000604051905090565b600080fd5b600080fd5b600073ffffffffffffffffffffffffffffffffffffffff82169050919050565b6000610c6182610c36565b9050919050565b610c7181610c56565b8114610c7c57600080fd5b50565b600081359050610c8e81610c68565b92915050565b600060208284031215610caa57610ca9610c2c565b5b6000610cb884828501610c7f565b91505092915050565b6000819050919050565b610cd481610cc1565b82525050565b6000602082019050610cef6000830184610ccb565b92915050565b600080fd5b600080fd5b6000601f19601f8301169050919050565b7f4e487b7100000000000000000000000000000000000000000000000000000000600052604160045260246000fd5b610d4882610cff565b810181811067ffffffffffffffff82111715610d6757610d66610d10565b5b80604052505050565b6000610d7a610c22565b9050610d868282610d3f565b919050565b600067ffffffffffffffff821115610da657610da5610d10565b5b610daf82610cff565b9050602081019050919050565b82818337600083830152505050565b6000610dde610dd984610d8b565b610d70565b905082815260208101848484011115610dfa57610df9610cfa565b5b610e05848285610dbc565b509392505050565b600082601f830112610e2257610e21610cf5565b5b8135610e32848260208601610dcb565b91505092915050565b6000610e4682610c36565b9050919050565b610e5681610e3b565b8114610e6157600080fd5b50565b600081359050610e7381610e4d565b92915050565b610e8281610cc1565b8114610e8d57600080fd5b50565b600081359050610e9f81610e79565b92915050565b600080600060608486031215610ebe57610ebd610c2c565b5b600084013567ffffffffffffffff811115610edc57610edb610c31565b5b610ee886828701610e0d565b9350506020610ef986828701610e64565b9250506040610f0a86828701610e90565b9150509250925092565b610f1d81610c56565b82525050565b6000602082019050610f386000830184610f14565b92915050565b600060208284031215610f5457610f53610c2c565b5b6000610f6284828501610e90565b91505092915050565b600081519050919050565b600082825260208201905092915050565b60005b83811015610fa5578082015181840152602081019050610f8a565b60008484015250505050565b6000610fbc82610f6b565b610fc68185610f76565b9350610fd6818560208601610f87565b610fdf81610cff565b840191505092915050565b610ff381610e3b565b82525050565b60008115159050919050565b61100e81610ff9565b82525050565b600060a082019050818103600083015261102e8188610fb1565b905061103d6020830187610fea565b61104a6040830186610ccb565b6110576060830185611005565b6110646080830184610ccb565b9695505050505050565b7f446561646c696e65206861732070617373656400000000000000000000000000600082015250565b60006110a4601383610f76565b91506110af8261106e565b602082019050919050565b600060208201905081810360008301526110d381611097565b9050919050565b7f4d696e69756d20636f6e747269627574696f6e206973206e6f74206d65740000600082015250565b6000611110601e83610f76565b915061111b826110da565b602082019050919050565b6000602082019050818103600083015261113f81611103565b9050919050565b7f4e487b7100000000000000000000000000000000000000000000000000000000600052601160045260246000fd5b600061118082610cc1565b91507fffffffffffffffffffffffffffffffffffffffffffffffffffffffffffffffff82036111b2576111b1611146565b5b600182019050919050565b60006111c882610cc1565b91506111d383610cc1565b92508282019050808211156111eb576111ea611146565b5b92915050565b7f6f6e6c79206d616e616765722063616e2063616c6c20746869732066756e637460008201527f696f6e0000000000000000000000000000000000000000000000000000000000602082015250565b600061124d602383610f76565b9150611258826111f1565b604082019050919050565b6000602082019050818103600083015261127c81611240565b9050919050565b7f4e487b7100000000000000000000000000000000000000000000000000000000600052602260045260246000fd5b600060028204905060018216806112ca57607f821691505b6020821081036112dd576112dc611283565b5b50919050565b60008190508160005260206000209050919050565b60006020601f8301049050919050565b600082821b905092915050565b6000600883026113457fffffffffffffffffffffffffffffffffffffffffffffffffffffffffffffffff82611308565b61134f8683611308565b95508019841693508086168417925050509392505050565b6000819050919050565b600061138c61138761138284610cc1565b611367565b610cc1565b9050919050565b6000819050919050565b6113a683611371565b6113ba6113b282611393565b848454611315565b825550505050565b600090565b6113cf6113c2565b6113da81848461139d565b505050565b5b818110156113fe576113f36000826113c7565b6001810190506113e0565b5050565b601f82111561144357611414816112e3565b61141d846112f8565b8101602085101561142c578190505b611440611438856112f8565b8301826113df565b50505b505050565b600082821c905092915050565b600061146660001984600802611448565b1980831691505092915050565b600061147f8383611455565b9150826002028217905092915050565b61149882610f6b565b67ffffffffffffffff8111156114b1576114b0610d10565b5b6114bb82546112b2565b6114c6828285611402565b600060209050601f8311600181146114f957600084156114e7578287015190505b6114f18582611473565b865550611559565b601f198416611507866112e3565b60005b8281101561152f5784890151825560018201915060208501945060208101905061150a565b8683101561154c5784890151611548601f891682611455565b8355505b6001600288020188555050505b505050505050565b7f20596f7520617265206e6f7420656c696769626c6520666f7220726566756e64600082015250565b6000611597602083610f76565b91506115a282611561565b602082019050919050565b600060208201905081810360008301526115c68161158a565b9050919050565b7f796f75206d757374206265206120636f6e7472696275746f7200000000000000600082015250565b6000611603601983610f76565b915061160e826115cd565b602082019050919050565b60006020820190508181036000830152611632816115f6565b9050919050565b7f796f75206861766520616c6c726561647920766f746564200000000000000000600082015250565b600061166f601883610f76565b915061167a82611639565b602082019050919050565b6000602082019050818103600083015261169e81611662565b9050919050565b7f546865207265717565737420686173206265656e20636f6d706c657465640000600082015250565b60006116db601e83610f76565b91506116e6826116a5565b602082019050919050565b6000602082019050818103600083015261170a816116ce565b9050919050565b7f4e487b7100000000000000000000000000000000000000000000000000000000600052601260045260246000fd5b600061174b82610cc1565b915061175683610cc1565b92508261176657611765611711565b5b828204905092915050565b7f4d616a6f7269747920646f6573206e6f7420737570706f727400000000000000600082015250565b60006117a7601983610f76565b91506117b282611771565b602082019050919050565b600060208201905081810360008301526117d68161179a565b905091905056fea26469706673582212200346fc2715a0fa405664e21b8ce342d47436b7ec080a447d86b89957ddef4e7664736f6c63430008110033",
					"opcodes": "PUSH1 0x80 PUSH1 0x40 MSTORE CALLVALUE DUP1 ISZERO PUSH3 0x11 JUMPI PUSH1 0x0 DUP1 REVERT JUMPDEST POP PUSH1 0x40 MLOAD PUSH3 0x19B8 CODESIZE SUB DUP1 PUSH3 0x19B8 DUP4 CODECOPY DUP2 DUP2 ADD PUSH1 0x40 MSTORE DUP2 ADD SWAP1 PUSH3 0x37 SWAP2 SWAP1 PUSH3 0xE4 JUMP JUMPDEST DUP2 PUSH1 0x4 DUP2 SWAP1 SSTORE POP DUP1 TIMESTAMP PUSH3 0x4C SWAP2 SWAP1 PUSH3 0x15A JUMP JUMPDEST PUSH1 0x3 DUP2 SWAP1 SSTORE POP PUSH2 0x3E8 PUSH1 0x2 DUP2 SWAP1 SSTORE POP CALLER PUSH1 0x1 PUSH1 0x0 PUSH2 0x100 EXP DUP2 SLOAD DUP2 PUSH20 0xFFFFFFFFFFFFFFFFFFFFFFFFFFFFFFFFFFFFFFFF MUL NOT AND SWAP1 DUP4 PUSH20 0xFFFFFFFFFFFFFFFFFFFFFFFFFFFFFFFFFFFFFFFF AND MUL OR SWAP1 SSTORE POP POP POP PUSH3 0x195 JUMP JUMPDEST PUSH1 0x0 DUP1 REVERT JUMPDEST PUSH1 0x0 DUP2 SWAP1 POP SWAP2 SWAP1 POP JUMP JUMPDEST PUSH3 0xBE DUP2 PUSH3 0xA9 JUMP JUMPDEST DUP2 EQ PUSH3 0xCA JUMPI PUSH1 0x0 DUP1 REVERT JUMPDEST POP JUMP JUMPDEST PUSH1 0x0 DUP2 MLOAD SWAP1 POP PUSH3 0xDE DUP2 PUSH3 0xB3 JUMP JUMPDEST SWAP3 SWAP2 POP POP JUMP JUMPDEST PUSH1 0x0 DUP1 PUSH1 0x40 DUP4 DUP6 SUB SLT ISZERO PUSH3 0xFE JUMPI PUSH3 0xFD PUSH3 0xA4 JUMP JUMPDEST JUMPDEST PUSH1 0x0 PUSH3 0x10E DUP6 DUP3 DUP7 ADD PUSH3 0xCD JUMP JUMPDEST SWAP3 POP POP PUSH1 0x20 PUSH3 0x121 DUP6 DUP3 DUP7 ADD PUSH3 0xCD JUMP JUMPDEST SWAP2 POP POP SWAP3 POP SWAP3 SWAP1 POP JUMP JUMPDEST PUSH32 0x4E487B7100000000000000000000000000000000000000000000000000000000 PUSH1 0x0 MSTORE PUSH1 0x11 PUSH1 0x4 MSTORE PUSH1 0x24 PUSH1 0x0 REVERT JUMPDEST PUSH1 0x0 PUSH3 0x167 DUP3 PUSH3 0xA9 JUMP JUMPDEST SWAP2 POP PUSH3 0x174 DUP4 PUSH3 0xA9 JUMP JUMPDEST SWAP3 POP DUP3 DUP3 ADD SWAP1 POP DUP1 DUP3 GT ISZERO PUSH3 0x18F JUMPI PUSH3 0x18E PUSH3 0x12B JUMP JUMPDEST JUMPDEST SWAP3 SWAP2 POP POP JUMP JUMPDEST PUSH2 0x1813 DUP1 PUSH3 0x1A5 PUSH1 0x0 CODECOPY PUSH1 0x0 RETURN INVALID PUSH1 0x80 PUSH1 0x40 MSTORE PUSH1 0x4 CALLDATASIZE LT PUSH2 0xE8 JUMPI PUSH1 0x0 CALLDATALOAD PUSH1 0xE0 SHR DUP1 PUSH4 0x5C4627E9 GT PUSH2 0x8A JUMPI DUP1 PUSH4 0xC59EE1DC GT PUSH2 0x59 JUMPI DUP1 PUSH4 0xC59EE1DC EQ PUSH2 0x2B5 JUMPI DUP1 PUSH4 0xCBAF8671 EQ PUSH2 0x2E0 JUMPI DUP1 PUSH4 0xD4B83992 EQ PUSH2 0x309 JUMPI DUP1 PUSH4 0xFE7C1B8A EQ PUSH2 0x334 JUMPI PUSH2 0xE8 JUMP JUMPDEST DUP1 PUSH4 0x5C4627E9 EQ PUSH2 0x1F5 JUMPI DUP1 PUSH4 0x626B4B2C EQ PUSH2 0x220 JUMPI DUP1 PUSH4 0x81D12C58 EQ PUSH2 0x24B JUMPI DUP1 PUSH4 0x967C67CE EQ PUSH2 0x28C JUMPI PUSH2 0xE8 JUMP JUMPDEST DUP1 PUSH4 0x30817529 GT PUSH2 0xC6 JUMPI DUP1 PUSH4 0x30817529 EQ PUSH2 0x15F JUMPI DUP1 PUSH4 0x481C6A75 EQ PUSH2 0x188 JUMPI DUP1 PUSH4 0x4E260F6F EQ PUSH2 0x1B3 JUMPI DUP1 PUSH4 0x590E1AE3 EQ PUSH2 0x1DE JUMPI PUSH2 0xE8 JUMP JUMPDEST DUP1 PUSH4 0x6E99FEF EQ PUSH2 0xED JUMPI DUP1 PUSH4 0x1F6D4942 EQ PUSH2 0xF7 JUMPI DUP1 PUSH4 0x29DCB0CF EQ PUSH2 0x134 JUMPI JUMPDEST PUSH1 0x0 DUP1 REVERT JUMPDEST PUSH2 0xF5 PUSH2 0x35F JUMP JUMPDEST STOP JUMPDEST CALLVALUE DUP1 ISZERO PUSH2 0x103 JUMPI PUSH1 0x0 DUP1 REVERT JUMPDEST POP PUSH2 0x11E PUSH1 0x4 DUP1 CALLDATASIZE SUB DUP2 ADD SWAP1 PUSH2 0x119 SWAP2 SWAP1 PUSH2 0xC94 JUMP JUMPDEST PUSH2 0x4B7 JUMP JUMPDEST PUSH1 0x40 MLOAD PUSH2 0x12B SWAP2 SWAP1 PUSH2 0xCDA JUMP JUMPDEST PUSH1 0x40 MLOAD DUP1 SWAP2 SUB SWAP1 RETURN JUMPDEST CALLVALUE DUP1 ISZERO PUSH2 0x140 JUMPI PUSH1 0x0 DUP1 REVERT JUMPDEST POP PUSH2 0x149 PUSH2 0x4CF JUMP JUMPDEST PUSH1 0x40 MLOAD PUSH2 0x156 SWAP2 SWAP1 PUSH2 0xCDA JUMP JUMPDEST PUSH1 0x40 MLOAD DUP1 SWAP2 SUB SWAP1 RETURN JUMPDEST CALLVALUE DUP1 ISZERO PUSH2 0x16B JUMPI PUSH1 0x0 DUP1 REVERT JUMPDEST POP PUSH2 0x186 PUSH1 0x4 DUP1 CALLDATASIZE SUB DUP2 ADD SWAP1 PUSH2 0x181 SWAP2 SWAP1 PUSH2 0xEA5 JUMP JUMPDEST PUSH2 0x4D5 JUMP JUMPDEST STOP JUMPDEST CALLVALUE DUP1 ISZERO PUSH2 0x194 JUMPI PUSH1 0x0 DUP1 REVERT JUMPDEST POP PUSH2 0x19D PUSH2 0x621 JUMP JUMPDEST PUSH1 0x40 MLOAD PUSH2 0x1AA SWAP2 SWAP1 PUSH2 0xF23 JUMP JUMPDEST PUSH1 0x40 MLOAD DUP1 SWAP2 SUB SWAP1 RETURN JUMPDEST CALLVALUE DUP1 ISZERO PUSH2 0x1BF JUMPI PUSH1 0x0 DUP1 REVERT JUMPDEST POP PUSH2 0x1C8 PUSH2 0x647 JUMP JUMPDEST PUSH1 0x40 MLOAD PUSH2 0x1D5 SWAP2 SWAP1 PUSH2 0xCDA JUMP JUMPDEST PUSH1 0x40 MLOAD DUP1 SWAP2 SUB SWAP1 RETURN JUMPDEST CALLVALUE DUP1 ISZERO PUSH2 0x1EA JUMPI PUSH1 0x0 DUP1 REVERT JUMPDEST POP PUSH2 0x1F3 PUSH2 0x64D JUMP JUMPDEST STOP JUMPDEST CALLVALUE DUP1 ISZERO PUSH2 0x201 JUMPI PUSH1 0x0 DUP1 REVERT JUMPDEST POP PUSH2 0x20A PUSH2 0x7BC JUMP JUMPDEST PUSH1 0x40 MLOAD PUSH2 0x217 SWAP2 SWAP1 PUSH2 0xCDA JUMP JUMPDEST PUSH1 0x40 MLOAD DUP1 SWAP2 SUB SWAP1 RETURN JUMPDEST CALLVALUE DUP1 ISZERO PUSH2 0x22C JUMPI PUSH1 0x0 DUP1 REVERT JUMPDEST POP PUSH2 0x235 PUSH2 0x7C2 JUMP JUMPDEST PUSH1 0x40 MLOAD PUSH2 0x242 SWAP2 SWAP1 PUSH2 0xCDA JUMP JUMPDEST PUSH1 0x40 MLOAD DUP1 SWAP2 SUB SWAP1 RETURN JUMPDEST CALLVALUE DUP1 ISZERO PUSH2 0x257 JUMPI PUSH1 0x0 DUP1 REVERT JUMPDEST POP PUSH2 0x272 PUSH1 0x4 DUP1 CALLDATASIZE SUB DUP2 ADD SWAP1 PUSH2 0x26D SWAP2 SWAP1 PUSH2 0xF3E JUMP JUMPDEST PUSH2 0x7CA JUMP JUMPDEST PUSH1 0x40 MLOAD PUSH2 0x283 SWAP6 SWAP5 SWAP4 SWAP3 SWAP2 SWAP1 PUSH2 0x1014 JUMP JUMPDEST PUSH1 0x40 MLOAD DUP1 SWAP2 SUB SWAP1 RETURN JUMPDEST CALLVALUE DUP1 ISZERO PUSH2 0x298 JUMPI PUSH1 0x0 DUP1 REVERT JUMPDEST POP PUSH2 0x2B3 PUSH1 0x4 DUP1 CALLDATASIZE SUB DUP2 ADD SWAP1 PUSH2 0x2AE SWAP2 SWAP1 PUSH2 0xF3E JUMP JUMPDEST PUSH2 0x8B5 JUMP JUMPDEST STOP JUMPDEST CALLVALUE DUP1 ISZERO PUSH2 0x2C1 JUMPI PUSH1 0x0 DUP1 REVERT JUMPDEST POP PUSH2 0x2CA PUSH2 0xA52 JUMP JUMPDEST PUSH1 0x40 MLOAD PUSH2 0x2D7 SWAP2 SWAP1 PUSH2 0xCDA JUMP JUMPDEST PUSH1 0x40 MLOAD DUP1 SWAP2 SUB SWAP1 RETURN JUMPDEST CALLVALUE DUP1 ISZERO PUSH2 0x2EC JUMPI PUSH1 0x0 DUP1 REVERT JUMPDEST POP PUSH2 0x307 PUSH1 0x4 DUP1 CALLDATASIZE SUB DUP2 ADD SWAP1 PUSH2 0x302 SWAP2 SWAP1 PUSH2 0xF3E JUMP JUMPDEST PUSH2 0xA58 JUMP JUMPDEST STOP JUMPDEST CALLVALUE DUP1 ISZERO PUSH2 0x315 JUMPI PUSH1 0x0 DUP1 REVERT JUMPDEST POP PUSH2 0x31E PUSH2 0xC16 JUMP JUMPDEST PUSH1 0x40 MLOAD PUSH2 0x32B SWAP2 SWAP1 PUSH2 0xCDA JUMP JUMPDEST PUSH1 0x40 MLOAD DUP1 SWAP2 SUB SWAP1 RETURN JUMPDEST CALLVALUE DUP1 ISZERO PUSH2 0x340 JUMPI PUSH1 0x0 DUP1 REVERT JUMPDEST POP PUSH2 0x349 PUSH2 0xC1C JUMP JUMPDEST PUSH1 0x40 MLOAD PUSH2 0x356 SWAP2 SWAP1 PUSH2 0xCDA JUMP JUMPDEST PUSH1 0x40 MLOAD DUP1 SWAP2 SUB SWAP1 RETURN JUMPDEST PUSH1 0x3 SLOAD TIMESTAMP LT PUSH2 0x3A3 JUMPI PUSH1 0x40 MLOAD PUSH32 0x8C379A000000000000000000000000000000000000000000000000000000000 DUP2 MSTORE PUSH1 0x4 ADD PUSH2 0x39A SWAP1 PUSH2 0x10BA JUMP JUMPDEST PUSH1 0x40 MLOAD DUP1 SWAP2 SUB SWAP1 REVERT JUMPDEST PUSH1 0x2 SLOAD CALLVALUE LT ISZERO PUSH2 0x3E8 JUMPI PUSH1 0x40 MLOAD PUSH32 0x8C379A000000000000000000000000000000000000000000000000000000000 DUP2 MSTORE PUSH1 0x4 ADD PUSH2 0x3DF SWAP1 PUSH2 0x1126 JUMP JUMPDEST PUSH1 0x40 MLOAD DUP1 SWAP2 SUB SWAP1 REVERT JUMPDEST PUSH1 0x0 DUP1 PUSH1 0x0 CALLER PUSH20 0xFFFFFFFFFFFFFFFFFFFFFFFFFFFFFFFFFFFFFFFF AND PUSH20 0xFFFFFFFFFFFFFFFFFFFFFFFFFFFFFFFFFFFFFFFF AND DUP2 MSTORE PUSH1 0x20 ADD SWAP1 DUP2 MSTORE PUSH1 0x20 ADD PUSH1 0x0 KECCAK256 SLOAD SUB PUSH2 0x447 JUMPI PUSH1 0x6 PUSH1 0x0 DUP2 SLOAD DUP1 SWAP3 SWAP2 SWAP1 PUSH2 0x441 SWAP1 PUSH2 0x1175 JUMP JUMPDEST SWAP2 SWAP1 POP SSTORE POP JUMPDEST CALLVALUE PUSH1 0x0 DUP1 CALLER PUSH20 0xFFFFFFFFFFFFFFFFFFFFFFFFFFFFFFFFFFFFFFFF AND PUSH20 0xFFFFFFFFFFFFFFFFFFFFFFFFFFFFFFFFFFFFFFFF AND DUP2 MSTORE PUSH1 0x20 ADD SWAP1 DUP2 MSTORE PUSH1 0x20 ADD PUSH1 0x0 KECCAK256 PUSH1 0x0 DUP3 DUP3 SLOAD PUSH2 0x495 SWAP2 SWAP1 PUSH2 0x11BD JUMP JUMPDEST SWAP3 POP POP DUP2 SWAP1 SSTORE POP CALLVALUE PUSH1 0x5 PUSH1 0x0 DUP3 DUP3 SLOAD PUSH2 0x4AE SWAP2 SWAP1 PUSH2 0x11BD JUMP JUMPDEST SWAP3 POP POP DUP2 SWAP1 SSTORE POP JUMP JUMPDEST PUSH1 0x0 PUSH1 0x20 MSTORE DUP1 PUSH1 0x0 MSTORE PUSH1 0x40 PUSH1 0x0 KECCAK256 PUSH1 0x0 SWAP2 POP SWAP1 POP SLOAD DUP2 JUMP JUMPDEST PUSH1 0x3 SLOAD DUP2 JUMP JUMPDEST PUSH1 0x1 PUSH1 0x0 SWAP1 SLOAD SWAP1 PUSH2 0x100 EXP SWAP1 DIV PUSH20 0xFFFFFFFFFFFFFFFFFFFFFFFFFFFFFFFFFFFFFFFF AND PUSH20 0xFFFFFFFFFFFFFFFFFFFFFFFFFFFFFFFFFFFFFFFF AND CALLER PUSH20 0xFFFFFFFFFFFFFFFFFFFFFFFFFFFFFFFFFFFFFFFF AND EQ PUSH2 0x565 JUMPI PUSH1 0x40 MLOAD PUSH32 0x8C379A000000000000000000000000000000000000000000000000000000000 DUP2 MSTORE PUSH1 0x4 ADD PUSH2 0x55C SWAP1 PUSH2 0x1263 JUMP JUMPDEST PUSH1 0x40 MLOAD DUP1 SWAP2 SUB SWAP1 REVERT JUMPDEST PUSH1 0x0 PUSH1 0x7 PUSH1 0x0 PUSH1 0x8 SLOAD DUP2 MSTORE PUSH1 0x20 ADD SWAP1 DUP2 MSTORE PUSH1 0x20 ADD PUSH1 0x0 KECCAK256 SWAP1 POP PUSH1 0x8 PUSH1 0x0 DUP2 SLOAD DUP1 SWAP3 SWAP2 SWAP1 PUSH2 0x591 SWAP1 PUSH2 0x1175 JUMP JUMPDEST SWAP2 SWAP1 POP SSTORE POP DUP4 DUP2 PUSH1 0x0 ADD SWAP1 DUP2 PUSH2 0x5A7 SWAP2 SWAP1 PUSH2 0x148F JUMP JUMPDEST POP DUP3 DUP2 PUSH1 0x1 ADD PUSH1 0x0 PUSH2 0x100 EXP DUP2 SLOAD DUP2 PUSH20 0xFFFFFFFFFFFFFFFFFFFFFFFFFFFFFFFFFFFFFFFF MUL NOT AND SWAP1 DUP4 PUSH20 0xFFFFFFFFFFFFFFFFFFFFFFFFFFFFFFFFFFFFFFFF AND MUL OR SWAP1 SSTORE POP DUP2 DUP2 PUSH1 0x2 ADD DUP2 SWAP1 SSTORE POP PUSH1 0x0 DUP2 PUSH1 0x3 ADD PUSH1 0x0 PUSH2 0x100 EXP DUP2 SLOAD DUP2 PUSH1 0xFF MUL NOT AND SWAP1 DUP4 ISZERO ISZERO MUL OR SWAP1 SSTORE POP PUSH1 0x0 DUP2 PUSH1 0x4 ADD DUP2 SWAP1 SSTORE POP POP POP POP POP JUMP JUMPDEST PUSH1 0x1 PUSH1 0x0 SWAP1 SLOAD SWAP1 PUSH2 0x100 EXP SWAP1 DIV PUSH20 0xFFFFFFFFFFFFFFFFFFFFFFFFFFFFFFFFFFFFFFFF AND DUP2 JUMP JUMPDEST PUSH1 0x6 SLOAD DUP2 JUMP JUMPDEST PUSH1 0x3 SLOAD TIMESTAMP GT DUP1 ISZERO PUSH2 0x661 JUMPI POP PUSH1 0x4 SLOAD PUSH1 0x5 SLOAD LT JUMPDEST PUSH2 0x6A0 JUMPI PUSH1 0x40 MLOAD PUSH32 0x8C379A000000000000000000000000000000000000000000000000000000000 DUP2 MSTORE PUSH1 0x4 ADD PUSH2 0x697 SWAP1 PUSH2 0x15AD JUMP JUMPDEST PUSH1 0x40 MLOAD DUP1 SWAP2 SUB SWAP1 REVERT JUMPDEST PUSH1 0x0 DUP1 PUSH1 0x0 CALLER PUSH20 0xFFFFFFFFFFFFFFFFFFFFFFFFFFFFFFFFFFFFFFFF AND PUSH20 0xFFFFFFFFFFFFFFFFFFFFFFFFFFFFFFFFFFFFFFFF AND DUP2 MSTORE PUSH1 0x20 ADD SWAP1 DUP2 MSTORE PUSH1 0x20 ADD PUSH1 0x0 KECCAK256 SLOAD GT PUSH2 0x6EB JUMPI PUSH1 0x0 DUP1 REVERT JUMPDEST PUSH1 0x0 CALLER SWAP1 POP DUP1 PUSH20 0xFFFFFFFFFFFFFFFFFFFFFFFFFFFFFFFFFFFFFFFF AND PUSH2 0x8FC PUSH1 0x0 DUP1 CALLER PUSH20 0xFFFFFFFFFFFFFFFFFFFFFFFFFFFFFFFFFFFFFFFF AND PUSH20 0xFFFFFFFFFFFFFFFFFFFFFFFFFFFFFFFFFFFFFFFF AND DUP2 MSTORE PUSH1 0x20 ADD SWAP1 DUP2 MSTORE PUSH1 0x20 ADD PUSH1 0x0 KECCAK256 SLOAD SWAP1 DUP2 ISZERO MUL SWAP1 PUSH1 0x40 MLOAD PUSH1 0x0 PUSH1 0x40 MLOAD DUP1 DUP4 SUB DUP2 DUP6 DUP9 DUP9 CALL SWAP4 POP POP POP POP ISZERO DUP1 ISZERO PUSH2 0x774 JUMPI RETURNDATASIZE PUSH1 0x0 DUP1 RETURNDATACOPY RETURNDATASIZE PUSH1 0x0 REVERT JUMPDEST POP PUSH1 0x0 DUP1 PUSH1 0x0 CALLER PUSH20 0xFFFFFFFFFFFFFFFFFFFFFFFFFFFFFFFFFFFFFFFF AND PUSH20 0xFFFFFFFFFFFFFFFFFFFFFFFFFFFFFFFFFFFFFFFF AND DUP2 MSTORE PUSH1 0x20 ADD SWAP1 DUP2 MSTORE PUSH1 0x20 ADD PUSH1 0x0 KECCAK256 DUP2 SWAP1 SSTORE POP POP JUMP JUMPDEST PUSH1 0x2 SLOAD DUP2 JUMP JUMPDEST PUSH1 0x0 SELFBALANCE SWAP1 POP SWAP1 JUMP JUMPDEST PUSH1 0x7 PUSH1 0x20 MSTORE DUP1 PUSH1 0x0 MSTORE PUSH1 0x40 PUSH1 0x0 KECCAK256 PUSH1 0x0 SWAP2 POP SWAP1 POP DUP1 PUSH1 0x0 ADD DUP1 SLOAD PUSH2 0x7ED SWAP1 PUSH2 0x12B2 JUMP JUMPDEST DUP1 PUSH1 0x1F ADD PUSH1 0x20 DUP1 SWAP2 DIV MUL PUSH1 0x20 ADD PUSH1 0x40 MLOAD SWAP1 DUP2 ADD PUSH1 0x40 MSTORE DUP1 SWAP3 SWAP2 SWAP1 DUP2 DUP2 MSTORE PUSH1 0x20 ADD DUP3 DUP1 SLOAD PUSH2 0x819 SWAP1 PUSH2 0x12B2 JUMP JUMPDEST DUP1 ISZERO PUSH2 0x866 JUMPI DUP1 PUSH1 0x1F LT PUSH2 0x83B JUMPI PUSH2 0x100 DUP1 DUP4 SLOAD DIV MUL DUP4 MSTORE SWAP2 PUSH1 0x20 ADD SWAP2 PUSH2 0x866 JUMP JUMPDEST DUP3 ADD SWAP2 SWAP1 PUSH1 0x0 MSTORE PUSH1 0x20 PUSH1 0x0 KECCAK256 SWAP1 JUMPDEST DUP2 SLOAD DUP2 MSTORE SWAP1 PUSH1 0x1 ADD SWAP1 PUSH1 0x20 ADD DUP1 DUP4 GT PUSH2 0x849 JUMPI DUP3 SWAP1 SUB PUSH1 0x1F AND DUP3 ADD SWAP2 JUMPDEST POP POP POP POP POP SWAP1 DUP1 PUSH1 0x1 ADD PUSH1 0x0 SWAP1 SLOAD SWAP1 PUSH2 0x100 EXP SWAP1 DIV PUSH20 0xFFFFFFFFFFFFFFFFFFFFFFFFFFFFFFFFFFFFFFFF AND SWAP1 DUP1 PUSH1 0x2 ADD SLOAD SWAP1 DUP1 PUSH1 0x3 ADD PUSH1 0x0 SWAP1 SLOAD SWAP1 PUSH2 0x100 EXP SWAP1 DIV PUSH1 0xFF AND SWAP1 DUP1 PUSH1 0x4 ADD SLOAD SWAP1 POP DUP6 JUMP JUMPDEST PUSH1 0x0 DUP1 PUSH1 0x0 CALLER PUSH20 0xFFFFFFFFFFFFFFFFFFFFFFFFFFFFFFFFFFFFFFFF AND PUSH20 0xFFFFFFFFFFFFFFFFFFFFFFFFFFFFFFFFFFFFFFFF AND DUP2 MSTORE PUSH1 0x20 ADD SWAP1 DUP2 MSTORE PUSH1 0x20 ADD PUSH1 0x0 KECCAK256 SLOAD GT PUSH2 0x936 JUMPI PUSH1 0x40 MLOAD PUSH32 0x8C379A000000000000000000000000000000000000000000000000000000000 DUP2 MSTORE PUSH1 0x4 ADD PUSH2 0x92D SWAP1 PUSH2 0x1619 JUMP JUMPDEST PUSH1 0x40 MLOAD DUP1 SWAP2 SUB SWAP1 REVERT JUMPDEST PUSH1 0x0 PUSH1 0x7 PUSH1 0x0 DUP4 DUP2 MSTORE PUSH1 0x20 ADD SWAP1 DUP2 MSTORE PUSH1 0x20 ADD PUSH1 0x0 KECCAK256 SWAP1 POP PUSH1 0x0 ISZERO ISZERO DUP2 PUSH1 0x5 ADD PUSH1 0x0 CALLER PUSH20 0xFFFFFFFFFFFFFFFFFFFFFFFFFFFFFFFFFFFFFFFF AND PUSH20 0xFFFFFFFFFFFFFFFFFFFFFFFFFFFFFFFFFFFFFFFF AND DUP2 MSTORE PUSH1 0x20 ADD SWAP1 DUP2 MSTORE PUSH1 0x20 ADD PUSH1 0x0 KECCAK256 PUSH1 0x0 SWAP1 SLOAD SWAP1 PUSH2 0x100 EXP SWAP1 DIV PUSH1 0xFF AND ISZERO ISZERO EQ PUSH2 0x9E2 JUMPI PUSH1 0x40 MLOAD PUSH32 0x8C379A000000000000000000000000000000000000000000000000000000000 DUP2 MSTORE PUSH1 0x4 ADD PUSH2 0x9D9 SWAP1 PUSH2 0x1685 JUMP JUMPDEST PUSH1 0x40 MLOAD DUP1 SWAP2 SUB SWAP1 REVERT JUMPDEST PUSH1 0x1 ISZERO ISZERO DUP2 PUSH1 0x5 ADD PUSH1 0x0 CALLER PUSH20 0xFFFFFFFFFFFFFFFFFFFFFFFFFFFFFFFFFFFFFFFF AND PUSH20 0xFFFFFFFFFFFFFFFFFFFFFFFFFFFFFFFFFFFFFFFF AND DUP2 MSTORE PUSH1 0x20 ADD SWAP1 DUP2 MSTORE PUSH1 0x20 ADD PUSH1 0x0 KECCAK256 PUSH1 0x0 SWAP1 SLOAD SWAP1 PUSH2 0x100 EXP SWAP1 POP POP POP DUP1 PUSH1 0x4 ADD PUSH1 0x0 DUP2 SLOAD DUP1 SWAP3 SWAP2 SWAP1 PUSH2 0xA49 SWAP1 PUSH2 0x1175 JUMP JUMPDEST SWAP2 SWAP1 POP SSTORE POP POP POP JUMP JUMPDEST PUSH1 0x5 SLOAD DUP2 JUMP JUMPDEST PUSH1 0x1 PUSH1 0x0 SWAP1 SLOAD SWAP1 PUSH2 0x100 EXP SWAP1 DIV PUSH20 0xFFFFFFFFFFFFFFFFFFFFFFFFFFFFFFFFFFFFFFFF AND PUSH20 0xFFFFFFFFFFFFFFFFFFFFFFFFFFFFFFFFFFFFFFFF AND CALLER PUSH20 0xFFFFFFFFFFFFFFFFFFFFFFFFFFFFFFFFFFFFFFFF AND EQ PUSH2 0xAB2 JUMPI PUSH1 0x0 DUP1 REVERT JUMPDEST PUSH1 0x4 SLOAD PUSH1 0x5 SLOAD LT ISZERO PUSH2 0xAC3 JUMPI PUSH1 0x0 DUP1 REVERT JUMPDEST PUSH1 0x0 PUSH1 0x7 PUSH1 0x0 DUP4 DUP2 MSTORE PUSH1 0x20 ADD SWAP1 DUP2 MSTORE PUSH1 0x20 ADD PUSH1 0x0 KECCAK256 SWAP1 POP PUSH1 0x0 ISZERO ISZERO DUP2 PUSH1 0x3 ADD PUSH1 0x0 SWAP1 SLOAD SWAP1 PUSH2 0x100 EXP SWAP1 DIV PUSH1 0xFF AND ISZERO ISZERO EQ PUSH2 0xB32 JUMPI PUSH1 0x40 MLOAD PUSH32 0x8C379A000000000000000000000000000000000000000000000000000000000 DUP2 MSTORE PUSH1 0x4 ADD PUSH2 0xB29 SWAP1 PUSH2 0x16F1 JUMP JUMPDEST PUSH1 0x40 MLOAD DUP1 SWAP2 SUB SWAP1 REVERT JUMPDEST PUSH1 0x2 PUSH1 0x6 SLOAD PUSH2 0xB41 SWAP2 SWAP1 PUSH2 0x1740 JUMP JUMPDEST DUP2 PUSH1 0x4 ADD SLOAD GT PUSH2 0xB86 JUMPI PUSH1 0x40 MLOAD PUSH32 0x8C379A000000000000000000000000000000000000000000000000000000000 DUP2 MSTORE PUSH1 0x4 ADD PUSH2 0xB7D SWAP1 PUSH2 0x17BD JUMP JUMPDEST PUSH1 0x40 MLOAD DUP1 SWAP2 SUB SWAP1 REVERT JUMPDEST DUP1 PUSH1 0x1 ADD PUSH1 0x0 SWAP1 SLOAD SWAP1 PUSH2 0x100 EXP SWAP1 DIV PUSH20 0xFFFFFFFFFFFFFFFFFFFFFFFFFFFFFFFFFFFFFFFF AND PUSH20 0xFFFFFFFFFFFFFFFFFFFFFFFFFFFFFFFFFFFFFFFF AND PUSH2 0x8FC DUP3 PUSH1 0x2 ADD SLOAD SWAP1 DUP2 ISZERO MUL SWAP1 PUSH1 0x40 MLOAD PUSH1 0x0 PUSH1 0x40 MLOAD DUP1 DUP4 SUB DUP2 DUP6 DUP9 DUP9 CALL SWAP4 POP POP POP POP ISZERO DUP1 ISZERO PUSH2 0xBF4 JUMPI RETURNDATASIZE PUSH1 0x0 DUP1 RETURNDATACOPY RETURNDATASIZE PUSH1 0x0 REVERT JUMPDEST POP PUSH1 0x1 DUP2 PUSH1 0x3 ADD PUSH1 0x0 PUSH2 0x100 EXP DUP2 SLOAD DUP2 PUSH1 0xFF MUL NOT AND SWAP1 DUP4 ISZERO ISZERO MUL OR SWAP1 SSTORE POP POP POP JUMP JUMPDEST PUSH1 0x4 SLOAD DUP2 JUMP JUMPDEST PUSH1 0x8 SLOAD DUP2 JUMP JUMPDEST PUSH1 0x0 PUSH1 0x40 MLOAD SWAP1 POP SWAP1 JUMP JUMPDEST PUSH1 0x0 DUP1 REVERT JUMPDEST PUSH1 0x0 DUP1 REVERT JUMPDEST PUSH1 0x0 PUSH20 0xFFFFFFFFFFFFFFFFFFFFFFFFFFFFFFFFFFFFFFFF DUP3 AND SWAP1 POP SWAP2 SWAP1 POP JUMP JUMPDEST PUSH1 0x0 PUSH2 0xC61 DUP3 PUSH2 0xC36 JUMP JUMPDEST SWAP1 POP SWAP2 SWAP1 POP JUMP JUMPDEST PUSH2 0xC71 DUP2 PUSH2 0xC56 JUMP JUMPDEST DUP2 EQ PUSH2 0xC7C JUMPI PUSH1 0x0 DUP1 REVERT JUMPDEST POP JUMP JUMPDEST PUSH1 0x0 DUP2 CALLDATALOAD SWAP1 POP PUSH2 0xC8E DUP2 PUSH2 0xC68 JUMP JUMPDEST SWAP3 SWAP2 POP POP JUMP JUMPDEST PUSH1 0x0 PUSH1 0x20 DUP3 DUP5 SUB SLT ISZERO PUSH2 0xCAA JUMPI PUSH2 0xCA9 PUSH2 0xC2C JUMP JUMPDEST JUMPDEST PUSH1 0x0 PUSH2 0xCB8 DUP5 DUP3 DUP6 ADD PUSH2 0xC7F JUMP JUMPDEST SWAP2 POP POP SWAP3 SWAP2 POP POP JUMP JUMPDEST PUSH1 0x0 DUP2 SWAP1 POP SWAP2 SWAP1 POP JUMP JUMPDEST PUSH2 0xCD4 DUP2 PUSH2 0xCC1 JUMP JUMPDEST DUP3 MSTORE POP POP JUMP JUMPDEST PUSH1 0x0 PUSH1 0x20 DUP3 ADD SWAP1 POP PUSH2 0xCEF PUSH1 0x0 DUP4 ADD DUP5 PUSH2 0xCCB JUMP JUMPDEST SWAP3 SWAP2 POP POP JUMP JUMPDEST PUSH1 0x0 DUP1 REVERT JUMPDEST PUSH1 0x0 DUP1 REVERT JUMPDEST PUSH1 0x0 PUSH1 0x1F NOT PUSH1 0x1F DUP4 ADD AND SWAP1 POP SWAP2 SWAP1 POP JUMP JUMPDEST PUSH32 0x4E487B7100000000000000000000000000000000000000000000000000000000 PUSH1 0x0 MSTORE PUSH1 0x41 PUSH1 0x4 MSTORE PUSH1 0x24 PUSH1 0x0 REVERT JUMPDEST PUSH2 0xD48 DUP3 PUSH2 0xCFF JUMP JUMPDEST DUP2 ADD DUP2 DUP2 LT PUSH8 0xFFFFFFFFFFFFFFFF DUP3 GT OR ISZERO PUSH2 0xD67 JUMPI PUSH2 0xD66 PUSH2 0xD10 JUMP JUMPDEST JUMPDEST DUP1 PUSH1 0x40 MSTORE POP POP POP JUMP JUMPDEST PUSH1 0x0 PUSH2 0xD7A PUSH2 0xC22 JUMP JUMPDEST SWAP1 POP PUSH2 0xD86 DUP3 DUP3 PUSH2 0xD3F JUMP JUMPDEST SWAP2 SWAP1 POP JUMP JUMPDEST PUSH1 0x0 PUSH8 0xFFFFFFFFFFFFFFFF DUP3 GT ISZERO PUSH2 0xDA6 JUMPI PUSH2 0xDA5 PUSH2 0xD10 JUMP JUMPDEST JUMPDEST PUSH2 0xDAF DUP3 PUSH2 0xCFF JUMP JUMPDEST SWAP1 POP PUSH1 0x20 DUP2 ADD SWAP1 POP SWAP2 SWAP1 POP JUMP JUMPDEST DUP3 DUP2 DUP4 CALLDATACOPY PUSH1 0x0 DUP4 DUP4 ADD MSTORE POP POP POP JUMP JUMPDEST PUSH1 0x0 PUSH2 0xDDE PUSH2 0xDD9 DUP5 PUSH2 0xD8B JUMP JUMPDEST PUSH2 0xD70 JUMP JUMPDEST SWAP1 POP DUP3 DUP2 MSTORE PUSH1 0x20 DUP2 ADD DUP5 DUP5 DUP5 ADD GT ISZERO PUSH2 0xDFA JUMPI PUSH2 0xDF9 PUSH2 0xCFA JUMP JUMPDEST JUMPDEST PUSH2 0xE05 DUP5 DUP3 DUP6 PUSH2 0xDBC JUMP JUMPDEST POP SWAP4 SWAP3 POP POP POP JUMP JUMPDEST PUSH1 0x0 DUP3 PUSH1 0x1F DUP4 ADD SLT PUSH2 0xE22 JUMPI PUSH2 0xE21 PUSH2 0xCF5 JUMP JUMPDEST JUMPDEST DUP2 CALLDATALOAD PUSH2 0xE32 DUP5 DUP3 PUSH1 0x20 DUP7 ADD PUSH2 0xDCB JUMP JUMPDEST SWAP2 POP POP SWAP3 SWAP2 POP POP JUMP JUMPDEST PUSH1 0x0 PUSH2 0xE46 DUP3 PUSH2 0xC36 JUMP JUMPDEST SWAP1 POP SWAP2 SWAP1 POP JUMP JUMPDEST PUSH2 0xE56 DUP2 PUSH2 0xE3B JUMP JUMPDEST DUP2 EQ PUSH2 0xE61 JUMPI PUSH1 0x0 DUP1 REVERT JUMPDEST POP JUMP JUMPDEST PUSH1 0x0 DUP2 CALLDATALOAD SWAP1 POP PUSH2 0xE73 DUP2 PUSH2 0xE4D JUMP JUMPDEST SWAP3 SWAP2 POP POP JUMP JUMPDEST PUSH2 0xE82 DUP2 PUSH2 0xCC1 JUMP JUMPDEST DUP2 EQ PUSH2 0xE8D JUMPI PUSH1 0x0 DUP1 REVERT JUMPDEST POP JUMP JUMPDEST PUSH1 0x0 DUP2 CALLDATALOAD SWAP1 POP PUSH2 0xE9F DUP2 PUSH2 0xE79 JUMP JUMPDEST SWAP3 SWAP2 POP POP JUMP JUMPDEST PUSH1 0x0 DUP1 PUSH1 0x0 PUSH1 0x60 DUP5 DUP7 SUB SLT ISZERO PUSH2 0xEBE JUMPI PUSH2 0xEBD PUSH2 0xC2C JUMP JUMPDEST JUMPDEST PUSH1 0x0 DUP5 ADD CALLDATALOAD PUSH8 0xFFFFFFFFFFFFFFFF DUP2 GT ISZERO PUSH2 0xEDC JUMPI PUSH2 0xEDB PUSH2 0xC31 JUMP JUMPDEST JUMPDEST PUSH2 0xEE8 DUP7 DUP3 DUP8 ADD PUSH2 0xE0D JUMP JUMPDEST SWAP4 POP POP PUSH1 0x20 PUSH2 0xEF9 DUP7 DUP3 DUP8 ADD PUSH2 0xE64 JUMP JUMPDEST SWAP3 POP POP PUSH1 0x40 PUSH2 0xF0A DUP7 DUP3 DUP8 ADD PUSH2 0xE90 JUMP JUMPDEST SWAP2 POP POP SWAP3 POP SWAP3 POP SWAP3 JUMP JUMPDEST PUSH2 0xF1D DUP2 PUSH2 0xC56 JUMP JUMPDEST DUP3 MSTORE POP POP JUMP JUMPDEST PUSH1 0x0 PUSH1 0x20 DUP3 ADD SWAP1 POP PUSH2 0xF38 PUSH1 0x0 DUP4 ADD DUP5 PUSH2 0xF14 JUMP JUMPDEST SWAP3 SWAP2 POP POP JUMP JUMPDEST PUSH1 0x0 PUSH1 0x20 DUP3 DUP5 SUB SLT ISZERO PUSH2 0xF54 JUMPI PUSH2 0xF53 PUSH2 0xC2C JUMP JUMPDEST JUMPDEST PUSH1 0x0 PUSH2 0xF62 DUP5 DUP3 DUP6 ADD PUSH2 0xE90 JUMP JUMPDEST SWAP2 POP POP SWAP3 SWAP2 POP POP JUMP JUMPDEST PUSH1 0x0 DUP2 MLOAD SWAP1 POP SWAP2 SWAP1 POP JUMP JUMPDEST PUSH1 0x0 DUP3 DUP3 MSTORE PUSH1 0x20 DUP3 ADD SWAP1 POP SWAP3 SWAP2 POP POP JUMP JUMPDEST PUSH1 0x0 JUMPDEST DUP4 DUP2 LT ISZERO PUSH2 0xFA5 JUMPI DUP1 DUP3 ADD MLOAD DUP2 DUP5 ADD MSTORE PUSH1 0x20 DUP2 ADD SWAP1 POP PUSH2 0xF8A JUMP JUMPDEST PUSH1 0x0 DUP5 DUP5 ADD MSTORE POP POP POP POP JUMP JUMPDEST PUSH1 0x0 PUSH2 0xFBC DUP3 PUSH2 0xF6B JUMP JUMPDEST PUSH2 0xFC6 DUP2 DUP6 PUSH2 0xF76 JUMP JUMPDEST SWAP4 POP PUSH2 0xFD6 DUP2 DUP6 PUSH1 0x20 DUP7 ADD PUSH2 0xF87 JUMP JUMPDEST PUSH2 0xFDF DUP2 PUSH2 0xCFF JUMP JUMPDEST DUP5 ADD SWAP2 POP POP SWAP3 SWAP2 POP POP JUMP JUMPDEST PUSH2 0xFF3 DUP2 PUSH2 0xE3B JUMP JUMPDEST DUP3 MSTORE POP POP JUMP JUMPDEST PUSH1 0x0 DUP2 ISZERO ISZERO SWAP1 POP SWAP2 SWAP1 POP JUMP JUMPDEST PUSH2 0x100E DUP2 PUSH2 0xFF9 JUMP JUMPDEST DUP3 MSTORE POP POP JUMP JUMPDEST PUSH1 0x0 PUSH1 0xA0 DUP3 ADD SWAP1 POP DUP2 DUP2 SUB PUSH1 0x0 DUP4 ADD MSTORE PUSH2 0x102E DUP2 DUP9 PUSH2 0xFB1 JUMP JUMPDEST SWAP1 POP PUSH2 0x103D PUSH1 0x20 DUP4 ADD DUP8 PUSH2 0xFEA JUMP JUMPDEST PUSH2 0x104A PUSH1 0x40 DUP4 ADD DUP7 PUSH2 0xCCB JUMP JUMPDEST PUSH2 0x1057 PUSH1 0x60 DUP4 ADD DUP6 PUSH2 0x1005 JUMP JUMPDEST PUSH2 0x1064 PUSH1 0x80 DUP4 ADD DUP5 PUSH2 0xCCB JUMP JUMPDEST SWAP7 SWAP6 POP POP POP POP POP POP JUMP JUMPDEST PUSH32 0x446561646C696E65206861732070617373656400000000000000000000000000 PUSH1 0x0 DUP3 ADD MSTORE POP JUMP JUMPDEST PUSH1 0x0 PUSH2 0x10A4 PUSH1 0x13 DUP4 PUSH2 0xF76 JUMP JUMPDEST SWAP2 POP PUSH2 0x10AF DUP3 PUSH2 0x106E JUMP JUMPDEST PUSH1 0x20 DUP3 ADD SWAP1 POP SWAP2 SWAP1 POP JUMP JUMPDEST PUSH1 0x0 PUSH1 0x20 DUP3 ADD SWAP1 POP DUP2 DUP2 SUB PUSH1 0x0 DUP4 ADD MSTORE PUSH2 0x10D3 DUP2 PUSH2 0x1097 JUMP JUMPDEST SWAP1 POP SWAP2 SWAP1 POP JUMP JUMPDEST PUSH32 0x4D696E69756D20636F6E747269627574696F6E206973206E6F74206D65740000 PUSH1 0x0 DUP3 ADD MSTORE POP JUMP JUMPDEST PUSH1 0x0 PUSH2 0x1110 PUSH1 0x1E DUP4 PUSH2 0xF76 JUMP JUMPDEST SWAP2 POP PUSH2 0x111B DUP3 PUSH2 0x10DA JUMP JUMPDEST PUSH1 0x20 DUP3 ADD SWAP1 POP SWAP2 SWAP1 POP JUMP JUMPDEST PUSH1 0x0 PUSH1 0x20 DUP3 ADD SWAP1 POP DUP2 DUP2 SUB PUSH1 0x0 DUP4 ADD MSTORE PUSH2 0x113F DUP2 PUSH2 0x1103 JUMP JUMPDEST SWAP1 POP SWAP2 SWAP1 POP JUMP JUMPDEST PUSH32 0x4E487B7100000000000000000000000000000000000000000000000000000000 PUSH1 0x0 MSTORE PUSH1 0x11 PUSH1 0x4 MSTORE PUSH1 0x24 PUSH1 0x0 REVERT JUMPDEST PUSH1 0x0 PUSH2 0x1180 DUP3 PUSH2 0xCC1 JUMP JUMPDEST SWAP2 POP PUSH32 0xFFFFFFFFFFFFFFFFFFFFFFFFFFFFFFFFFFFFFFFFFFFFFFFFFFFFFFFFFFFFFFFF DUP3 SUB PUSH2 0x11B2 JUMPI PUSH2 0x11B1 PUSH2 0x1146 JUMP JUMPDEST JUMPDEST PUSH1 0x1 DUP3 ADD SWAP1 POP SWAP2 SWAP1 POP JUMP JUMPDEST PUSH1 0x0 PUSH2 0x11C8 DUP3 PUSH2 0xCC1 JUMP JUMPDEST SWAP2 POP PUSH2 0x11D3 DUP4 PUSH2 0xCC1 JUMP JUMPDEST SWAP3 POP DUP3 DUP3 ADD SWAP1 POP DUP1 DUP3 GT ISZERO PUSH2 0x11EB JUMPI PUSH2 0x11EA PUSH2 0x1146 JUMP JUMPDEST JUMPDEST SWAP3 SWAP2 POP POP JUMP JUMPDEST PUSH32 0x6F6E6C79206D616E616765722063616E2063616C6C20746869732066756E6374 PUSH1 0x0 DUP3 ADD MSTORE PUSH32 0x696F6E0000000000000000000000000000000000000000000000000000000000 PUSH1 0x20 DUP3 ADD MSTORE POP JUMP JUMPDEST PUSH1 0x0 PUSH2 0x124D PUSH1 0x23 DUP4 PUSH2 0xF76 JUMP JUMPDEST SWAP2 POP PUSH2 0x1258 DUP3 PUSH2 0x11F1 JUMP JUMPDEST PUSH1 0x40 DUP3 ADD SWAP1 POP SWAP2 SWAP1 POP JUMP JUMPDEST PUSH1 0x0 PUSH1 0x20 DUP3 ADD SWAP1 POP DUP2 DUP2 SUB PUSH1 0x0 DUP4 ADD MSTORE PUSH2 0x127C DUP2 PUSH2 0x1240 JUMP JUMPDEST SWAP1 POP SWAP2 SWAP1 POP JUMP JUMPDEST PUSH32 0x4E487B7100000000000000000000000000000000000000000000000000000000 PUSH1 0x0 MSTORE PUSH1 0x22 PUSH1 0x4 MSTORE PUSH1 0x24 PUSH1 0x0 REVERT JUMPDEST PUSH1 0x0 PUSH1 0x2 DUP3 DIV SWAP1 POP PUSH1 0x1 DUP3 AND DUP1 PUSH2 0x12CA JUMPI PUSH1 0x7F DUP3 AND SWAP2 POP JUMPDEST PUSH1 0x20 DUP3 LT DUP2 SUB PUSH2 0x12DD JUMPI PUSH2 0x12DC PUSH2 0x1283 JUMP JUMPDEST JUMPDEST POP SWAP2 SWAP1 POP JUMP JUMPDEST PUSH1 0x0 DUP2 SWAP1 POP DUP2 PUSH1 0x0 MSTORE PUSH1 0x20 PUSH1 0x0 KECCAK256 SWAP1 POP SWAP2 SWAP1 POP JUMP JUMPDEST PUSH1 0x0 PUSH1 0x20 PUSH1 0x1F DUP4 ADD DIV SWAP1 POP SWAP2 SWAP1 POP JUMP JUMPDEST PUSH1 0x0 DUP3 DUP3 SHL SWAP1 POP SWAP3 SWAP2 POP POP JUMP JUMPDEST PUSH1 0x0 PUSH1 0x8 DUP4 MUL PUSH2 0x1345 PUSH32 0xFFFFFFFFFFFFFFFFFFFFFFFFFFFFFFFFFFFFFFFFFFFFFFFFFFFFFFFFFFFFFFFF DUP3 PUSH2 0x1308 JUMP JUMPDEST PUSH2 0x134F DUP7 DUP4 PUSH2 0x1308 JUMP JUMPDEST SWAP6 POP DUP1 NOT DUP5 AND SWAP4 POP DUP1 DUP7 AND DUP5 OR SWAP3 POP POP POP SWAP4 SWAP3 POP POP POP JUMP JUMPDEST PUSH1 0x0 DUP2 SWAP1 POP SWAP2 SWAP1 POP JUMP JUMPDEST PUSH1 0x0 PUSH2 0x138C PUSH2 0x1387 PUSH2 0x1382 DUP5 PUSH2 0xCC1 JUMP JUMPDEST PUSH2 0x1367 JUMP JUMPDEST PUSH2 0xCC1 JUMP JUMPDEST SWAP1 POP SWAP2 SWAP1 POP JUMP JUMPDEST PUSH1 0x0 DUP2 SWAP1 POP SWAP2 SWAP1 POP JUMP JUMPDEST PUSH2 0x13A6 DUP4 PUSH2 0x1371 JUMP JUMPDEST PUSH2 0x13BA PUSH2 0x13B2 DUP3 PUSH2 0x1393 JUMP JUMPDEST DUP5 DUP5 SLOAD PUSH2 0x1315 JUMP JUMPDEST DUP3 SSTORE POP POP POP POP JUMP JUMPDEST PUSH1 0x0 SWAP1 JUMP JUMPDEST PUSH2 0x13CF PUSH2 0x13C2 JUMP JUMPDEST PUSH2 0x13DA DUP2 DUP5 DUP5 PUSH2 0x139D JUMP JUMPDEST POP POP POP JUMP JUMPDEST JUMPDEST DUP2 DUP2 LT ISZERO PUSH2 0x13FE JUMPI PUSH2 0x13F3 PUSH1 0x0 DUP3 PUSH2 0x13C7 JUMP JUMPDEST PUSH1 0x1 DUP2 ADD SWAP1 POP PUSH2 0x13E0 JUMP JUMPDEST POP POP JUMP JUMPDEST PUSH1 0x1F DUP3 GT ISZERO PUSH2 0x1443 JUMPI PUSH2 0x1414 DUP2 PUSH2 0x12E3 JUMP JUMPDEST PUSH2 0x141D DUP5 PUSH2 0x12F8 JUMP JUMPDEST DUP2 ADD PUSH1 0x20 DUP6 LT ISZERO PUSH2 0x142C JUMPI DUP2 SWAP1 POP JUMPDEST PUSH2 0x1440 PUSH2 0x1438 DUP6 PUSH2 0x12F8 JUMP JUMPDEST DUP4 ADD DUP3 PUSH2 0x13DF JUMP JUMPDEST POP POP JUMPDEST POP POP POP JUMP JUMPDEST PUSH1 0x0 DUP3 DUP3 SHR SWAP1 POP SWAP3 SWAP2 POP POP JUMP JUMPDEST PUSH1 0x0 PUSH2 0x1466 PUSH1 0x0 NOT DUP5 PUSH1 0x8 MUL PUSH2 0x1448 JUMP JUMPDEST NOT DUP1 DUP4 AND SWAP2 POP POP SWAP3 SWAP2 POP POP JUMP JUMPDEST PUSH1 0x0 PUSH2 0x147F DUP4 DUP4 PUSH2 0x1455 JUMP JUMPDEST SWAP2 POP DUP3 PUSH1 0x2 MUL DUP3 OR SWAP1 POP SWAP3 SWAP2 POP POP JUMP JUMPDEST PUSH2 0x1498 DUP3 PUSH2 0xF6B JUMP JUMPDEST PUSH8 0xFFFFFFFFFFFFFFFF DUP2 GT ISZERO PUSH2 0x14B1 JUMPI PUSH2 0x14B0 PUSH2 0xD10 JUMP JUMPDEST JUMPDEST PUSH2 0x14BB DUP3 SLOAD PUSH2 0x12B2 JUMP JUMPDEST PUSH2 0x14C6 DUP3 DUP3 DUP6 PUSH2 0x1402 JUMP JUMPDEST PUSH1 0x0 PUSH1 0x20 SWAP1 POP PUSH1 0x1F DUP4 GT PUSH1 0x1 DUP2 EQ PUSH2 0x14F9 JUMPI PUSH1 0x0 DUP5 ISZERO PUSH2 0x14E7 JUMPI DUP3 DUP8 ADD MLOAD SWAP1 POP JUMPDEST PUSH2 0x14F1 DUP6 DUP3 PUSH2 0x1473 JUMP JUMPDEST DUP7 SSTORE POP PUSH2 0x1559 JUMP JUMPDEST PUSH1 0x1F NOT DUP5 AND PUSH2 0x1507 DUP7 PUSH2 0x12E3 JUMP JUMPDEST PUSH1 0x0 JUMPDEST DUP3 DUP2 LT ISZERO PUSH2 0x152F JUMPI DUP5 DUP10 ADD MLOAD DUP3 SSTORE PUSH1 0x1 DUP3 ADD SWAP2 POP PUSH1 0x20 DUP6 ADD SWAP5 POP PUSH1 0x20 DUP2 ADD SWAP1 POP PUSH2 0x150A JUMP JUMPDEST DUP7 DUP4 LT ISZERO PUSH2 0x154C JUMPI DUP5 DUP10 ADD MLOAD PUSH2 0x1548 PUSH1 0x1F DUP10 AND DUP3 PUSH2 0x1455 JUMP JUMPDEST DUP4 SSTORE POP JUMPDEST PUSH1 0x1 PUSH1 0x2 DUP9 MUL ADD DUP9 SSTORE POP POP POP JUMPDEST POP POP POP POP POP POP JUMP JUMPDEST PUSH32 0x20596F7520617265206E6F7420656C696769626C6520666F7220726566756E64 PUSH1 0x0 DUP3 ADD MSTORE POP JUMP JUMPDEST PUSH1 0x0 PUSH2 0x1597 PUSH1 0x20 DUP4 PUSH2 0xF76 JUMP JUMPDEST SWAP2 POP PUSH2 0x15A2 DUP3 PUSH2 0x1561 JUMP JUMPDEST PUSH1 0x20 DUP3 ADD SWAP1 POP SWAP2 SWAP1 POP JUMP JUMPDEST PUSH1 0x0 PUSH1 0x20 DUP3 ADD SWAP1 POP DUP2 DUP2 SUB PUSH1 0x0 DUP4 ADD MSTORE PUSH2 0x15C6 DUP2 PUSH2 0x158A JUMP JUMPDEST SWAP1 POP SWAP2 SWAP1 POP JUMP JUMPDEST PUSH32 0x796F75206D757374206265206120636F6E7472696275746F7200000000000000 PUSH1 0x0 DUP3 ADD MSTORE POP JUMP JUMPDEST PUSH1 0x0 PUSH2 0x1603 PUSH1 0x19 DUP4 PUSH2 0xF76 JUMP JUMPDEST SWAP2 POP PUSH2 0x160E DUP3 PUSH2 0x15CD JUMP JUMPDEST PUSH1 0x20 DUP3 ADD SWAP1 POP SWAP2 SWAP1 POP JUMP JUMPDEST PUSH1 0x0 PUSH1 0x20 DUP3 ADD SWAP1 POP DUP2 DUP2 SUB PUSH1 0x0 DUP4 ADD MSTORE PUSH2 0x1632 DUP2 PUSH2 0x15F6 JUMP JUMPDEST SWAP1 POP SWAP2 SWAP1 POP JUMP JUMPDEST PUSH32 0x796F75206861766520616C6C726561647920766F746564200000000000000000 PUSH1 0x0 DUP3 ADD MSTORE POP JUMP JUMPDEST PUSH1 0x0 PUSH2 0x166F PUSH1 0x18 DUP4 PUSH2 0xF76 JUMP JUMPDEST SWAP2 POP PUSH2 0x167A DUP3 PUSH2 0x1639 JUMP JUMPDEST PUSH1 0x20 DUP3 ADD SWAP1 POP SWAP2 SWAP1 POP JUMP JUMPDEST PUSH1 0x0 PUSH1 0x20 DUP3 ADD SWAP1 POP DUP2 DUP2 SUB PUSH1 0x0 DUP4 ADD MSTORE PUSH2 0x169E DUP2 PUSH2 0x1662 JUMP JUMPDEST SWAP1 POP SWAP2 SWAP1 POP JUMP JUMPDEST PUSH32 0x546865207265717565737420686173206265656E20636F6D706C657465640000 PUSH1 0x0 DUP3 ADD MSTORE POP JUMP JUMPDEST PUSH1 0x0 PUSH2 0x16DB PUSH1 0x1E DUP4 PUSH2 0xF76 JUMP JUMPDEST SWAP2 POP PUSH2 0x16E6 DUP3 PUSH2 0x16A5 JUMP JUMPDEST PUSH1 0x20 DUP3 ADD SWAP1 POP SWAP2 SWAP1 POP JUMP JUMPDEST PUSH1 0x0 PUSH1 0x20 DUP3 ADD SWAP1 POP DUP2 DUP2 SUB PUSH1 0x0 DUP4 ADD MSTORE PUSH2 0x170A DUP2 PUSH2 0x16CE JUMP JUMPDEST SWAP1 POP SWAP2 SWAP1 POP JUMP JUMPDEST PUSH32 0x4E487B7100000000000000000000000000000000000000000000000000000000 PUSH1 0x0 MSTORE PUSH1 0x12 PUSH1 0x4 MSTORE PUSH1 0x24 PUSH1 0x0 REVERT JUMPDEST PUSH1 0x0 PUSH2 0x174B DUP3 PUSH2 0xCC1 JUMP JUMPDEST SWAP2 POP PUSH2 0x1756 DUP4 PUSH2 0xCC1 JUMP JUMPDEST SWAP3 POP DUP3 PUSH2 0x1766 JUMPI PUSH2 0x1765 PUSH2 0x1711 JUMP JUMPDEST JUMPDEST DUP3 DUP3 DIV SWAP1 POP SWAP3 SWAP2 POP POP JUMP JUMPDEST PUSH32 0x4D616A6F7269747920646F6573206E6F7420737570706F727400000000000000 PUSH1 0x0 DUP3 ADD MSTORE POP JUMP JUMPDEST PUSH1 0x0 PUSH2 0x17A7 PUSH1 0x19 DUP4 PUSH2 0xF76 JUMP JUMPDEST SWAP2 POP PUSH2 0x17B2 DUP3 PUSH2 0x1771 JUMP JUMPDEST PUSH1 0x20 DUP3 ADD SWAP1 POP SWAP2 SWAP1 POP JUMP JUMPDEST PUSH1 0x0 PUSH1 0x20 DUP3 ADD SWAP1 POP DUP2 DUP2 SUB PUSH1 0x0 DUP4 ADD MSTORE PUSH2 0x17D6 DUP2 PUSH2 0x179A JUMP JUMPDEST SWAP1 POP SWAP2 SWAP1 POP JUMP INVALID LOG2 PUSH5 0x6970667358 0x22 SLT KECCAK256 SUB CHAINID 0xFC 0x27 ISZERO LOG0 STATICCALL BLOCKHASH JUMP PUSH5 0xE21B8CE342 0xD4 PUSH21 0x36B7EC080A447D86B89957DDEF4E7664736F6C6343 STOP ADDMOD GT STOP CALLER "
				},
				"gasEstimates": {
					"creation": {
						"codeDepositCost": "1232600",
						"executionCost": "infinite",
						"totalCost": "infinite"
					},
					"external": {
						"contributors(address)": "2860",
						"createrequest(string,address,uint256)": "infinite",
						"deadline()": "2497",
						"gcb()": "384",
						"makepayment(uint256)": "infinite",
						"manager()": "2559",
						"minimumContributor()": "2452",
						"noOfContributors()": "2496",
						"numrequest()": "2517",
						"raisedAmount()": "2451",
						"refund()": "infinite",
						"requests(uint256)": "infinite",
						"sendEth()": "infinite",
						"target()": "2495",
						"voterequest(uint256)": "infinite"
					}
				},
				"methodIdentifiers": {
					"contributors(address)": "1f6d4942",
					"createrequest(string,address,uint256)": "30817529",
					"deadline()": "29dcb0cf",
					"gcb()": "626b4b2c",
					"makepayment(uint256)": "cbaf8671",
					"manager()": "481c6a75",
					"minimumContributor()": "5c4627e9",
					"noOfContributors()": "4e260f6f",
					"numrequest()": "fe7c1b8a",
					"raisedAmount()": "c59ee1dc",
					"refund()": "590e1ae3",
					"requests(uint256)": "81d12c58",
					"sendEth()": "06e99fef",
					"target()": "d4b83992",
					"voterequest(uint256)": "967c67ce"
				}
			},
			"storageLayout": {
				"storage": [
					{
						"astId": 5,
						"contract": "contracts/crowdfunding.sol:CrowdFunding",
						"label": "contributors",
						"offset": 0,
						"slot": "0",
						"type": "t_mapping(t_address,t_uint256)"
					},
					{
						"astId": 7,
						"contract": "contracts/crowdfunding.sol:CrowdFunding",
						"label": "manager",
						"offset": 0,
						"slot": "1",
						"type": "t_address"
					},
					{
						"astId": 9,
						"contract": "contracts/crowdfunding.sol:CrowdFunding",
						"label": "minimumContributor",
						"offset": 0,
						"slot": "2",
						"type": "t_uint256"
					},
					{
						"astId": 11,
						"contract": "contracts/crowdfunding.sol:CrowdFunding",
						"label": "deadline",
						"offset": 0,
						"slot": "3",
						"type": "t_uint256"
					},
					{
						"astId": 13,
						"contract": "contracts/crowdfunding.sol:CrowdFunding",
						"label": "target",
						"offset": 0,
						"slot": "4",
						"type": "t_uint256"
					},
					{
						"astId": 15,
						"contract": "contracts/crowdfunding.sol:CrowdFunding",
						"label": "raisedAmount",
						"offset": 0,
						"slot": "5",
						"type": "t_uint256"
					},
					{
						"astId": 17,
						"contract": "contracts/crowdfunding.sol:CrowdFunding",
						"label": "noOfContributors",
						"offset": 0,
						"slot": "6",
						"type": "t_uint256"
					},
					{
						"astId": 170,
						"contract": "contracts/crowdfunding.sol:CrowdFunding",
						"label": "requests",
						"offset": 0,
						"slot": "7",
						"type": "t_mapping(t_uint256,t_struct(Request)165_storage)"
					},
					{
						"astId": 172,
						"contract": "contracts/crowdfunding.sol:CrowdFunding",
						"label": "numrequest",
						"offset": 0,
						"slot": "8",
						"type": "t_uint256"
					}
				],
				"types": {
					"t_address": {
						"encoding": "inplace",
						"label": "address",
						"numberOfBytes": "20"
					},
					"t_address_payable": {
						"encoding": "inplace",
						"label": "address payable",
						"numberOfBytes": "20"
					},
					"t_bool": {
						"encoding": "inplace",
						"label": "bool",
						"numberOfBytes": "1"
					},
					"t_mapping(t_address,t_bool)": {
						"encoding": "mapping",
						"key": "t_address",
						"label": "mapping(address => bool)",
						"numberOfBytes": "32",
						"value": "t_bool"
					},
					"t_mapping(t_address,t_uint256)": {
						"encoding": "mapping",
						"key": "t_address",
						"label": "mapping(address => uint256)",
						"numberOfBytes": "32",
						"value": "t_uint256"
					},
					"t_mapping(t_uint256,t_struct(Request)165_storage)": {
						"encoding": "mapping",
						"key": "t_uint256",
						"label": "mapping(uint256 => struct CrowdFunding.Request)",
						"numberOfBytes": "32",
						"value": "t_struct(Request)165_storage"
					},
					"t_string_storage": {
						"encoding": "bytes",
						"label": "string",
						"numberOfBytes": "32"
					},
					"t_struct(Request)165_storage": {
						"encoding": "inplace",
						"label": "struct CrowdFunding.Request",
						"members": [
							{
								"astId": 152,
								"contract": "contracts/crowdfunding.sol:CrowdFunding",
								"label": "description",
								"offset": 0,
								"slot": "0",
								"type": "t_string_storage"
							},
							{
								"astId": 154,
								"contract": "contracts/crowdfunding.sol:CrowdFunding",
								"label": "recipient",
								"offset": 0,
								"slot": "1",
								"type": "t_address_payable"
							},
							{
								"astId": 156,
								"contract": "contracts/crowdfunding.sol:CrowdFunding",
								"label": "value",
								"offset": 0,
								"slot": "2",
								"type": "t_uint256"
							},
							{
								"astId": 158,
								"contract": "contracts/crowdfunding.sol:CrowdFunding",
								"label": "completed",
								"offset": 0,
								"slot": "3",
								"type": "t_bool"
							},
							{
								"astId": 160,
								"contract": "contracts/crowdfunding.sol:CrowdFunding",
								"label": "noOfvoters",
								"offset": 0,
								"slot": "4",
								"type": "t_uint256"
							},
							{
								"astId": 164,
								"contract": "contracts/crowdfunding.sol:CrowdFunding",
								"label": "voters",
								"offset": 0,
								"slot": "5",
								"type": "t_mapping(t_address,t_bool)"
							}
						],
						"numberOfBytes": "192"
					},
					"t_uint256": {
						"encoding": "inplace",
						"label": "uint256",
						"numberOfBytes": "32"
					}
				}
			},
			"userdoc": {
				"kind": "user",
				"methods": {},
				"version": 1
			}
		}
	}
}